:020000040800F2
:10000000280F0020A901000825220008B3010008DC
:10001000212200086F070008CD260008000000001C
:10002000000000000000000000000000672200083F
:10003000BD01000800000000BF010008692200089F
:10004000C3010008C3010008C3010008C301000880
:10005000C3010008C3010008C3010008C301000870
:10006000C3010008C3010008C3010008C301000860
:10007000C3010008C3010008C3010008C301000850
:10008000C3010008C3010008C3010008000000000C
:10009000000000000000000000000000C301000894
:1000A000C3010008C3010008C3010008C301000820
:1000B000C3010008C3010008C3010008C301000810
:1000C000C3010008C3010008C3010008C301000800
:1000D000C3010008C3010008C301000800000000BC
:1000E000C3010008C3010008C301000800000000AC
:1000F000000000000000000000000000C301000834
:1001000000000000C3010008C3010008C30100088B
:1001100000000000000000000000000000000000DF
:10012000C3010008C3010008C3010008C30100089F
:10013000C3010008000000000000000000000000F3
:10014000000000000000000000000000C3010008E3
:10015000C3010008C3010008C3010008C30100086F
:10016000C3010008C30100080000000000000000F7
:10017000000000000000000000000000000000007F
:1001800000000000C30100080000000000000000A3
:10019000C3010008DFF80CD000F068FA00480047FF
:1001A00059320008280F00200648804706480047BB
:1001B000FEE7FEE7FEE7FEE7FEE7FEE7FEE7FEE717
:1001C000FEE7FEE701230008950100082DE9F05F36
:1001D0000546002092469B468846064681464024B6
:1001E0001BE0284641464746224600F076F8534633
:1001F0005A46C01A914110D311461846224600F0C3
:100200005DF82D1A67EB01084F46224601200021B8
:1002100000F054F817EB00094E41201EA4F1010430
:10022000DFDC484631462A464346BDE8F09F40EAB7
:1002300001039B0703D009E008C9121F08C0042A64
:10024000FAD203E011F8013B00F8013B521EF9D24B
:100250007047D2B201E000F8012B491EFBD2704773
:100260000022F6E710B513460A4604461946FFF782
:10027000F0FF204610BD30B504460020034600E0E4
:100280005B1C934203D2E05CCD5C401BF8D030BDD8
:1002900030B50B46014600202022012409E021FA56
:1002A00002F59D4205D303FA02F5491B04FA02F553
:1002B0002844151EA2F10102F1DC30BD202A04DB26
:1002C000203A00FA02F1002070479140C2F1200369
:1002D00020FA03F3194390407047202A04DB203AA8
:1002E00021FA02F00021704721FA02F3D040C2F156
:1002F000200291400843194670472DE9FE4F804681
:1003000081EA0300C00F0C46009021F0004123F069
:100310000045B8EB0200A94105D24046214690466F
:100320001C460B46024623F00040104347D0270DE1
:10033000C7F30A00C3F30A510290401A0190402803
:100340006BDAC3F3130040F4801B0098924620B18F
:100350000023D2EB030A63EB0B0B01985946C0F163
:1003600040025046FFF7AAFF06460D465046594642
:10037000019A00F08DF910EB08006141002487EA32
:10038000115284EAE7731A4340D0009A62B3019A8B
:10039000012A4FEA075215DC001B61EB02014FF006
:1003A000004202EA0752CDE90042001C41F58011EB
:1003B00032462B4600F08DF903B0BDE8F08F404681
:1003C0002146F9E7001B61EB0201001C41F5801397
:1003D00000185B412018A2F5001747EB030140EA23
:1003E000D570B6196D4111E06D084FEA360645EA41
:1003F000C0754FEA0752001B61EB0201001C41F57A
:10040000801149084FEA30000019514132462B460D
:1004100003B0BDE8F04F00F04DB900980122400054
:100420000023D0EB020263EBE073009821464FEA11
:10043000E074B8EB000061EB0401E9E783F00043EE
:100440005BE781F0004158E72DE9FE4F81EA0304A4
:1004500004F0004421F0004100944FF0000B23F021
:10046000004350EA01045ED052EA03045BD0C3F3B8
:100470000A54C1F30A552C44A4F2F3340194A0FBAE
:100480000254C1F3130141F48011C3F3130343F485
:10049000801301FB024400FB034E840A970A44EADE
:1004A000815447EA8357A4FB076802958D0A05FB30
:1004B00007854FEA932C04FB0C542705029D4FEA55
:1004C000065847EA1637B5EB08056EEB070C870EA2
:1004D000920E47EA811742EA8312A7FB0201B6EBAC
:1004E0000B0164EB00042B0D43EA0C335E1844EB64
:1004F0001C50DA465146E7FB0201C5F313044FEAEC
:100500000B3343EA14534FEA0432019C43EA0603D7
:10051000A4F10C040294009CCDE900B400F0D9F8D9
:1005200003B0BDE8F08F00200146F9E72DE9F04D5A
:1005300081EA030404F0004B21F0004514464FF01B
:10054000000A23F0004150EA050220D054EA0102DB
:100550001DD0C5F30A570246C5F31303C1F31300B8
:10056000C1F30A5640F4801543F48013A7EB060844
:10057000101BD64608F2FD3873EB050002D308F1D4
:10058000010801E092185B41B8F1000F03DA002086
:100590000146BDE8F08D00204FF4801106468446E8
:1005A0000EE0171B73EB050705D3121B63EB050366
:1005B00006434CEA010C49084FEA300092185B41AF
:1005C00050EA0107EDD152EA030012D082EA04009A
:1005D00083EA0501084305D0101BAB4106D2012276
:1005E000002306E000224FF0004302E06FF001021A
:1005F00053101AEB06004CEB085110EB0A0041EBCC
:100600000B01BDE8F04D00F055B8C1F30A52C1F33B
:10061000130140F2FF3341F480119A4202DA0020C4
:100620000146704740F233439A42A2F2334202DC61
:100630005242FFF752BEFFF741BE000030B5041E24
:1006400071F1000404DB4FF00044404264EB01010F
:10065000141E73F1000405DB1C464FF000435242A8
:1006600063EB0403994208BF904230BD064C074D2E
:1006700006E0E06840F0010394E807009847103472
:10068000AC42F6D3FFF78AFDA4360008C436000852
:10069000202A06DBCB17203A41FA02F043EAE07346
:1006A00006E041FA02F3D040C2F120029140084333
:1006B0001946704710B5141E73F1000408DA401C87
:1006C00041F1000192185B411A4301D120F0010071
:1006D00010BD2DE9F04D92469B4611B1B1FA81F261
:1006E00002E0B0FA80F220329046FFF7E7FD0446C0
:1006F0000F4640EA0A0041EA0B0153465A460843B6
:1007000013D0114653EA010019D0C8F140025046F7
:10071000FFF7E3FD05460E46504659464246FFF7B1
:10072000CDFD084305D0012004E020463946BDE850
:10073000F08D0020054346EAE0762C4337430A98C3
:100740006305E40AA0EB08000022FD0A44EA4754CE
:100750000A3002D500200146E9E701051019694178
:10076000DDE9084500196941BDE8F04DA2E700BF89
:10077000FEE7000010B5002201B909E0012901D10E
:100780000A0205E0022901D10A0201E04FF4407299
:100790000E4B1B6823F440730C4C236023461B68EC
:1007A0001343236023461B6823F0F803236023468A
:1007B0001B68022444EAC0042343044C23602346FC
:1007C0001B6843F48033236010BD0000103C0240DE
:1007D0001C48006800F40070B0B11A48006820F4AA
:1007E00000701849086000BF0846006840F40060C7
:1007F00008600846006820F40060086000BF0846F2
:10080000006840F4007008600E48006800F48060E2
:10081000B0B10C48006820F480600A49086000BF4D
:100820000846006840F4805008600846006820F4DC
:100830008050086000BF0846006840F4806008608F
:1008400070470000003C02400A4A126822F44072DD
:10085000084B1A601A46126842F004021A601A46DF
:1008600012684FF4803343EA00231A43014B1A60A5
:1008700070470000103C0240074A126822F44072A0
:10088000054B1A601A4612681A601A46126842F03E
:1008900001021A6001707047103C024010B509490E
:1008A000096821F44071074C21602146096841F430
:1008B000407121602146096841F001012160026018
:1008C000436010BD103C0240084A126822F4407296
:1008D000064B1A601A46126842F480721A601A4671
:1008E000126842F001021A6001807047103C024019
:1008F000084A126822F44072064B1A601A461268BF
:1009000042F400721A601A46126842F001021A603C
:1009100001607047103C02402A48006800F0100057
:1009200040B12948C06940F010002749C861102033
:10093000244908602348006800F0200040B12248A4
:10094000C06940F008002049C86120201D490860A6
:100950001C48006800F0400040B11B48C06940F0EE
:1009600004001949C861402016490860154800680C
:1009700000F0800040B11448C06940F00200124904
:10098000C86180200F4908600E48006800F480703C
:1009900048B10D48C06940F001000B49C8614FF4EF
:1009A0008070084908600748006800F0020040B104
:1009B0000548C06940F020000349C8610220014990
:1009C000086070470C3C02400409002070B50446E2
:1009D000002500201449C86100F0DCFA054609E052
:1009E000601C38B124B100F0D5FA401BA04201D9F7
:1009F000032070BD0D48006800F480300028EFD15E
:100A00000A48006800F0010010B1012007490860A1
:100A10000648006800F4F97018B1FFF77DFF012067
:100A2000E7E70020E5E70000040900200C3C024055
:100A300010B586B004460020009000F0A1F9002017
:100A40000190204600F00EF803900120049002204F
:100A50000590694601A800F0E7F800F03BF906B000
:100A600010BD000001460020144A914203D2B1F1AA
:100A7000006F00D320E0124A914204D20F4A914203
:100A800001D3012018E00F4A914204D20C4A91424E
:100A900001D3022010E00C4A914204D2094A91424B
:100AA00001D3032008E0094A914204D2064A914248
:100AB00001D3042000E0052070470000004000083A
:100AC0000080000800C000080000010800000208C3
:100AD00010B50B46002104E004785454401C4C1C13
:100AE000A1B29942F8DB10BD2DE9F04704460E464D
:100AF00015464FF00009CA4600F042F904EB060A19
:100B00004CF25030FFF762FF8146B9F1000F10D16F
:100B10000CE095F90000C31707463A46214600202D
:100B200000F0E2F800B103E0641C6D1C5445F0D302
:100B300000BF00F0CFF8BDE8F08700002DE9F047D6
:100B400004460F460025A946A0460026AA4604F002
:100B5000030010B1681EBDE8F0872748844202D226
:100B6000B4F1006F02D24FF0FF30F4E72248874221
:100B700002D34FF0FF30EEE708E0204601F070FBB3
:100B8000401C10B14FF0010902E0241DBC42F4D317
:100B900000BF4446B9F1010F28D100F0F1F8174821
:100BA000261A6EB1304602F0D1FB05462DB1B1B226
:100BB0002A461248FFF78CFF02E04FF0FF30CAE7E9
:100BC0002046FFF735FF4CF25030FFF7FFFE82461C
:100BD000BAF1000F05D1B1B22A460848FFF784FFE9
:100BE00002E04FF0FF30B6E700F074F815B1284688
:100BF00002F0F8F90020AEE7000004080040000809
:100C000070B5044600F0C6F906462546681C10B1CA
:100C100004480078054400BF00F0BCF9801BA842DE
:100C2000FAD370BD540000202DE9F04104460E4671
:100C30000127002500BF2548007E012802D102209F
:100C4000BDE8F08101202149087600BF4CF2503008
:100C5000FFF7BCFE0746002F31D1401E30602068F0
:100C600001280FD1207C6168FFF7EEFD4CF2503077
:100C7000FFF7ACFE07461648006820F00400144950
:100C800008601AE0A56812E0217C2846FFF772FD93
:100C90004CF25030FFF79AFE07460D48006820F0EE
:100CA000FA000B4908600FB1356005E06D1CD4E90E
:100CB00002100844A842E7D800BFFFF789FD00BF33
:100CC00000200249087600BF3846B9E70409002031
:100CD000103C02400348006840F0004001490860B1
:100CE00000207047103C02402DE9F04106460F46B7
:100CF00014461D464FF0010800BF1F48007E012822
:100D000002D10220BDE8F08101201B49087600BF16
:100D10004CF25030FFF75AFE8046B8F1000F23D155
:100D200026B9E1B23846FFF7A7FD12E0012E04D143
:100D3000A1B23846FFF7C8FD0BE0022E04D12146D0
:100D40003846FFF7D5FD04E022462B463846FFF72C
:100D5000A5FD4CF25030FFF739FE80460748006889
:100D600020F001000549086000BF00200249087614
:100D700000BF4046C6E7000004090020103C0240C6
:100D800000200949096801F0004159B10749064AA4
:100D90000C3A1160064911600349096801F00041ED
:100DA00001B1012070470000103C0240230167455B
:100DB000AB89EFCDF8B503460A4600250024002094
:100DC0000021CDE0012606FA01F5166806EA0504C1
:100DD000AC4273D15668022E02D05668122E13D13F
:100DE000CF0803F1200656F827004E07F70E0F260E
:100DF000BE40B0434F07FF0E1669BE403043CF08D8
:100E000003F1200646F8270018684F000326BE406D
:100E1000B043167906F003064F00BE403043186019
:100E20005668012E08D05668022E05D05668112E3D
:100E300002D05668122E13D198684F000326BE4088
:100E4000B0434F00D668BE403043986058680126D2
:100E50008E40B0431679C6F300168E40304358607A
:100E6000D8684F000326BE40B0434F009668BE408E
:100E70003043D860566806F08056B6F1805F6ED178
:100E800000BF00260096384E366846F48046364F3E
:100E90003E603E46366806F48046009600BF00BFBE
:100EA000324E8F0856F827008E07370F0F26BE40A8
:100EB000B0432F4EB34202D1002615E04FE02D4E35
:100EC000B34201D101260FE02B4EB34201D10226DD
:100ED0000AE02A4EB34201D1032605E0284EB34270
:100EE00001D1042600E007268F073F0FBE403043A4
:100EF0001E4E8F0846F82700224E3068A0435668E1
:100F000006F48036B6F5803F00D120431D4E306098
:100F1000361D3068A043566806F40036B6F5003F2B
:100F200000D12043174E361D3060361D3068A04377
:100F3000566806F48016B6F5801F00D12043114E86
:100F400008363060361D3068A043566806F4001637
:100F5000B6F5001F00D120430A4E0C363060491C04
:100F60001029FFF42FAFF8BD443802400838014083
:100F7000000002400004024000080240000C024051
:100F800000100240003C01400AB1816101E00B0405
:100F90008361704701480068704700004C000020E2
:100FA000034800680349097808440149086070470C
:100FB0004C0000205400002010B50D48006840F49B
:100FC00000700B4908600846006840F480600860C3
:100FD0000846006840F480700860032000F070F854
:100FE0000F2000F007F800F02BF8002010BD0000E3
:100FF000003C024070B504460E4800784FF47A7108
:10100000B1FBF0F00C490968B1FBF0F5284600F09F
:10101000CEFB08B1012070BD102C07D20022214662
:10102000501E00F00EF80548046001E00120F2E7D0
:101030000020F0E75400002048000020500000206D
:1010400070472DE9F05F80460D461646002701F0F7
:10105000EBF8074639462A46334601F00700C0F14F
:10106000070ABAF1040F02D94FF0040A01E0C0F1F7
:10107000070AD14600F1040ABAF1070F02D24FF075
:10108000000A01E0A0F1030AD4464FF0010A0AFA6F
:1010900009FAAAF1010A0AEA020A0AFA0CFA4FF05E
:1010A000010B0BFA0CFBABF1010B0BEA030B4AEA49
:1010B0000B042146404601F0BFF8BDE8F09F000058
:1010C00000BF00F00702064B19684FF6FF031940F6
:1010D000044B0B4343EA0221014B196000BF7047E8
:1010E0000CED00E00000FA0570B504460D460CB9A1
:1010F000012070BD5848006800F00F00A84209D2D6
:1011000055490D700846006800F00F00A84201D054
:101110000120EEE7207800F0020002281DD120789F
:1011200000F00400042805D14C48006840F4E05069
:101130004A490860207800F00800082805D147488F
:10114000006840F46040454908604448006820F069
:10115000F000A168084341490860207800F00100D0
:10116000A8B36068012807D13C4808380068C0F37C
:101170004040B8B90120BCE76068022802D060682E
:10118000032807D1354808380068C0F3406048B9E3
:101190000120AEE7314808380068C0F3400008B9C4
:1011A0000120A6E72D48006820F00300616808438D
:1011B0002A490860FFF7EEFE064609E0FFF7EAFE5F
:1011C000801B41F28831884202D9032091E707E071
:1011D0002248006800F00C006168B0EB810FEDD18F
:1011E0001D48006800F00F00A84209D91A490D7087
:1011F0000846006800F00F00A84201D0012078E7FF
:10120000207800F00400042807D11448006820F476
:10121000E050E168084311490860207800F00800B8
:10122000082808D10D48006820F46040216940EA90
:10123000C1000A49086000F03DF808490968C1F397
:101240000311074A515CC840064908600F20FFF7A8
:10125000D1FE00204DE70000003C0240083802406B
:101260008C360008480000200148006870470000E4
:101270004800002000B5FFF7F7FF04490968C1F3F3
:101280008221034A515CC84000BD0000083802407A
:101290009C36000800B5FFF7E7FF04490968C1F371
:1012A0004231034A515CC84000BD0000083802408A
:1012B0009C3600082DE9F047002400250026A146B1
:1012C0002548006800F00C0020B1042805D008284B
:1012D0003AD105E0DFF8849039E0DFF8849036E019
:1012E0001D48001F006800F03F041B48001F0068F5
:1012F00000F4800078B11A481749091F0968C1F342
:101300008811A0FB01700146224600233846FEF7F3
:101310005DFF05460EE011480F49091F0968C1F33A
:101320008811A0FB01700146224600233846FEF7D3
:101330004DFF05460848001F0068C0F30140401CEF
:101340004600B5FBF6F902E0DFF8109000BF00BFE1
:101350004846BDE8F0870000083802400024F40049
:1013600000127A00F8B504460CB90120F8BD2078C7
:1013700000F00100002874D0F948006800F00C006B
:1013800004280DD0F648006800F00C00082813D19E
:10139000F348001F006800F48000B0F5800F0BD107
:1013A000EF4808380068C0F34040002859D0606812
:1013B000002856D10120D9E700BF6068B0F5803F12
:1013C00008D1E7480838006840F48030E44908391B
:1013D00008601EE06068B0F5A02F0DD1E048083825
:1013E000006840F48020DE4908390860084600683B
:1013F00040F4803008600CE0D9480838006820F4D8
:101400008030D749083908600846006820F48020F9
:10141000086000BF606890B1FFF7BCFD054606E0BC
:10142000FFF7B8FD401B642801D903209EE7CC4894
:1014300008380068C0F340400028F1D011E0FFF701
:10144000A9FD054606E0FFF7A5FD401B642801D96C
:1014500003208BE7C24808380068C0F340400028EA
:10146000F1D1207800F0020002285FD1BC4800686A
:1014700000F00C0058B1BA48006800F00C000828D1
:101480001CD1B748001F006800F48000B0B9B44810
:1014900008380068C0F3400020B1E068012801D09E
:1014A000012063E7AE480838006820F0F8002169A1
:1014B00040EAC100AA490839086037E0E06800B393
:1014C0000120A8490860FFF765FD054606E0FFF723
:1014D00061FD401B022801D9032047E7A0480838D6
:1014E0000068C0F340000028F1D09D48083800682B
:1014F00020F0F800216940EAC100994908390860E4
:1015000014E0002097490860FFF744FD054606E017
:10151000FFF740FD401B022801D9032026E7904831
:1015200008380068C0F340000028F1D1207800F0AE
:10153000080008282CD16069A8B101208A490860F8
:10154000FFF728FD054606E0FFF724FD401B0228B3
:1015500001D903200AE782486C300068C0F34000DC
:101560000028F1D014E000207F490860FFF712FD49
:10157000054606E0FFF70EFD401B022801D90320B7
:10158000F4E677486C300068C0F340000028F1D1E1
:10159000207800F00400042870D10026704838300C
:1015A000006800F0805090B900BF002000906C48A7
:1015B0003830006840F0805069493831086008468A
:1015C000006800F08050009000BF00BF012667480F
:1015D000006800F48070B0B96448006840F480701E
:1015E00062490860FFF7D6FC054606E0FFF7D2FC2B
:1015F000401B022801D90320B8E65C48006800F4CB
:1016000080700028F2D000BFA068012808D154489B
:101610006830006840F001005149683108601DE001
:10162000A06805280DD14E486830006840F00400DD
:101630004B49683108600846006840F001000860C6
:101640000CE047486830006820F0010044496831E8
:1016500008600846006820F00400086000BFA06829
:10166000A8B1FFF797FC054609E0FFF793FC401B84
:1016700041F28831884202D9032077E626E03848D3
:1016800068300068C0F340000028EED013E0FFF798
:1016900081FC054608E0FFF77DFC401B41F28831E4
:1016A000884201D9032061E62D4868300068C0F304
:1016B00040000028EFD1012E07D1294838300068BA
:1016C00020F0805026493831086000BFA069B8B3C7
:1016D0002348006800F00C0008285ED0A0690228AA
:1016E00046D100201F490866FFF754FC054606E076
:1016F000FFF750FC401B022801D9032036E61848AA
:1017000008380068C0F340600028F1D1D4E907012F
:101710000843616A40EA81110122A06AC2EB5000CD
:1017200041EA00412C20005D41EA00600C49091F9C
:10173000086001200B490866FFF72CFC054607E00E
:101740002DE0FFF727FC401B022801D903200DE6FE
:10175000034808380068C0F340600028F1D01EE05C
:101760000838024000004742800E474200700040A7
:1017700000200C490866FFF70DFC054606E0FFF760
:1017800009FC401B022801D90320EFE50648006848
:10179000C0F340600028F2D101E00120E6E500201E
:1017A000E4E500000000474200380240704770B591
:1017B00004462546681EB0F1807F01D301200FE06A
:1017C000681E4FF0E02148610F214FF0FF3000F01C
:1017D00033FD00204FF0E0218861072008610020E0
:1017E00070BD10B5FFF7E2FF10BD10B504460CB98F
:1017F000012010BDA06900B100E000BF94F83900DD
:1018000028B9002084F83800204600F027F824206A
:1018100084F839002068C06820F400502168C8604E
:10182000204600F09FFD2068006920F49040216868
:1018300008612068406920F02A002168486120681A
:10184000C06840F400502168C8600020E063202098
:1018500084F8390084F83A000020CAE710B586B051
:10186000044600BF002000901948006840F00100C5
:10187000174908600846006800F00100009000BFAA
:1018800000BF00BF002000900846006840F0010043
:1018900008600846006800F00100009000BF00BF2B
:1018A0000420019002200290012003900320049064
:1018B0000720059001A90748FFF77CFA082001904E
:1018C0000720059001A90348FFF774FA06B010BD80
:1018D000303802400000024070B50346002400206A
:1018E00010E00E5C451C4D5D46EA0526851C4D5DED
:1018F00046EA0546C51C4D5D46EA056543F8245099
:10190000641C001D9042ECD370BD70B503461446B4
:101910000022002015E011F822501D5431F8225009
:10192000C5F30726451C5E5551F82250C5F30746FE
:10193000851C5E5551F822502D0EC61C9D55521C1B
:10194000001DA042E7D370BD2DE9FC4104460E46C0
:10195000002500272088C0F3C505382D02D2C5F127
:10196000380001E0C5F178000746082221466846A4
:10197000FFF7CBFF3A460849204600F00BFC08224F
:101980006946204600F006FC102204F108013046AA
:10199000FFF7BBFFBDE8FC810400002000210160CF
:1019A000416005498160054AC260CA430261034A39
:1019B000D2434261704700000123456789ABCDEFF8
:1019C0002DE9F043C0B080468946D8F80040D8F8E9
:1019D0000450D8F80860D8F80C7040224946684690
:1019E000FFF77AFF05EA060027EA05010843009998
:1019F0000844FE4908440444E00140EA54642C448D
:101A000004EA050026EA0401084301990844F8495C
:101A100008440744380340EA1757274407EA0400FC
:101A200025EA0701084302990844F249084406449C
:101A3000700440EAD6363E4406EA070024EA06016E
:101A4000084303990844EC4908440544A80540EAC2
:101A50009525354405EA060027EA0501084304995F
:101A60000844E64908440444E00140EA54642C4434
:101A700004EA050026EA0401084305990844E04900
:101A800008440744380340EA1757274407EA04008C
:101A900025EA0701084306990844DA490844064440
:101AA000700440EAD6363E4406EA070024EA0601FE
:101AB000084307990844D44908440544A80540EA66
:101AC0009525354405EA060027EA050108430899EB
:101AD0000844CE4908440444E00140EA54642C44DC
:101AE00004EA050026EA0401084309990844C849A4
:101AF00008440744380340EA1757274407EA04001C
:101B000025EA070108430A990844A0F524404F3804
:101B10000644700440EAD6363E4406EA070024EA4A
:101B2000060108430B990844BA4908440544A8052E
:101B300040EA9525354405EA060027EA05010843F1
:101B40000C990844B44908440444E00140EA546450
:101B50002C4404EA050026EA040108430D990844D0
:101B6000AE4908440744380340EA1757274407EAB8
:101B7000040025EA070108430E990844A8490844CF
:101B80000644700440EAD6363E4406EA070024EADA
:101B9000060108430F990844A24908440544A805D2
:101BA00040EA9525354405EA070026EA070108437F
:101BB000019908449C4908440444600140EAD46403
:101BC0002C4404EA060025EA060108430699084465
:101BD000964908440744780240EAD757274407EA61
:101BE000050024EA050108430B990844904908447C
:101BF0000644B00340EA96463E4406EA040027EA5B
:101C000004010843009908448A490844054428050A
:101C100040EA1535354405EA070026EA070108437E
:101C200005990844844908440444600140EAD464A6
:101C30002C4404EA060025EA060108430A990844F0
:101C40007E4908440744780240EAD757274407EA08
:101C5000050024EA050108430F990844784908441F
:101C60000644B00340EA96463E4406EA040027EAEA
:101C700004010843049908447249084405442805AE
:101C800040EA1535354405EA070026EA070108430E
:101C9000099908446C4908440444600140EAD4644A
:101CA0002C4404EA060025EA060108430E9908447C
:101CB000664908440744780240EAD757274407EAB0
:101CC000050024EA050108430399084460490844D3
:101CD0000644B00340EA96463E4406EA040027EA7A
:101CE00004010843089908445A4908440544280552
:101CF00040EA1535354405EA070026EA070108439E
:101D00000D990844544908440444600140EAD464ED
:101D10002C4404EA060025EA060108430299084417
:101D20004E4908440744780240EAD757274407EA57
:101D3000050024EA05010843079908444849084476
:101D40000644B00340EA96463E4406EA040027EA09
:101D5000040108430C9908444249084405442805F5
:101D600040EA1535354485EA06007840059908446F
:101D70003D4908440444200140EA14742C4484EA98
:101D80000500704008990844384908440744F8029F
:101D900040EA5757274487EA040068400B990844F3
:101DA000334908440644300440EA16463E4486EA75
:101DB000070060400E9908442E4908440544E80590
:101DC00040EA5525354485EA0600784001990844E3
:101DD000294908440444200140EA14742C4484EA4C
:101DE0000500704004990844244949E078A46AD762
:101DF00056B7C7E8DB702024EECEBDC1AF0F7CF52F
:101E00002AC68747134630A8019546FDD8988069B1
:101E1000AFF7448BBED75C892211906B937198FD0C
:101E20008E4379A62108B44962251EF640B340C00E
:101E3000515A5E26AAC7B6E95D102FD65314440244
:101E400081E6A1D8C8FBD3E7E6CDE121D60737C3A9
:101E5000870DD5F4ED145A4505E9E3A9F8A3EFFC85
:101E6000D9026F678A4C2A8D4239FAFF81F6718751
:101E700022619D6D0C38E5FD44EABEA4A9CFDE4B7E
:101E800008440744F80240EA5757274487EA040009
:101E9000684007990844A54908440644300440EACC
:101EA00016463E4486EA070060400A990844A04965
:101EB00008440544E80540EA5525354485EA06000E
:101EC00078400D9908449B4908440444200140EAA5
:101ED00014742C4484EA0500704000990844964923
:101EE00008440744F80240EA5757274487EA0400A9
:101EF000684003990844914908440644300440EA84
:101F000016463E4486EA07006040069908448C491C
:101F100008440544E80540EA5525354485EA0600AD
:101F2000784009990844874908440444200140EA5C
:101F300014742C4484EA050070400C9908448249CA
:101F400008440744F80240EA5757274487EA040048
:101F500068400F9908447D4908440644300440EA2B
:101F600016463E4486EA07006040029908447849D4
:101F700008440544E80540EA5525354465EA07006C
:101F8000704000990844734908440444A00140EAA1
:101F900094642C4464EA06006840079908446E493A
:101FA00008440744B80240EA9757274467EA050007
:101FB00060400E990844694908440644F00340EA29
:101FC00056463E4466EA0400784005990844644950
:101FD00008440544680540EAD525354465EA07000C
:101FE00070400C9908445F4908440444A00140EA49
:101FF00094642C4464EA06006840039908445A49F2
:1020000008440744B80240EA9757274467EA0500A6
:1020100060400A990844554908440644F00340EAE0
:1020200056463E4466EA0400784001990844504907
:1020300008440544680540EAD525354465EA0700AB
:102040007040089908444B4908440444A00140EA00
:1020500094642C4464EA060068400F990844464999
:1020600008440744B80240EA9757274467EA050046
:10207000604006990844414908440644F00340EA98
:1020800056463E4466EA040078400D9908443C49AF
:1020900008440544680540EAD525354465EA07004B
:1020A000704004990844374908440444A00140EAB8
:1020B00094642C4464EA060068400B990844324951
:1020C00008440744B80240EA9757274467EA0500E6
:1020D0006040029908442D4908440644F00340EA50
:1020E00056463E4466EA0400784009990844284967
:1020F00008440544680540EAD5253544D8F8000071
:102100002044C8F80000D8F804002844C8F80400A7
:10211000D8F808003044C8F80800D8F80C00384453
:10212000C8F80C0040B0BDE8F0830000604BBBF67F
:1021300070BCBFBEC67E9B28FA27A1EA8530EFD4CB
:10214000051D880439D0D4D9E599DBE6F87CA21FB7
:102150006556ACC4442229F497FF2A43A72394ABC5
:1021600039A093FCC3595B6592CC0C8F7DF4EFFFD3
:10217000D15D84854F7EA86FE0E62CFE144301A359
:10218000A111084E827E53F735F23ABDBBD2D72A51
:1021900091D386EB2DE9F04704460F4615460026FD
:1021A000B046B1462088C0F3C508C8F14009206890
:1021B00000EBC50020602068B0EBC50F02D260685C
:1021C000401C6060606800EB557060604D451CD33A
:1021D00004F1180101EB08004A463946FEF727F8DA
:1021E00004F1180104F10800FFF7EAFB4E4605E090
:1021F000B91904F10800FFF7E3FB403606F140008F
:10220000A842F5D94FF0000800E00026AA1BB91932
:1022100004F1180303EB0800FEF709F8BDE8F087A6
:1022200000BFFEE77047000002480068C0F30220CC
:10223000704700000CED00E010B5002807DA0A072F
:10224000140E054A00F00F031B1FD45403E00A07C5
:10225000130E024A135410BD18ED00E000E400E034
:10226000014608687047704710B5FEF799FEFFF702
:10227000B8FA10BD10B592B0002400BF0020009045
:102280001E48006840F080501C49086008460068FD
:1022900000F08050009000BF00BF09200190012095
:1022A0000690000402900220079041050891082141
:1022B00009914FF4A8710A9104210B9107210C9107
:1022C00001A8FFF74FF804460CB100BFFEE70F204E
:1022D0000D9002200E9000200F904FF4A05010900F
:1022E0004FF48050119002210DA8FEF7FDFE044628
:1022F0000CB100BFFEE712B010BD00004038024034
:102300001448006840F470001249086012480068E0
:1023100040F001001049086000200F4908310860B2
:102320000D4800680D4908400B4908600C48091D1C
:102330000860081F006820F48020091F0860002042
:1023400005490C3108604FF000600249803908608F
:102350007047000088ED00E000380240FFFFF6FE05
:10236000103000242DE9F04104462068006920F473
:102370004050E1680843216808612169A06808436A
:1023800061690843E16940EA01052068C06849F2D3
:102390000C61884328432168C8602068406920F4A4
:1023A0004070A169084321684861E069B0F5004FB9
:1023B0007ED1C4492068884203D0C349206888423E
:1023C0005DD1FEF767FF00EBC00101EB0010616813
:1023D0004900B0FBF1F06421B0FBF1F00601FEF71B
:1023E00059FF00EBC00101EB001061684900B0FB30
:1023F000F1F7FEF74FFF00EBC00101EB0010616841
:102400004900B0FBF1F06421B0FBF1F000EBC0013A
:1024100001EB0010A7EB8000322101EBC00064212A
:10242000B0FBF1F000F0F80006EB4006FEF732FFDB
:1024300000EBC00101EB001061684900B0FBF1F74F
:10244000FEF728FF00EBC00101EB001061684900B6
:10245000B0FBF1F06421B0FBF1F000EBC00101EB47
:102460000010A7EB8000322101EBC0006421B0FB1B
:10247000F1F000F0070030442168886020E1FEF7A9
:10248000F9FE00EBC00101EB001061684900B0FBF0
:10249000F1F06421B0FBF1F00601FEF7EBFE00EB7A
:1024A000C00101EB001061684900B0FBF1F700E0EA
:1024B00045E0FEF7DFFE00EBC00101EB00106168B4
:1024C0004900B0FBF1F06421B0FBF1F000EBC0017A
:1024D00001EB0010A7EB8000322101EBC00064216A
:1024E000B0FBF1F000F0F80006EB4006FEF7C2FE8C
:1024F00000EBC00101EB001061684900B0FBF1F78F
:10250000FEF7B8FE00EBC00101EB00106168490066
:10251000B0FBF1F06421B0FBF1F000EBC00101EB86
:102520000010A7EB8000322101EBC0006421B0FB5A
:10253000F1F000F00700304421688860C0E0614994
:102540002068884203D06049206888425CD1FEF749
:10255000A1FE00EBC00101EB001061688900B0FB37
:10256000F1F6FEF797FE00EBC00101EB0010616889
:102570008900B0FBF1F06421B0FBF1F000EBC00189
:1025800001EB0010A6EB8000322101EB001064216A
:10259000B0FBF1F000F0F006FEF77CFE00EBC001AE
:1025A00001EB001061688900B0FBF1F06421B0FB21
:1025B000F1F006EB0016FEF76DFE00EBC00101EB3B
:1025C000001061688900B0FBF1F7FEF763FE00EBD5
:1025D000C00101EB001061688900B0FBF1F06421DB
:1025E000B0FBF1F000EBC00101EB0010A7EB8000A5
:1025F000322101EB00106421B0FBF1F000F00F007C
:102600003044216888605BE0FEF734FE00EBC001D7
:1026100001EB001061688900B0FBF1F6FEF72AFEBD
:1026200000EBC00101EB001061688900B0FBF1F024
:102630006421B0FBF1F000EBC00101EB0010A6EB50
:102640008000322101EB00106421B0FBF1F000F0BA
:10265000F006FEF70FFE00EBC00101EB0010616811
:102660008900B0FBF1F06421B0FBF1F006EB00163D
:10267000FEF700FE00EBC00101EB0010616889006D
:10268000B0FBF1F7FEF7F6FD00EBC00101EB001027
:1026900061688900B0FBF1F06421B0FBF1F000EB60
:1026A000C00101EB0010A7EB8000322101EB00100C
:1026B0006421B0FBF1F000F00F0030442168886025
:1026C000BDE8F081001001400014014000BFFEE7AA
:1026D0000FB4054B10B503A9044A029800F0DAF8CC
:1026E00010BC5DF814FB0000C52F0008440000205A
:1026F00002E008C8121F08C1002AFAD170477047CB
:10270000002001E001C1121F002AFBD17047000028
:102710002DE9FF5F82B00021DDE90430020DDDF814
:1027200040B0034318D044F61050A2F2FF324243A7
:102730001514119801281FD0A5EB0B00401C5FEA6F
:10274000000A4FF000064E4FDFF83891B046504671
:1027500015D5CAF1000413E0119801244AA30128F9
:1027600001D16FEA0B010298119AC0E90031C0E96A
:10277000024206B0BDE8F09FCBF10000DFE704465F
:102780000021404A491842EB0450CDE9001012E004
:10279000E00707D032463B4640464946FDF754FE27
:1027A0008046894632463B4610461946FDF74CFEA8
:1027B00006460F466410002CEAD1DDE90401DDE98C
:1027C0000023BAF1000F06DAFDF73EFE42464B4603
:1027D000FDF73AFE05E0FDF7A9FE42464B46FDF740
:1027E000A5FE04460E460022284BFDF727FF03D81E
:1027F0004FF0FF30014607E00022254B20463146CE
:10280000FDF77BFDFDF701FF102409E0002C0ADB3A
:102810000A220023FDF7DAFC039B30321A55641EAE
:1028200050EA0102F2D1641C039AC4F1110314446A
:10283000119A012A03D0012208430DD10AE008436E
:1028400004D000204FF0110B119072E7A3EB0B05A1
:102850006D1E0DE05B4504DD4FF0000205F1010542
:1028600004E003DA4FF00002A5F10105002AECD0E4
:1028700002981199C0E90231C0E9004579E70000EA
:10288000000014400000F03F300000000000F04362
:102890000000E03F2DE9FF4F95B09B468946064674
:1028A00000250FE2252877D100242746F84A012188
:1028B000059400E0044316F8013F203B01FA03F0C1
:1028C0001042F7D130782A2811D06FF02F033078DA
:1028D000A0F13002092A16D8059A44F0020402EB4E
:1028E000820203EB42021044761C0590EFE759F890
:1028F000042B0592002A03DA504244F40054059058
:1029000044F00204761C30782E2816D116F8010FF8
:1029100044F004042A280DD06FF02F023078A0F183
:102920003003092B09D807EB870302EB4303C718D1
:10293000761CF3E759F8047B761C30786C280FD0AE
:1029400006DC4C2817D068280DD06A2814D104E082
:10295000742810D07A280FD10DE044F400140AE056
:1029600044F4801401E044F440147278824202D1AD
:1029700004F58014761C761C307866280BD013DCA6
:10298000582877D009DC002875D04528F6D046288D
:10299000F4D047281AD19DE118E0632835D0642887
:1029A00079D0652812D195E1702873D008DC6728AA
:1029B000F1D069286FD06E280DD06F2806D1B5E010
:1029C00073282CD0752875D0782874D05A4617995A
:1029D00090476D1C75E1C4F30250022809D003280A
:1029E0000DD0D9F8001004280DD00D6009F10409AC
:1029F00067E1D9F80010EA17C1E90052F6E7D9F803
:102A000000100D80F2E70D70F0E719F8041B8DF847
:102A1000001000208DF80100EA46012003E059F87B
:102A200004AB4FF0FF3061074FF0000102D40DE01E
:102A300008F101018846B9420FDA8045F8DB1AF83F
:102A400008100029F4D108E008F10101884681420C
:102A5000FADB1AF808100029F6D105985B46A0EBBE
:102A6000080721463846179A00F094FA284400EBEC
:102A7000080507E04DE029E10DE01AF8010B5A4680
:102A800017999047B8F10108F7D25B4621463846BE
:102A9000179A13E142E00A220092C4F302524FF067
:102AA000000A022A08D059F804CB032A4FEAEC7135
:102AB0000AD00DE029E02AE009F1070121F0070220
:102AC000F2E802C1914609E00FFA8CFC4FEAEC7182
:102AD000042A03D14FFA8CFC4FEAEC71002907DA83
:102AE0000A460021DCF1000C61EB02012D2202E01C
:102AF000220504D52B228DF80420012203E0E207F1
:102B000001D02022F7E7904659E00A2102E0102286
:102B10000DE010214FF0000A00910BE010224FF061
:102B2000000A44F004040827009203E008224FF052
:102B3000000A0092C4F30252022A05D059F804CBCD
:102B40000021032A08D009E009F1070121F007025A
:102B5000F2E802C1914605E01FFA8CFC042A01D17B
:102B60000CF0FF0C4FF00008220728D5702806D083
:102B7000009B83F0100353EA0A0305D00EE04022C5
:102B80008DF80420012208E05CEA010206D0302220
:102B90008DF804208DF8050002229046009B83F0FA
:102BA000080353EA0A030AD15CEA010201D1620771
:102BB00005D530228DF804204FF001087F1E5828DB
:102BC00004D034A003900EA802900DE036A0F9E7DF
:102BD00053466046009AFDF7F9FA84460398825CF2
:102BE0000298401E029002705CEA0100F0D1029847
:102BF00006A9081A00F1200A600702D524F48034DF
:102C000000E00127574502DDA7EB0A0000E00020A5
:102C100000EB0A01009005984144401A0590E0033A
:102C200006D45B462146179A059800F0B3F905448F
:102C3000002706E001A85A46C05D179990476D1C11
:102C40007F1C4745F6DBE0030CD55B462146179A0F
:102C5000059800F09FF9054404E030205A46179982
:102C600090476D1C0099481E00900029F5DC08E093
:102C7000029802995A460078491C02911799904788
:102C80006D1CBAF10001AAF1010AF1DC65E1000056
:102C90000928010030313233343536373839616232
:102CA00063646566000000003031323334353637F6
:102CB00038394142434445460000000000F058F9CD
:102CC0000544761C307800287FF4ECAD19B0284616
:102CD000BDE8F08F620700D4062709F1070222F051
:102CE000070CFCE80223E14603F000485FEA080C09
:102CF00002D00FF2702C0DE05FEA045C02D50FF2F7
:102D0000682C07E05FEAC47C02D00FF2602C01E07F
:102D1000AFF2700C4FF0FF3823F00043CDF850C0F5
:102D200065280CD006DC452809D046281DD0472848
:102D30003DD13DE0662818D067287ED138E00021DB
:102D4000112F01DB112000E0781CCDE9000106A95C
:102D50000EA8FFF7DDFCDDE90F010E9A03910021BB
:102D6000009207F1010A04914DE04FF000400097F6
:102D7000CDE9011006A90EA8FFF7CAFCDDE90F0294
:102D800003920E9B11990022DDF80CA0009304928F
:102D900011B9791C00EB010AB7EB0A0004D4C0F1A9
:102DA000FF3007F1010A0490AAEB0700019044E00C
:102DB000012F00DA01270021112F01DD112000E091
:102DC0003846CDE9000106A90EA8FFF7A1FCDDE910
:102DD0000F010E9A0391002104910092BA46210737
:102DE0000CD40399514500DA8A46BAF1010F05DD8A
:102DF000009AAAF10101515C302908D0B84202DAE8
:102E000010F1040F06DA0121CDE9011015E0AAF155
:102E10000101E9E7002805DC049901440491AAEBCB
:102E2000000102E0411C514500DD8A460499401A28
:102E3000401C01904FF000400290200704D40198FC
:102E4000504501DBCDF8048000208DF84F0002983A
:102E50000DF14F07B0F1004F25D02B200E900298B6
:102E60004FF0020800280CDA404202902D200E900C
:102E700007E00A210298FDF70BFA3031029007F8BB
:102E8000011DB8F10001A8F10108F2DC0298002848
:102E9000EFD1791E0E980870307800F0200040F0D5
:102EA000450007F8020D12A8C01B00F1070814988E
:102EB000007800B1012000EB0A01019801EBE071FC
:102EC00005984144401A401E0590E00306D45B4635
:102ED0002146179A059800F05DF80544149800788B
:102EE00018B15A46179990476D1CE00324D55B46EC
:102EF0002146179A059800F04DF805441CE0049807
:102F0000002807DBDDE90301884203DD0098405C0F
:102F1000179901E0179930205A469047049805F117
:102F20000105401C04900198401E019004D12E2000
:102F30005A46179990476D1CBAF10001AAF1010A8F
:102F4000DDDC05E017F8010B5A46179990476D1C18
:102F5000B8F10001A8F10108F4DC5B462146179A9C
:102F60000598ABE62D0000002B00000020000000BB
:102F70002DE9F041044600251E461746880404D476
:102F800005E039462020B0476D1C641EF9D528465F
:102F9000BDE8F0812DE9F041044600251E4690462B
:102FA000C80301D5302700E02027880404D505E0B8
:102FB00041463846B0476D1C641EF9D52846BDE829
:102FC000F081000000BF064A12681268C2F3C01206
:102FD000002AF8D0C2B2024B1B685A60704700004A
:102FE000C404002010B5002821D0114B0022001F7E
:102FF000196803E0814203D80A4649680029F9D1DB
:1030000052B11368841A9C4204D1006818441060BD
:10301000104602E0506000E0186039B102680B1AF7
:10302000934203D10B681A4402604968416010BDA5
:103030005800002010B50BA0FFF74AFB17A0FFF7C0
:1030400047FB24A0FFF744FB30A0FFF741FB3DA066
:10305000FFF73EFB49A0FFF73BFB4DA0FFF738FB16
:1030600010BD00000D0A202020205F5F20205F5F40
:103070005F202020202020205F5F20202020202093
:10308000205F5F5F5F5F5F202020202020202020C6
:10309000202020202020205F5F0000000D0A20203B
:1030A000202F202F202F20285F295F5F5F205F2F98
:1030B000202F5F20202020202F205F5F5F5F2F5F69
:1030C0005F5F5F5F5F5F20205F5F5F5F205F2F203C
:1030D0002F5F00000D0A20202F202F5F2F202F2090
:1030E0002F205F5F20602F205F5F205C2020202F3B
:1030F000202F205F5F2F205F5F5F2F205F205C2FDE
:10310000205F5F20602F205F5F2F00000D0A202FBF
:10311000205F5F20202F202F202F5F2F202F202F98
:10312000202F202F20202F202F5F2F202F202F20F7
:10313000202F20205F5F2F202F5F2F202F202F5F39
:10314000000000000D0A2F5F2F202F5F2F5F2F5CE4
:103150005F5F2C202F5F2F202F5F2F2020205C5FB0
:103160005F5F5F2F5F2F2020205C5F5F5F2F5C5FC2
:103170005F2C5F2F5C5F5F2F000000000D0A202096
:103180002020202020202F5F5F5F5F2F00000000A5
:103190000D0A5B48472042303220626F6F746C6FBB
:1031A000616465725D56312E302E300010B50446D4
:1031B00020680B490840B0F1005F10D16420FDF792
:1031C0001FFD606807490860012080F3108800BF78
:1031D000206880F3088800BF08460068804710BD5B
:1031E0000000FC2F0000002010B500220121024841
:1031F000FDF7CAFE10BD00000008024010B5012214
:1032000011460248FDF7C0FE10BD00000008024054
:1032100000B587B000BF002001900D48006840F065
:1032200004000B4908600846006800F004000190A3
:1032300000BF00BF0120029003900490032005907E
:1032400002A90448FDF7B6FDFFF7CEFF07B000BDA9
:1032500030380240000802400024FDF7ADFEFFF7C1
:1032600009F8334800684FF47A71B0FBF1F528464D
:10327000FEF79DFA00F0C4F9FFF7DCFE00F0DAF883
:10328000FFF7C6FF64212B48FCF7EAFF64222949B7
:10329000002000F085F92748006E2749884222D196
:1032A0002448806CF8B12348806C401CD8B1234876
:1032B000FDF7BEFB2248FDF7BBFB2248FDF7B8FB3C
:1032C0001C4A48321D49204800F0DAF8044644B14F
:1032D0001949C9431748016664220146002000F0DD
:1032E000BBF900F06BF921E01248006E1249C943A6
:1032F000884207D00F48006E401C38B90D48806CDA
:10330000401C18B90D48FFF751FF0FE0FFF776FF9B
:1033100000F07CF84FF4FA70FDF772FC00F080F8D2
:10332000FFF762FF4FF4FA70FDF76AFCDCE700007C
:103330004800002060000020AA55AA55008000081F
:1033400000C000080000010800000208F0B50B30C2
:10335000154D20F007010024144A0FE003688B424A
:103360000BD38B4205D95E1A43184768C3E900673F
:1033700000E04368136002C004E0021D10680028EA
:10338000ECD12046002802D1286808B10020F0BD09
:10339000064A07481060074A121A22F00702C0E9DD
:1033A000002401202860D7E75C000020580000209E
:1033B0002C090020280B002030B5014600220023F4
:1033C000002020E00C5CE51704EB15752A110A2A91
:1033D00003DA02F13004E2B202E002F13704E2B2B1
:1033E0000C5CE51704EB15752D11A4EB0515EBB27C
:1033F0000A2B03DA03F13004E3B202E003F13704ED
:10340000E3B2441CE0B21028DCDB30BD10B5002272
:1034100002210248FDF7B8FD10BD0000000802407F
:1034200010B5012202210248FDF7AEFD10BD0000DB
:103430000008024000B587B000BF002001900E4890
:10344000006840F004000C4908600846006800F07D
:103450000400019000BF00BF0220029001200390F1
:1034600004900320059002A90448FDF7A3FCFFF790
:10347000CDFF07B000BD0000303802400008024018
:103480002DE9F047A0B080460F4616461EB9002031
:1034900020B0BDE8F08700200690079008900990C2
:1034A000814600254FF4806421463C48FCF7D8FE55
:1034B0003068B0FBF4F93068B0FBF4F104FB11059F
:1034C000CDF8048000970AA8FEF768FA4FF0000ACA
:1034D00013E0A1B2314A0198FDF7FAFAA1B22F4ADE
:1034E0000098FDF701FB01982044019000982044CA
:1034F00000900AF101001FFA80FACA45E9D37DB1B4
:10350000A1B2264A0198FDF7E3FAA1B2234A009836
:10351000FDF7EAFA019828440190009828440090A9
:1035200001974FF0000A10E0A1B21C4A0198FDF784
:10353000CFFA019820440190224618490AA8FEF7C4
:1035400029FE0AF101001FFA80FACA45ECD365B1E1
:10355000A1B2124A0198FDF7BBFA019828440190E4
:103560002A460E490AA8FEF715FE02A90AA8FEF788
:10357000EBF902A8FFF720FF102206F1080102A8CC
:10358000FCF779FE38B9102206A902A8FCF773FEF1
:1035900008B101207CE700207AE70000C400002089
:1035A00070B504460D461646034960182A46314652
:1035B000FDF78EFA70BD00000040000800BF00BF9C
:1035C00000BF00BF00BFBFF34F8F00BF00BF00BFF1
:1035D0000948006800F4E06008490843001D0649F6
:1035E000086000BF00BF00BFBFF34F8F00BF00BF28
:1035F00000BF00BF00BFFDE70CED00E00000FA05D2
:1036000008B500BF002000901048006840F400306A
:103610000E4908600846006800F40030009000BFC2
:1036200000BF0B480B4908604FF4E13048600021AF
:10363000084881610C21416100218160C160016104
:10364000FEF7D3F808B100BFFEE708BD40380240DE
:1036500000440040C40400202DE9F04104460E4619
:10366000154609482718204400EB0508414638460E
:10367000FDF764FA28B90449601832462946FDF777
:1036800033FABDE8F08100000040000800000000AF
:103690000000000001020304060708090000000002
:1036A00001020304C436000800000020600000008E
:1036B000F02600082437000860000020C80E000033
:1036C000002700080000000080000000000000004B
:1036D00000000000000000000000000000000000EA
:1036E00000000000000000000000000000000000DA
:1036F00000000000000000000000000000000000CA
:103700000000000000000000000000000024F400A1
:103710000000000010000000010000000000000098
:0437200000000000A5
:040000050800019559
:00000001FF
