:020000040800F2
:108000001087002021830008B1D600083D840008B5
:10801000ADD600088DA10008CDE4000800000000E6
:1080200000000000000000000000000011D7000860
:1080300035830008000000008B83000859D8000831
:108040003B8300083B8300083B8300083B83000818
:108050003B8300083B8300083B8300083B83000808
:108060003B8300083B8300083B8300083B830008F8
:108070003B8300083B8300083B8300083B830008E8
:1080800091A10008A1A100083B83000800000000A6
:108090000000000000000000000000003B8300081A
:1080A0003B8300083B8300083B8300083B830008B8
:1080B0003B8300083B8300085DD900083B83000830
:1080C0003B8300083B8300083B8300083B83000898
:1080D0003B83000855E00008D1E1000800000000E3
:1080E0003B8300083B8300083B830008000000003E
:1080F0000000000000000000000000003B830008BA
:10810000000000003B8300083B8300083B8300081D
:10811000000000000000000000000000000000005F
:108120003B830008B1A10008C1A100083B830008FF
:108130003B83000800000000000000000000000079
:108140000000000000000000000000003B83000869
:108150003B830008D1A10008E1A100083DE300082D
:108160003B8300083B830008000000000000000083
:1081700000000000000000000000000000000000FF
:10818000000000003B830008000000000000000029
:108190003B83000800F002F800F0B2F80AA090E873
:1081A000000C82448344AAF10107DA4501D100F0B2
:1081B000A7F8AFF2090EBAE80F0013F0010F18BFCD
:1081C000FB1A43F001031847E0020100000301001D
:1081D0000A444FF0000C10F8013B13F0070408BFED
:1081E00010F8014B1D1108BF10F8015B641E05D08B
:1081F00010F8016B641E01F8016BF9D113F0080F40
:108200001EBF10F8014BAD1C0C1B09D16D1E58BFD1
:1082100001F801CBFAD505E014F8016B01F8016B08
:108220006D1EF9D59142D6D370470000002300247B
:1082300000250026103A28BF78C1FBD8520728BF76
:1082400030C148BF0B6070476E2900F00985702966
:1082500000F0FB8166290FF0A28265290FF09F8252
:1082600067290FF09C8261290FF09B8203681B0A2B
:1082700028BF41F08001692900F0B684642900F02C
:10828000B384752900F0B0846F2900F0D88578296F
:1082900000F0C781E92900F07385E42900F07085BA
:1082A000F52900F06D85EF2900F0D585F82900F05B
:1082B000C6810368DB0928BF41F08001632901F012
:1082C000BD81732901F0C281E32901F0CD81F32939
:1082D00001F0D281002070471FB50FF05BFA01F06A
:1082E00015FA0400002000210FF028FA401C6060FD
:1082F000002000210FF038FAE0601FBD10B510BD5E
:1083000001F0DEF91146FFF7E7FF09F013FA01F07B
:10831000B3FA03B4FFF7F2FF03BC01F0B7FA0000B1
:108320000948804709480047FEE7FEE7FEE7FEE709
:10833000FEE7FEE7FEE7FEE7FEE7FEE70448054945
:10834000034A054B70470000F9D8000895810008E2
:10835000108300201087002010830020EFF310808E
:1083600072B6704780F310887047394A1368012B42
:1083700004D04FF001031360364A1060364A116092
:1083800036484FF0805101607047EFF3108272B6AB
:108390002F48016821B34FF0000101602D480168AA
:1083A00091B1EFF309811EF0100F08BF21ED108B82
:1083B00021E9F00F4FF000041EF0100F08BF012458
:1083C00041F8044D0068016023490968096808C93B
:1083D000B1E8F00F002B18BFB1EC108B81F30988C6
:1083E00082F310884EF0100E002B18BF2EF0100EE6
:1083F0004EF0040E704718490860EFF3148222F023
:10840000040282F3148813494FF0000008601049F9
:108410004FF00100086012484FF47F01D0F80020AF
:1084200041EA020101600D484FF0805101600D48A2
:108430000068006880F3088862B67047EFF309802F
:1084400000B50AF065FB5DF804EB4EF0040E7047D2
:108450008C050020840500208805002004ED00E044
:1084600020ED00E008ED00E053EA020C00F0698026
:108470002DE9F04B4FF00006002B1FBFB3FA83F538
:1084800003FA05F424FA05F65E4012BF1643B2FA69
:1084900082F502FA05F4C5F120051EBF22FA05FC9B
:1084A00044EA0C04203556EA044C4FEA144418BF41
:1084B000641C4FF000084FF00009904271EB030C70
:1084C00039D3002919BFB1FA81F701FA07F6B0FADA
:1084D00080F700FA07F6C7F120071EBF20FA07FC55
:1084E00046EA0C062037B6FBF4FCA7EB0507103F65
:1084F00007F01F0BCBF120060CFA0BFB2CFA06F64B
:1085000044BFB3460026202FA4BF5E464FF0000BA9
:108510005BEA060C08BF4FF0010B19EB0B09ABFB34
:10852000027C48EB0608C01B06FB02CC0BFB03CC0D
:1085300071EB0C01C1E70B46024641464846BDE8D7
:10854000F08B13B54FF000004FF00001AFF3008047
:10855000BDE81C40704700001CB50C46064B7B4430
:1085600069460090204600F094FB044600206946CE
:1085700000F0A2FB20461CBD5707000070B5044662
:1085800085690068C10601D5302600E02026C007B5
:1085900007D070BDD4E9012130469047206A401CC5
:1085A00020626D1EF6D570BD70B5044685690078F1
:1085B000C00707D170BDD4E9012120209047206A6F
:1085C000401C20626D1EF6D570BD0000F0B40D4653
:1085D0000188090502D5214C7C4402E01F4C7C44F3
:1085E0000E34002100F1240608E002F00F07120902
:1085F000E75D42EA03721B097754491C52EA0307FC
:10860000F3D102780023120704D5702D06D009B1EA
:10861000022311342246F0BC00F08CBA012310343E
:10862000F8E770B504460D462146106800F050FA90
:10863000024629462046BDE870400023C6E7D21D09
:1086400022F00703D3E90023C0E70368126843F070
:10865000200303600823C3610023B7E75CFB00002D
:108660002DE9F05F894604464FF0000ADFF874B147
:10867000FB44C0F820A02046E1688847002874D059
:10868000252806D0D4E901219047206A401C2062A9
:10869000F1E700265F462046E16888472028054626
:1086A00007DB312D05D2781910F8200C08B10643EC
:1086B000F1E7B00701D526F00406C4F81CA0002796
:1086C000C4F818A02A2D09D0284605F0DFFF38B3DA
:1086D00004EB8708303DC8F8185019E059F8041B1E
:1086E000204604EB87029161E1688847012F054627
:1086F00018D1E069002820DA26F020061DE0D8F81D
:10870000180000EB800005EB40003038C8F8180076
:108710002046E1688847054605F0B8FF0028EED1FD
:10872000012F0AD02E2D08D12046E16888477F1CF2
:108730000546022F46F02006C4DBA069002803DAB4
:10874000404246F00106A061F00701D026F0100675
:108750006C2D0BD0682D09D04C2D39D06A2D35D019
:10876000742D35D07A2D33D016E038E0E1682F46ED
:1087700020468847B842054609D16C2F26D04FF4D1
:108780008060E168064320468847054604E06C2F78
:108790001AD04FF4807006430DB3A5F1410019289B
:1087A00002D8203546F400664A462946204626600F
:1087B0004E46FFF749FD80B101280BD0F61D26F08B
:1087C000070000F1080956E74020E4E78020D8E7D9
:1087D0000020D6E706F104094DE7284652E7206A53
:1087E000BDE8F09FECFA0000401ECAB210F8011F6D
:1087F0008A4202D00029F9D10020704730B50546E1
:108800000B462A4613F8014B12F8010B08B1A0429F
:10881000F8D01CB1002802D06D1CF1E7284630BD0D
:1088200040EA010310B59B070FD1042A0DD310C8ED
:1088300008C9121F9C42F8D020BA19BA884201D93F
:10884000012010BD4FF0FF3010BD1AB1D30703D087
:10885000521C07E0002010BD10F8013B11F8014B3D
:108860001B1B07D110F8013B11F8014B1B1B01D159
:10887000921EF1D1184610BD10B5431C02E010F84D
:10888000011B71B18107FAD14FF0013202C88C1A75
:108890008C4314EAC211F9D0C01A0A0603D0C01ED4
:1088A00010BDC01A10BD0A0401D0801E10BD0902FF
:1088B000FCD0401E10BD032A40F2308010F0030CA3
:1088C00000F0158011F8013BBCF1020F624498BF23
:1088D00011F801CB00F8013B38BF11F8013BA2F1C0
:1088E000040298BF00F801CB38BF00F8013B11F03B
:1088F000030300F02580083AC0F0088051F8043BDB
:10890000083A51F804CBA0E80810F5E7121D5CBF47
:1089100051F8043B40F8043BAFF30080D20724BF7A
:1089200011F8013B11F801CB48BF11F8012B24BF0E
:1089300000F8013B00F801CB48BF00F8012B70475D
:1089400010B5203AC0F00B80B1E81850203AA0E8EA
:108950001850B1E81850A0E81850BFF4F5AF5FEA1E
:10896000027C24BFB1E81850A0E8185044BF18C9D1
:1089700018C0BDE810405FEA827C24BF51F8043B78
:1089800040F8043B08BF7047D20728BF31F8023BCC
:1089900048BF11F8012B28BF20F8023B48BF00F860
:1089A000012B70474FF000020429C0F0128010F034
:1089B000030C00F01B80CCF1040CBCF1020F18BFBB
:1089C00000F8012BA8BF20F8022BA1EB0C0100F04E
:1089D0000DB85FEAC17C24BF00F8012B00F8012B21
:1089E00048BF00F8012B70474FF0000200B5134656
:1089F00094469646203922BFA0E80C50A0E80C50BF
:108A0000B1F12001BFF4F7AF090728BFA0E80C506F
:108A100048BF0CC05DF804EB890028BF40F8042B68
:108A200008BF704748BF20F8022B11F0804F18BFD5
:108A300000F8012B704700004FF0013C50F8042B68
:108A400051F8043B9A4221D1A2EB0C03934313EA61
:108A5000CC1317D150F8042B51F8043B9A4215D18E
:108A6000A2EB0C03934313EACC130BD150F8042B65
:108A700051F8043B9A4209D1A2EB0C03934313EA49
:108A8000CC13DBD04FF00000704700BFD01A01BA02
:108A9000B1FA81F101F0180122FA01F0CB40C1F1E5
:108AA0002001DBB2C0B2C01A2CFA01F3D11A9143F3
:108AB00011EAC311E6D170477047704770470968E3
:108AC0004A0501D540B27047C905FCD500B27047D0
:108AD00009684A0501D5C0B27047C905FCD580B206
:108AE000704770B50C460546012A05D028788006E7
:108AF00000D5EA69002302E0012305E05B1C9342F4
:108B000002D2E05C0028F9D1A869E618C01AA86171
:108B1000286A184428622846FFF730FD04E0D5E9AA
:108B2000012114F8010B9047B442F8D32846FFF70F
:108B30003BFD70BD2DE9F0470D469946924604462F
:108B400000F124080168880604D5E06921F01001CD
:108B5000216000E00120A84201DD471B00E0002762
:108B6000A1697A1902EB0900081AA0612078C006F1
:108B700002D42046FFF702FD002608E0D4E90121D7
:108B80001AF806009047206A401C761C20624E4569
:108B9000F4DB2078C0060AD52046FFF7EFFC06E09C
:108BA000D4E9012130209047206A401C2062381E01
:108BB000A7F10107F4DC07E0D4E9012118F805006A
:108BC0009047206A401C2062281EA5F10105F3DCB5
:108BD0002046FFF7E9FC2078000602D50220BDE818
:108BE000F0870120FBE700002DE9F0410646002454
:108BF00010687529314616A510D0FFF760FF0028D0
:108C000002DA404213A507E031688A0701D512A5B0
:108C100002E0490704D511A5012401E0FFF758FF40
:108C200000210A2206F1240709E0B0FBF2FCB0FBA8
:108C3000F2F302FB1C00303078541846491C00281F
:108C4000F3D123462A463046BDE8F041FFF772BF14
:108C5000000000002D0000002B000000200000009C
:108C600011680268006A530501D508700AE0D3054F
:108C700001D5088006E0130603D5C217C1E900023A
:108C800000E008600120704701694A1C0261087811
:108C9000704700B58FB0CDE901310021059105493C
:108CA0007944CDE9031011466846FFF7D9FC0FB0AF
:108CB00000BD0000E5FFFFFF0A6802F8010B0A6033
:108CC000704700002DE9FF5F15468A460446DFF82D
:108CD000AC80F8440027D8E900103E46CDE90010EA
:108CE00010E03AF816106A4602A800F0C9FC411CD0
:108CF00007D02178890603D5E269391891420DD849
:108D00000744761C2078800602D5E069B84205DD6C
:108D1000AE42E6DB3AF816000028E2D1A069C01B9B
:108D2000A0612046FFF72AFCD8E90010CDE9001029
:108D3000002017E03AF818106A4602A800F0A0FCDC
:108D4000B0F1FF3F81460BD000250DF1080B05E087
:108D5000D4E901211BF8050090476D1C4D45F7D360
:108D600008F10100B0428046E4DB206A384420620A
:108D70002046FFF719FCBDE8FF9F00009EF40000AD
:108D80002DE9F0418046D21D22F007020025D2E9EC
:108D90000002F52915A614D0011E72F1000106DAB1
:108DA0000023D0EB030063EB020211A608E0D8F821
:108DB00000108B0701D50FA602E0490701D50EA6CA
:108DC00001251146002408F1240704E000F05AF8B8
:108DD00030323A55641C50EA0102F7D12B46324634
:108DE00021464046BDE8F041FFF7A4BE0000000068
:108DF0002D0000002B0000002000000030B40021F6
:108E000000F1240408E002F00705D208303542EAF8
:108E10004372DB086554491C52EA0305F3D1046828
:108E2000002310A2250707D5A40600D421B1C469E8
:108E300001230DA2641EC46130BCFFF77BBE10B5D8
:108E4000044621461068FFF743FE02462046BDE86F
:108E500010400023D2E7D21D22F00701D1E9002300
:108E6000CCE7000000000000300000000048704720
:108E7000B082002010B500F049FC001D10BD00BFFD
:108E8000BDE8000030B5B0F10A024FEA900E71F172
:108E900000034EEA817EB0EB0E0061EB91014FEAD8
:108EA000101E4EEA017E10EB0E0041EB11114FEA4D
:108EB000102E4EEA016E10EB0E0041EB11214FEA2D
:108EC000104E4EEA014E10EB0E0041EB11414018DE
:108ED00041F100014FEAD00040EA41704FEAD10170
:108EE00010EB80054FEA810444EA907444EB0104DE
:108EF0006D1944EB0404521BA3414FF0000348BF1B
:108F00000A3200D530BD401C41F1000130BD704730
:108F10002DE9FF4F0C461E464FF0FF378BB0D2E9CC
:108F20000001DDF860800A908A46C1F30A5505B950
:108F30003D46002108464FF00000BAF1000F00F452
:108F4000400005DA00EB80004FF4400101EA5000D8
:108F50004FEA9059B9F1010F00DDB9460A9850EA7D
:108F60004A000ED044F61050A5F2FF3545432F14A9
:108F7000B8F1000F1ED07542291E1EDDC9F1000296
:108F80001CE0B8F1010F4FF0000001D0302103E0E8
:108F9000F24305E02154401CB042FBDB3046002286
:108FA000002121540B99C1F80880C1E900200FB0BD
:108FB000BDE8F08FBD1B6D1CDEE74A4600DA694252
:108FC00006A800F0E7FB06AB93E8070003AB83E8D5
:108FD000070050460A9900F060FC8DE80700A0F5F4
:108FE00000501F3800900398002D0ADD42F21F0147
:108FF0004A460844002303A90390684600F0C9FECE
:1090000009E0A0F500504A461F38002303A9039049
:10901000684600F0D3FE8DE807000004000C03D082
:109020004FF0FF30410800E01046B8F1000F03D0C8
:109030000022009215461EE0751E05D4FFF722FFA0
:10904000303262556D1EF9D5B3460122084302D075
:1090500000227F1C04E02078302801D100227F1EEE
:10906000002A099784D01DE0112D07DAFFF70AFFC7
:10907000303262556D1C50EA0102F5D1084302D02E
:109080000098C8B10EE00021681E05E0235C625C18
:1090900063542254401E491C8142F7DBAB46A81B97
:1090A000401E0990002004F80B000B98099AC0F8A4
:1090B0000880C0E9002B7AE711264FF0000857E737
:1090C0002DE9F04F88460446D21D22F0070191B0E9
:1090D000D1E90001CDE90A0105F0FAF902460B9841
:1090E000C00F01D02D2007E02068810701D52B207B
:1090F00002E0202101EAC000032A099001D0072ADA
:1091000005DB03464146204600F004FB0BE12078D6
:10911000800601D5E06900E00620B8F1650F8146C0
:1091200006D0B8F1660F18D0B8F1670F70D131E0F2
:109130000020B9F1110F009001DB112301E009F1CA
:1091400001030AAA01A90CA8FFF7E2FEDDE90C70F1
:10915000002609F10105834647E001204B460090B7
:109160004FF000470AAA01A90CA8FFF7D1FEDDE9DC
:109170000DB00C995D46002610B909F101000D18DB
:10918000B9EB050003D4C0F1FF3609F10105A5EBE9
:1091900009002BE0B9F1010F01DA4FF001090020BD
:1091A000B9F1110F0090484601DD112300E003469C
:1091B0000AAA01A90CA8FFF7ABFEDDE90C704D4629
:1091C00000268346207800070AD4AB4500DA5D46C6
:1091D00001A8012D04DD411911F8011C302907D027
:1091E0004F4502DA17F1040F04DA012082460FE03E
:1091F0006D1EEEE7002F02DCED1B3E4403E0781C01
:10920000A84200DD7D1CB81B00F1010A4FF00047A9
:109210002078000703D4AA4501DB4FF0FF3A002174
:10922000B7F1004F0DF143088DF8431024D0022010
:109230002B23002F01DA7F422D230A21021EA0F1E9
:10924000010000DC5FB197FBF1FC97FBF1F201FB41
:109250001C7C17460CF1300C08F801CDEEE7A8F1A4
:10926000010003702188090501D5452100E0652131
:10927000A0F1010800F8011C09980FA9A1EB08074B
:10928000FF1D00B10120411901EBEA70A1693844CA
:10929000081A401EA0612078C00602D42046FFF7BD
:1092A0006DF9099828B1D4E901219047206A401C42
:1092B00020622078C00622D52046FFF75FF91EE025
:1092C000002E04DBB34502DD01A8805D00E0302004
:1092D000D4E901219047206A401C2062761CAAF143
:1092E00001005FEA000A0AD100F010FAC0680168C4
:1092F000405CD4E901219047206A401C2062281E6E
:10930000A5F10105DCDC07E0D4E9012118F8010B27
:109310009047206A401C2062381EA7F10107F3DC49
:109320002046FFF741F9032011B041E62DE9F04F47
:1093300004460D46D21D22F0070089B0D0E90097FF
:109340004846394605F0C4F80246F80F01D02D23EF
:1093500007E02068810701D52B2302E0202101EAE4
:10936000C0038DF820300BB1012000E00020032A5B
:10937000824601D0072A04DB2946204600F0CAF9BC
:109380003FE12078800601D40D2500E0E569C7F3B0
:109390000A560D2D49DA00214FEA175B08464FF0B7
:1093A0000000002F00F4400007DA00EB80004FF4CB
:1093B000400100EBD07001EA60008115012901DD58
:1093C0004FF0FF3100224FEA850CBCF1180F06D395
:1093D0001346ACF118004FF08052C24003E04FF446
:1093E000801323FA0CF30CF10C0CBCF1200F04D306
:1093F000ACF1200C09FA0CF001E007FA0CF000299E
:109400004FF0004801DD18B90FE00ED140450CD3F4
:1094100019EB02095F4121B9404502D19F4329EA76
:109420000209BBEB175F00D0761C2088000502D52F
:109430007B48784402E07A487844193808AA3023F7
:1094400002F80A30037C0AF10101002E0AF1020A37
:1094500053546A4602DC4FF0300101E04FF0310115
:109460004FF001088DF8001002D0A6F2FF3603E09D
:1094700059EA470100D06B4E002D02DC2178090724
:1094800004D54FF002082E218DF80110C4460021AA
:109490000BE0C7F303433F01C35C491C6D1E02F898
:1094A0000830052908F1010801DA002DF1DC00215E
:1094B0000CE000EB1973491C1B786D1E082902F89B
:1094C00008304FEA091908F1010801DA002DF0DC33
:1094D00021688B0602D516E0A8F10108E04505DDFC
:1094E00002EB080313F8013C302BF5D0B8F1000F64
:1094F00009DD02EB080313F8013C2E2B03D1090709
:1095000001D4A8F10108002D05DD3E2102F8081064
:109510006D1E08F10108407C002E02F8080008F1D9
:10952000010804DA2D20764202F8080002E02B2020
:1095300002F808000A214FF47A70864208F1010807
:109540000BDB96FBF0F3303302F8083096FBF0F3B8
:1095500008F1010800FB136601E0642E0CDB6420B7
:1095600096FBF0F3303302F8083096FBF0F308F185
:10957000010800FB136601E00A2E06DB96FBF1F002
:10958000303002F8080008F1010896FBF1F001FB09
:109590001060303002F80800A16908F1010808EBFA
:1095A000050202EB0A00081AA0612078C00602D466
:1095B0002046FEF7E3FF216A08AE01EB0A002062B5
:1095C00004E0D4E9012116F8010B9047BAF1010A31
:1095D000F7D22078C00602D52046FEF7CFFF6E46B0
:1095E00009E016F8010B3E280FD0D4E9012190477D
:1095F000206A401C2062B8F10108F2D22046FEF732
:10960000D3FF09B00320BDE8F08F206A2844206210
:1096100003E0D4E90121302090476D1EEBD3F8E739
:1096200059ED000002FCFFFF10B5436913B1AFF321
:10963000008001E0FFF755FA012010BD127800F11B
:1096400024010A7000224A700122EDE711684FF0F0
:10965000FF32E9E710B5436913B1AFF3008001E0D1
:10966000FFF730FB012010BD128800F12401828435
:109670000022C2840122EDE711684FF0FF32E9E7D2
:1096800070B516460C460546FFF7F4FB036893F8E1
:109690000101012806D0FF2C0FD8185D68B1012008
:1096A0002C7070BDD3F807013246214603F2071330
:1096B00003442846BDE8704018474FF0FF3070BDA6
:1096C0007546FFF7D3FBAE4605006946534620F0CA
:1096D0000700854618B020B5FEF730FEBDE82040F3
:1096E0004FF000064FF000074FF000084FF0000B5E
:1096F00021F00701AC46ACE8C009ACE8C009ACE811
:10970000C009ACE8C0098D467047000000487047AA
:10971000D08200202DE9F0411F460446032601684F
:10972000072A01F4006004DB08B116A505E016A5C0
:1097300003E008B115A500E015A521F01000206098
:10974000A069C01EA0610FB1401EA0612046FEF7B7
:1097500015FF4FB1D4E9012138469047206A401CDB
:109760002062C01C206206E0206AFAE7D4E90121E9
:1097700015F8010B9047761EF8D22046FEF714FF2D
:10978000BDE8F0814E414E006E616E00494E4600CC
:10979000696E66002DE9F047814616468AB0354865
:1097A00078440DC88DE80D0032487844801C03AC25
:1097B0000DC884E80D0041F69B300844372190FB2A
:1097C000F1F290FBF1F5A5F1800501FB12041B3CC1
:1097D00002D56442012000E00020DFF898A0804616
:1097E0000027FA44AAF1BE0A0EE0E0070AD032468A
:1097F000684607EB470101230AEB810100F0DEFA1E
:109800008DE8070064107F1C002CEED1194F7F44B7
:10981000AE3F19E0E80715D007EB04100DF1180A68
:1098200090E80E008AE80E00C068F04201D1981955
:1098300008903246012306A903A800F0BFFA03AB43
:1098400083E807006D10641C002DE3D14FF0010385
:1098500032466946B8F1000F03A802D000F099FA29
:1098600001E000F0ABFAC9E90001C9F808200AB02C
:10987000BDE8F0877CEA000010B50446AFF3008035
:109880002046BDE81040FEF744BD00000149182005
:10989000ABBEFEE72600020070475FEA400C08BF3F
:1098A00091F0000F4FEA8C234FEAC12243EA515155
:1098B0004FEA1C5018BF00F5F0404FEA300018BFC7
:1098C00041F000415FEA6C5C00F02980BCF1FF3F91
:1098D00008BF40F080407047130C06BF12044FF0E1
:1098E000100C4FF0000C130E04BF12020CF1080C08
:1098F000130F04BF12010CF1040C930F04BF92006C
:109900000CF1020CD30F04BF52000CF1010C1146F4
:109910004FF00002A0F11F00A0EB0C00704711F007
:10992000004F08BF704731F000413FF4D5AF0B0C3A
:1099300006BF09044FF0100C4FF0000C0B0E04BFD3
:1099400009020CF1080C0B0F04BF09010CF1040C07
:109950008B0F04BF89000CF1020CCB0F04BF490030
:109960000CF1010CCCF12003A0EB0C0022FA03F364
:1099700002FA0CF241EA030100F10100704720F005
:109980007F4C80EA030023F07F47ACEB070303F52D
:109990007C5300F0004003F1FF032DE980494FEABA
:1099A000154B09B44FEA144325EA0B4E24EA034849
:1099B0000FF2042606EB132749083E785FEA3202CD
:1099C00003FB0667C7F5000707FB06F64FEA5437A7
:1099D0004FEAD64606F1020607FB066CCCF1005CA6
:1099E0004FEA1C472CEA074C07FB06F40CFB06F574
:1099F00004EB15464FEA961634BF00204FF00040A6
:109A00004FEAD13706FB07FC4FEA1C4C0CFB0BF767
:109A1000D21B03FB0CF761EB07010CFB0EF7B0EB5D
:109A2000074072EB17420CFB08F734BFA2EB07426A
:109A3000B2EB074261EB17414FEA0C444FEA910742
:109A400006FB07FC4FEA1C4C0CFB0BF7B0EBC740C6
:109A500072EB573203FB0CF734BFA2EBC742B2EBF9
:109A6000C74261EB57310CFB0EF7B0EBC70072EB4E
:109A700057720CFB08F734BFA2EBC702B2EBC70268
:109A800061EB5771039F4FEA816141EA921104EB48
:109A9000CC044FEAD1374FEA826206FB07FC42EA68
:109AA00090124FEA80604FEA1C4C0CFB0BF7D21B64
:109AB00003FB0CF761EB07010CFB0EF7B0EB074063
:109AC00072EB17420CFB08F734BFA2EB0742B2EB74
:109AD000074261EB17414FEA8C554FEA910704EBBF
:109AE0009C2406FB07FC4FEA1C4C0CFB0BF7B0EB6D
:109AF000C74072EB573203FB0CF734BFA2EBC742EF
:109B0000B2EBC74261EB57310CFB0EF7B0EBC7006D
:109B100072EB57720CFB08F734BFA2EBC702B2EB33
:109B2000C70261EB577115EB4C254FEA816141EAA1
:109B300092114FEA82624FEAD13742EA901206FB55
:109B400007FC44F100044FEA80604FEA1C4C0CFB18
:109B50000BF7D21B03FB0CF761EB07010CFB0EF7B5
:109B6000B0EB074072EB17420CFB08F734BFA2EBD7
:109B70000742B2EB074261EB174115EB1C154FEAA8
:109B8000813141EA92414FEA823242EA90424FEA01
:109B900080304FEA0C7644F1000448EA03434EEA71
:109BA0000B484FF0000EB2EB080C71EB030724BF1B
:109BB000624639464EEB0E0E4FF0000B0018524134
:109BC00049414BEB0B0BB2EB080C71EB03077BF13C
:109BD000000B24BF624639464EEB0E0E4FF0000BD1
:109BE0000018524149414BEB0B0BB2EB080C71EBE7
:109BF00003077BF1000B24BF624639464EEB0E0E85
:109C000051EA020718BF46F0010616EB0E7655F131
:109C1000000254F1000103D5BDE88901BDE80088C8
:109C2000BDE88901BDE80048B619524141EB010188
:109C3000A3F10103704780807F7E7D7C7B7A7978F9
:109C4000777676757473727171706F6E6E6D6C6C01
:109C50006B6A6A69686867666665646463636261A3
:109C60006160605F5F5E5E5D5D5C5C5B5B5A5A5924
:109C70005958585757565655555554545353525290
:109C80005251515050504F4F4F4E4E4D4D4D4C4CE8
:109C90004C4B4B4B4A4A4A49494948484847474731
:109CA000474646464545454444444443434343426E
:109CB000424242414141002B9C4630D477002BD098
:109CC0001CB54FEA370703B44FF010004FF01001F6
:109CD000BAF1000F06D0BCF1000FDCBF40F0080065
:109CE00040F008014FF000000FBCBDE810400BF140
:109CF000010BBBF1010F08BF5FEA170722BF12F18A
:109D0000010211F101014FF0004143F1000300F0A5
:109D1000004043EA00007047F9D35708D0E746EA0D
:109D2000064613F1400F4FEA16461FDD13F1200FD0
:109D3000DFBF16430A46002120335B42BED0C3F189
:109D4000200746EA064602FA07F74FEA164646EAB1
:109D50000706C3F1200722FA03F201FA07F721FAF6
:109D600003F14FF0000342EA0702A7E746EA0206C2
:109D700046EA06464FEA164646EA0106BCBF46EAF0
:109D80000646360C4FF000034FF000024FF0000182
:109D900094E72DE9804C9A46934670B491E83800D8
:109DA00007C831EA400C48BF34EA430C03D5FFF73B
:109DB000E6FDFFF780FFF0BCBDE8008C2DE9804C8C
:109DC0009A46934670B491E8380007C810F0804F67
:109DD00008BF13F0804F03D100F005F8FFF76BFFC9
:109DE000F0BCBDE8008C20F07F4780EA030023F040
:109DF0007F4C07EB0C03A3F57C5300F00040A3F16C
:109E0000FE0392F0000F00F0B38095F0000F00F019
:109E100077802DE901494FEA11404FEA144621EAC3
:109E2000004800FB06FC24EA064708FB06F607FB91
:109E300008F800FB07F718EB06484CEB164C4FEA06
:109E4000124B18EB07484FEA15464CEB174022EA35
:109E50000B4E0BFB06FC25EA06470EFB06F607FB3E
:109E60000EFE0BFB07F71EEB064E4CEB164C4FF0AD
:109E700000061EEB074E4CEB174B18EB0B0840F19E
:109E8000000018EB0E0B58EB000840F100008F1A91
:109E90004FF000013CBFC943661B14BFB5EB040C77
:109EA00000213CBFC943F61B4FEA17444EEA8E0E11
:109EB00027EA04454FEA1C4704FB07622CEA074CDB
:109EC00005FB07F70CFB05F604FB0CFC16EB07463D
:109ED00042EB174216EB0C4642EB1C421BEB06060C
:109EE00058EB0202414146EA9E0601D5BDE80189D0
:109EF000B619524141EB0101A3F10103BDE801890B
:109F00004FEA14454FEA114724EA054621EA074C77
:109F100005FB07F406FB07F70CFB06F105FB0CFC41
:109F200011EB074144EB17444FEA124711EB0C4188
:109F300044EB1C4422EA074C05FB07F206FB07F73B
:109F40000CFB06F605FB0CFC16EB074642EB174232
:109F500016EB0C4642EB1C456A1854F1000148BF51
:109F60007047B619524141EB0101A3F1010370475B
:109F700095F0000F37D04FEA11424FEA144721EA1B
:109F8000024624EA074C02FB07F106FB07F70CFB2D
:109F900006F402FB0CFC14EB074441EB17414FEABB
:109FA000154714EB0C4441EB1C4125EA074C02FB1E
:109FB00007F506FB07F70CFB06F602FB0CFC16EB9D
:109FC000074645EB174516EB0C4645EB1C421219AC
:109FD00051F1000148BF7047B619524141EB0101F0
:109FE000A3F1010370474FEA14454FEA114724EAF1
:109FF000054621EA074C05FB07F106FB07F70CFBBA
:10A0000006F24FF0000605FB0CFC12EB074241EB99
:10A01000174112EB0C4251EB1C4148BF704792189C
:10A0200041EB0101A3F101037047000055494A6863
:10A0300022F440324A604A6843681A434A60026820
:10A04000526822F4807203685A6002685368026999
:10A0500043EA022203685A600268526822F04072A2
:10A0600003685A600268526883681A4303685A603A
:10A070000268926822F4006203689A60026892683B
:10A08000C3681A4303689A603F4B826A9A4218D0A9
:10A090000268926822F0706203689A6002689268AF
:10A0A000836A1A4303689A600268926822F04052F9
:10A0B00003689A6002689268C36A1A4303689A60E8
:10A0C0000BE00268926822F0706203689A6002688E
:10A0D000926822F0405203689A600268926822F007
:10A0E000020203689A6002689368027E43EA4202B1
:10A0F00003689A602022125CA2B10268526842F49E
:10A10000006203685A600268526822F46042036881
:10A110005A6002685368426A521E43EA4232036838
:10A120005A6005E00268526822F4006203685A60CF
:10A130000268D26A22F470020368DA620268D36AA3
:10A14000828B521E43EA02520368DA620268926806
:10A1500022F4007203689A600268936890F83020D5
:10A1600043EA422203689A600268926822F480629D
:10A1700003689A6002689368426943EA822203682E
:10A180009A607047002301400100000F00BFFEE706
:10A1900010B5024800F024FF10BD0000E0030020CD
:10A1A00010B5024800F01CFF10BD00008003002025
:10A1B00010B5024800F014FF10BD00000405002097
:10A1C00010B5024800F00CFF10BD0000BC020020DA
:10A1D00010B5024800F004FF10BD0000A4040020E8
:10A1E00010B5024800F0FCFE10BD00005C0200202B
:10A1F0000146087810381823B0FBF3F20848805C59
:10A20000C865032A05D908686FF30900001D886531
:10A2100003E008686FF309008865886D70470000E7
:10A2200080790108014600208A6A8B69CBB932B176
:10A23000012A0DD0022A03D0032A10D10EE000BF5C
:10A24000CB6A03F08073B3F1807F00D1012007E077
:10A25000CB6AB3F1C07F00D1012001E000E000BF74
:10A2600034E08B69B3F5005F1AD132B1012A07D00F
:10A27000022A03D0032A11D10AE000BF01200EE018
:10A28000CB6A03F08073B3F1807F00D1012006E038
:10A29000CB6AB3F1C07F00D1012000E000BF15E020
:10A2A00032B1012A05D0022A04D0032A0CD103E0DE
:10A2B00000BF00BF012008E0CB6A03F08073B3F158
:10A2C000807F00D1012000E000BF00BF7047000088
:10A2D00038B504460025D4F82051688B00F400609E
:10A2E00000284CD000BF002000904F48006840F488
:10A2F00000104D4908600846006800F40010009006
:10A3000000BF00BF00BF002000900846006840F476
:10A31000800008600846006800F48000009000BFDC
:10A3200000BF00BF04F16000206544389821085147
:10A3300000BFA0682066616961664021A1660021B6
:10A34000E1664FF48061216700216167A167E167E1
:10A350004FF40031C4F880100021C4F884100321A8
:10A36000C4F888100021C4F88C10C4F8901004F1CF
:10A37000600000F0FDFD04F1600000F051FF688B0B
:10A3800000F4007000284DD000BF00200090264847
:10A39000006840F40010244908600846006800F492
:10A3A0000010009000BF00BF00BF002000900846D2
:10A3B000006840F4800008600846006800F48000EF
:10A3C000009000BF00BF00BF04F1C0006065A4386A
:10A3D000F821085100BFE068C4F8C000C420A1699A
:10A3E00001510021C4F8C810C4F8CC104FF48061AA
:10A3F000C4F8D0100021C4F8D410C4F8D8104FF419
:10A400008071C4F8DC104FF44031C4F8E010002132
:10A41000C4F8E41004F1C00000F0AAFD04F1C0008B
:10A4200000F0FEFE38BD00003038024030B5046850
:10A43000246824F4802405682C60046863608468C0
:10A44000402C04D10468A2600468E16003E0046861
:10A45000A1600468E26030BD10B5002201B909E0D6
:10A46000012901D10A0205E0022901D10A0201E015
:10A470004FF440720E4B1B6823F440730C4C236066
:10A4800023461B681343236023461B6823F0F8030D
:10A49000236023461B68022444EAC0042343044C7F
:10A4A000236023461B6843F48033236010BD000003
:10A4B000103C02401C48006800F40070B0B11A481B
:10A4C000006820F400701849086000BF0846006862
:10A4D00040F4006008600846006820F400600860EE
:10A4E00000BF0846006840F4007008600E4800682D
:10A4F00000F48060B0B10C48006820F480600A4924
:10A50000086000BF0846006840F4805008600846B4
:10A51000006820F48050086000BF0846006840F4DE
:10A520008060086070470000003C02400A4A1268E0
:10A5300022F44072084B1A601A46126842F0040274
:10A540001A601A4612684FF4803343EA00231A4314
:10A55000014B1A6070470000103C0240074A126825
:10A5600022F44072054B1A601A4612681A601A46A5
:10A57000126842F001021A6001707047103C0240FC
:10A5800010B50D49096821F440710B4C216021463A
:10A59000096841F4407121602146096841F00101D8
:10A5A0002160026000BF00BF00BFBFF36F8F00BF1C
:10A5B00000BF00BF436010BD103C0240084A126853
:10A5C00022F44072064B1A601A46126842F48072F6
:10A5D0001A601A46126842F001021A600180704740
:10A5E000103C0240084A126822F44072064B1A607E
:10A5F0001A46126842F400721A601A46126842F053
:10A6000001021A6001607047103C02402A4800684D
:10A6100000F0100040B12948C06940F010002749FF
:10A62000C8611020244908602348006800F0200019
:10A6300040B12248C06940F008002049C86120208C
:10A640001D4908601C48006800F0400040B11B48EC
:10A65000C06940F004001949C861402016490860EB
:10A660001548006800F0800040B11448C06940F00F
:10A6700002001249C86180200F4908600E48006836
:10A6800000F4807048B10D48C06940F001000B49EA
:10A69000C8614FF48070084908600748006800F0FE
:10A6A000020040B10548C06940F020000349C8617C
:10A6B00002200149086070470C3C0240647E002083
:10A6C00070B50446002500201449C86101F018F84F
:10A6D000054609E0601C38B124B101F011F8401BB7
:10A6E000A04201D9032070BD0D48006800F48030FD
:10A6F0000028EFD10A48006800F0010010B10120E5
:10A70000074908600648006800F4F97018B1FFF7BF
:10A710007DFF0120E7E70020E5E70000647E0020E0
:10A720000C3C024010B586B004460020009000F0BA
:10A73000E3FE00200190204600F01CF80390012069
:10A74000049002200590694601A800F029FE10B18E
:10A7500003A008F043FD00F079FE06B010BD000034
:10A760005B464C4153485D6572617365206572724A
:10A770006F720A0001460020144A914203D2B1F1DF
:10A78000006F00D320E0124A914204D20F4A914256
:10A7900001D3012018E00F4A914204D20C4A9142A1
:10A7A00001D3022010E00C4A914204D2094A91429E
:10A7B00001D3032008E0094A914204D2064A91429B
:10A7C00001D3042000E0052070470000004000088D
:10A7D0000080000800C00008000001080000020816
:10A7E00010B50B46002104E004785454401C4C1C66
:10A7F000A1B29942F8DB10BD2DE9F04704460E46A0
:10A8000015464FF00009CA4600F076FE04EB060A32
:10A810004CF25030FFF754FF8146B9F1000F13D1CD
:10A820000FE095F90000C31707463A46214600207D
:10A8300000F016FE18B106A008F0D0FC03E0641C7E
:10A840006D1C5445EDD300BF00F000FEBDE8F0875D
:10A850005B464C4153485D6572726F722077726936
:10A8600074652E002DE9F04704460F460025A946E1
:10A87000A0460026AA4604F0030028B134A008F040
:10A88000ADFC681EBDE8F0873B48844202D2B4F1BB
:10A89000006F05D239A008F0A1FC4FF0FF30F1E7BE
:10A8A0004248844205D242A008F098FC4FF0FF30A5
:10A8B000E8E73148874205D34AA008F08FFC4FF003
:10A8C000FF30DFE708E0204602F01FFF401C10B118
:10A8D0004FF0010902E0241DBC42F4D300BF4446FE
:10A8E000B9F1010F2ED100F007FE3048261A86B1CB
:10A8F000304608F001FD05462DB1B1B22A462B487D
:10A90000FFF76EFF05E041A008F068FC4FF0FF3054
:10A91000B8E72046FFF706FF4CF25030FFF7D0FEB5
:10A920008246BAF1000F05D1B1B22A461F48FFF79F
:10A9300063FF05E03DA008F051FC4FF0FF30A1E7B8
:10A9400000F084FD15B1284607F0D6FF002099E7F6
:10A950005B73746D5F666C6173685D207772697498
:10A96000652061646472206E6F74206D656D206176
:10A970006C69676E0D0A0000000004085B73746D5B
:10A980005F666C6173685D207772697465206164CD
:10A990006472206973206E6F7420636F72726563D6
:10A9A0007420616464720D0A000000000040000819
:10A9B0005B73746D5F666C6173685D207772697438
:10A9C000652061646472206973206E6F74207573F2
:10A9D0006572206461746120646F6D61696E0D0A37
:10A9E000000000005B73746D5F666C6173685D20CE
:10A9F0007772697465206C656E206973206D6F7263
:10AA000065207468616E0D0A000000005B73746D50
:10AA10005F666C6173685D206D616C6C6F63206D47
:10AA2000656D20666169656C640D0A005B73746D09
:10AA30005F666C6173685D2077726974652064611C
:10AA4000746120666169656C640D0A0038B5024660
:10AA50000020009000BF92F83C00012801D10220A4
:10AA600038BD012082F83C0000BF0868092816D9CB
:10AA70001068C0680C780A3C04EB44050724AC401D
:10AA8000A0431468E0600C780A3C04EB4404886836
:10AA9000A0401468E46820431468E06013E0106884
:10AAA00000690C7804EB44050724AC40A04314680B
:10AAB00020610C7804EB44048868A0401468246981
:10AAC0002043146820614868072817D21068406B3B
:10AAD0000C79641E04EB84051F24AC40A043146869
:10AAE0006063088880B20C79641E04EB8404A04083
:10AAF0001468646B20431468606331E048680D2873
:10AB000017D21068006B0C79E41F04EB84051F2436
:10AB1000AC40A04314682063088880B20C79E41F1D
:10AB200004EB8404A0401468246B20431468206361
:10AB300016E01068C06A0C790D3C04EB84051F24F4
:10AB4000AC40A0431468E062088880B20C790D3CE8
:10AB500004EB8404A0401468E46A20431468E062B3
:10AB6000194B1A4C1068A04206D10868122803D16C
:10AB7000586840F480005860144C1068A0421CD102
:10AB80000868102802D00868112816D1586840F4C7
:10AB900000005860086810280FD10D4800680D4C5F
:10ABA000B0FBF4F000EB80004000009002E0009861
:10ABB000401E009000980028F9D100BF002082F8C4
:10ABC0003C0000BF00BF4BE70023014000200140D4
:10ABD0007405002040420F0001460868C06C7047B1
:10ABE00070B5044600250CB9012070BD1549A06A56
:10ABF000884200D000BF206C30B9204600F024F815
:10AC00000020606484F83C00206C00F0100088B9DB
:10AC1000206C20F4885040F0020020642046FFF7AA
:10AC200005FA00206064206C20F0020040F0010072
:10AC3000206400E0012500BF002084F83C0000BF34
:10AC40002846D2E70100000F10B586B0044600BFC9
:10AC5000002000901648006840F480701449086095
:10AC60000846006800F48070009000BF00BF00BF7D
:10AC7000002000900E481438006840F001000C4994
:10AC8000143908600846006800F00100009000BF19
:10AC900000BF1020019003200290002003900320A9
:10ACA000049001A9034800F041FC06B010BD00006B
:10ACB000443802400000024070B504460D460026AC
:10ACC0002068806800F48060B0F5806F11D1206842
:10ACD000806800F48070B0F5807F0AD1206C40F06D
:10ACE0002000206400BF002084F83C0000BF012049
:10ACF00070BD00F005FD064618E0681CB0B125B136
:10AD000000F0FEFC801BA84210D92068006800F00B
:10AD1000020002280AD0206C40F00400206400BF2A
:10AD2000002084F83C0000BF0320E1E720680068B1
:10AD300000F002000228E0D16FF0120021680860E4
:10AD4000206C40F4007020642068806800F040505F
:10AD5000B8B9207EA8B92068C06A00F4700020B19C
:10AD60002068806800F4806058B9206C20F48070FE
:10AD70002064206C00F4805018B9206C40F0010071
:10AD800020640020B4E7000008B5014600200090D0
:10AD900000BF91F83C00012801D1022008BD01202C
:10ADA00081F83C0000BF0868806800F00100A0B98D
:10ADB0000868806840F001000B68986033480068BC
:10ADC000334BB0FBF3F000EB4000009002E0009842
:10ADD000401E009000980028F9D10868806800F0B3
:10ADE0000100002848D0086C40F20163984340F409
:10ADF000807008640868406800F4806028B1086CBE
:10AE000020F4005040F480500864086C00F4805036
:10AE1000B0F5805F04D1486C20F00600486401E082
:10AE20000020486400BF002081F83C0000BF194AA0
:10AE30006FF022000B681860506800F01F0058B9CE
:10AE40000868806800F04050F0B90868806840F0F9
:10AE500080400B68986017E00F4B0868984213D148
:10AE60000868806800F0405070B90868806840F059
:10AE700080400B68986007E0086C40F010000864A0
:10AE8000486C40F001004864002087E7740500200A
:10AE900040420F00002301400020014070B50446ED
:10AEA000A56D00F02DFC064694F83500022808D068
:10AEB0008020606500BF002084F8340000BF0120BE
:10AEC00070BD2068006820F01600216808602068C6
:10AED000406920F0800021684861206C08B9A06CAE
:10AEE00028B12068006820F0080021680860206808
:10AEF000006820F001002168086010E000F000FC0C
:10AF0000801B05280BD920206065032084F83500BC
:10AF100000BF002084F8340000BF0320D0E7206881
:10AF2000006800F001000028E8D194F85C103F2090
:10AF30008840A860012084F8350000BF002084F814
:10AF4000340000BF00BFBBE7014691F8350002287E
:10AF500003D08020486501207047052081F8350026
:10AF60000868006820F001000A6810600020F3E71C
:10AF700070B504460CB9012070BD94F83500022864
:10AF800000D1F9E72068006820F00100216808601E
:10AF90000020216808602168486021688860216875
:10AFA000C860216808612120216848612046FFF7B8
:10AFB0001FF905460020E06320646064A064E0643B
:10AFC000206594F85C103F208840A86000206065F0
:10AFD00084F8350000BF84F8340000BF00BFCBE721
:10AFE000F8B50446002000908C4800684FF41651D4
:10AFF000B0FBF1F7A56D2E6894F85C10082088402E
:10B00000304098B12068006800F0040070B12068FA
:10B01000006820F004002168086094F85C100820A3
:10B020008840A860606D40F00100606594F85C1095
:10B0300001208840304068B12068406900F08000FD
:10B0400040B194F85C1001208840A860606D40F029
:10B050000200606594F85C1004208840304068B1BC
:10B060002068006800F0020040B194F85C100420F1
:10B070008840A860606D40F00400606594F85C1042
:10B0800010208840304078B32068006800F0080045
:10B0900050B394F85C1010208840A86020680068C5
:10B0A00000F4802080B12068006800F4002028B9F6
:10B0B000206CC8B12046216C884715E0A06C98B17F
:10B0C0002046A16C88470FE02068006800F480707B
:10B0D00028B92068006820F0080021680860206C0A
:10B0E00010B12046216C884794F85C1020208840DD
:10B0F0003040002865D02068006800F0100000286B
:10B100005FD094F85C1020208840A86094F8350047
:10B11000052828D12068006820F016002168086002
:10B120002068406920F0800021684861206C08B9DF
:10B13000A06C28B12068006820F008002168086031
:10B1400094F85C103F208840A860012084F8350006
:10B1500000BF002084F8340000BF206D10B12046ED
:10B16000216D8847F8BD2068006800F4802080B118
:10B170002068006800F4002028B9606C10B12046F7
:10B18000616C88471DE0E06BD8B12046E16B8847D1
:10B1900017E02068006800F4807068B920680068D3
:10B1A00020F0100021680860012084F8350000BFFD
:10B1B000002084F8340000BFE06B10B12046E16B42
:10B1C0008847606D38B3606D00F00100F0B1052074
:10B1D00084F835002068006820F0010021680860CC
:10B1E00000BF0098401C0090B84200D905E02068DC
:10B1F000006800F001000028F3D100BF012084F8AE
:10B20000350000BF002084F8340000BFE06C10B1AE
:10B210002046E16C884700BFA4E7000074050020C9
:10B220002DE9F0410446002500F06AFA074614B9FA
:10B230000120BDE8F081606A00B100BF022084F8FF
:10B24000350000BF002084F8340000BF206800688B
:10B2500020F00100216808600AE000F051FAC01BEC
:10B26000052805D920206065032084F83500E0E733
:10B270002068006800F001000028EED12068056811
:10B2800021480540D4E901010843E16808432169E8
:10B29000084361690843A1690843E1690843216AD9
:10B2A00008430543606A042803D1D4E90B0108432D
:10B2B0000543206805602068456925F00705606A38
:10B2C0000543606A04280DD1A06A0543E06A48B1CD
:10B2D0002046FEF7A7FF28B140206065012084F8D2
:10B2E0003500A6E7206845612046FEF781FF064647
:10B2F00094F85C103F208840B06000206065012019
:10B3000084F83500002094E73F8010F02DE9F047E5
:10B3100004460D4616461F464FF00008D4F85890D4
:10B3200000BF94F83400012802D10220BDE8F08764
:10B33000012084F8340000BF94F83500012825D19D
:10B34000022084F83500002060653B4632462946DD
:10B350002046FFF76BF894F85C103F208840C9F84E
:10B3600008002068006840F0160021680860206C22
:10B3700028B12068006840F0080021680860206853
:10B38000006840F001002168086006E000BF00206E
:10B3900084F8340000BF4FF002084046C6E70000C2
:10B3A0002DE9F04104460E460127002500BF25483F
:10B3B000007E012802D10220BDE8F0810120214950
:10B3C000087600BF4CF25030FFF77AF90746002F9D
:10B3D00031D1401E3060206801280FD1207C616887
:10B3E000FFF7A4F84CF25030FFF76AF90746164809
:10B3F000006820F00400144908601AE0A56812E013
:10B40000217C2846FFF728F84CF25030FFF758F916
:10B4100007460D48006820F0FA000B4908600FB19C
:10B42000356005E06D1CD4E902100844A842E7D855
:10B4300000BFFFF73FF800BF00200249087600BFB9
:10B440003846B9E7647E0020103C0240034800689B
:10B4500040F000400149086000207047103C024065
:10B460002DE9F04106460F4614461D464FF00108EF
:10B4700000BF1F48007E012802D10220BDE8F081F4
:10B4800001201B49087600BF4CF25030FFF718F935
:10B490008046B8F1000F23D126B9E1B23846FFF754
:10B4A0005DF812E0012E04D1A1B23846FFF786F80C
:10B4B0000BE0022E04D121463846FFF793F804E052
:10B4C00022462B463846FFF75BF84CF25030FFF728
:10B4D000F7F880460748006820F001000549086039
:10B4E00000BF00200249087600BF4046C6E70000C2
:10B4F000647E0020103C024000200949096801F0E8
:10B50000004159B10749064A0C3A116006491160D9
:10B510000349096801F0004101B1012070470000B2
:10B52000103C024023016745AB89EFCDF8B50246D8
:10B530000B460025002400200021C6E0012606FA63
:10B5400001F51E6806EA0504AC4274D11E7906F0C6
:10B550000306012E04D01E7906F00306022E13D135
:10B5600090684F000326BE40B0434F00DE68BE40E7
:10B5700030439060506801268E40B0431E79C6F378
:10B5800000168E40304350601E7906F00306032EED
:10B5900009D0D0684F000326BE40B0434F009E68DC
:10B5A000BE403043D0601E7906F00306022E13D150
:10B5B000CF0802F1200656F827004E07F70E0F2697
:10B5C000BE40B0434F07FF0E1E69BE403043CF0858
:10B5D00002F1200646F8270010684F000326BE40FF
:10B5E000B0431E7906F003064F00BE4030431060A2
:10B5F0005E6806F44036002E66D000BF0026009636
:10B60000344E366846F48046324F3E603E463668D9
:10B6100006F48046009600BF00BF2F4E8F0856F8F4
:10B6200027008E07370F0F26BE40B0432B4EB24285
:10B6300002D1002615E047E0294EB24201D1012691
:10B640000FE0284EB24201D102260AE0264EB24255
:10B6500001D1032605E0254EB24201D1042600E0C7
:10B6600007268F073F0FBE4030431B4E8F0846F81A
:10B6700027001F4E3068A0435E6806F4803606B18E
:10B6800020431B4E3060361D3068A0435E6806F4D0
:10B69000003606B12043164E361D3060361D306828
:10B6A000A0435E6806F4801606B12043104E0836AB
:10B6B0003060361D3068A0435E6806F4001606B19F
:10B6C00020430B4E0C363060491C1029FFF436AF76
:10B6D000F8BD000044380240083801400000024034
:10B6E0000004024000080240000C0240001002402A
:10B6F000003C01400AB1816101E00B0483617047A5
:10B700000148006870470000780500200148006883
:10B7100070470000107AFF1F014800687047000062
:10B72000147AFF1F0148006870470000187AFF1F55
:10B7300003480068034909780844014908607047D4
:10B74000780500208005002010B50D48006840F401
:10B7500000700B4908600846006840F4806008608B
:10B760000846006840F480700860032000F08EF8FE
:10B770000F2000F007F800F017F8002010BD0000BF
:10B78000003C024070B5044600F056F94FF47A715F
:10B79000B0FBF1F5284600F01BFC00222146501EAC
:10B7A00000F036F8002070BD7047000010B501466B
:10B7B0000846002817DB00F01F0301229A400B4BBC
:10B7C000440943F8242000BF00BF00BFBFF34F8FE0
:10B7D00000BF00BF00BF00BF00BF00BFBFF36F8F3F
:10B7E00000BF00BF00BF00BF10BD000080E100E04F
:10B7F00001460846002809DB00F01F0301229A4099
:10B8000043099B0003F1E023C3F8002100BF704708
:10B810002DE9F05F80460D461646002702F070FEC7
:10B82000074639462A46334601F00700C0F1070AA9
:10B83000BAF1040F02D94FF0040A01E0C0F1070A7F
:10B84000D14600F1040ABAF1070F02D24FF0000A04
:10B8500001E0A0F1030AD4464FF0010A0AFA09FAFE
:10B86000AAF1010A0AEA020A0AFA0CFA4FF0010BDD
:10B870000BFA0CFBABF1010B0BEA030B4AEA0B04CE
:10B880002146404602F058FEBDE8F09F00BF00F0A0
:10B890000702064B19684FF6FF031940044B0B4390
:10B8A00043EA0221014B196000BF70470CED00E034
:10B8B0000000FA0570B504460D460CB9012070BDB4
:10B8C0005848006800F00700A84209D255490D7099
:10B8D0000846006800F00700A84201D00120EEE70A
:10B8E000207800F0020002281DD1207800F004002A
:10B8F000042805D14C48006840F4E0504A490860EB
:10B90000207800F00800082805D14748006840F476
:10B910006040454908604448006820F0F000A16894
:10B92000084341490860207800F00100A8B360682E
:10B93000012807D13C4808380068C0F34040B8B936
:10B940000120BCE76068022802D06068032807D1A4
:10B95000354808380068C0F3406048B90120AEE7B8
:10B96000314808380068C0F3400008B90120A6E754
:10B970002D48006820F00300616808432A490860E8
:10B98000FFF7BEFE064609E0FFF7BAFE801B41F254
:10B990008831884202D9032091E707E022480068F5
:10B9A00000F00C006168B0EB810FEDD11D4800681C
:10B9B00000F00700A84209D91A490D70084600682E
:10B9C00000F00700A84201D0012078E7207800F0BD
:10B9D0000400042807D11448006820F4E050E1680E
:10B9E000084311490860207800F00800082808D1B1
:10B9F0000D48006820F46040216940EAC1000A490E
:10BA0000086000F03FF808490968C1F30311074ACC
:10BA1000515CC8400649086006480068FFF7B2FE5E
:10BA200000204CE7003C02400838024068790108D9
:10BA3000740500207C050020014800687047000064
:10BA40007405002000B5FFF7F7FF04490968C1F34A
:10BA50008221034A515CC84000BD00000838024002
:10BA60007879010800B5FFF7E7FF04490968C1F3D9
:10BA70004231034A515CC84000BD00000838024012
:10BA8000787901082DE9F047002400250026A14619
:10BA90002548006800F00C0020B1042805D00828D3
:10BAA0003AD105E0DFF8849039E0DFF8849036E0A1
:10BAB0001D48001F006800F03F041B48001F00687D
:10BAC00000F4800078B11A481749091F0968C1F3CA
:10BAD0008811A0FB01700146224600233846FCF77E
:10BAE000C3FC05460EE011480F49091F0968C1F360
:10BAF0008811A0FB01700146224600233846FCF75E
:10BB0000B3FC05460848001F0068C0F30140401C14
:10BB10004600B5FBF6F902E0DFF8109000BF00BF69
:10BB20004846BDE8F0870000083802400024F400D1
:10BB300000127A00F8B504460CB90120F8BD20784F
:10BB400000F00100002874D0F948006800F00C00F3
:10BB500004280DD0F648006800F00C00082813D126
:10BB6000F348001F006800F48000B0F5800F0BD18F
:10BB7000EF4808380068C0F34040002859D060689A
:10BB8000002856D10120D9E700BF6068B0F5803F9A
:10BB900008D1E7480838006840F48030E4490839A3
:10BBA00008601EE06068B0F5A02F0DD1E0480838AD
:10BBB000006840F48020DE490839086008460068C3
:10BBC00040F4803008600CE0D9480838006820F460
:10BBD0008030D749083908600846006820F4802082
:10BBE000086000BF606890B1FFF78AFD054606E077
:10BBF000FFF786FD401B642801D903209EE7CC484F
:10BC000008380068C0F340400028F1D011E0FFF789
:10BC100077FD054606E0FFF773FD401B642801D958
:10BC200003208BE7C24808380068C0F34040002872
:10BC3000F1D1207800F0020002285FD1BC480068F2
:10BC400000F00C0058B1BA48006800F00C00082859
:10BC50001CD1B748001F006800F48000B0B9B44898
:10BC600008380068C0F3400020B1E068012801D026
:10BC7000012063E7AE480838006820F0F800216929
:10BC800040EAC100AA490839086037E0E06800B31B
:10BC90000120A8490860FFF733FD054606E0FFF7DD
:10BCA0002FFD401B022801D9032047E7A048083890
:10BCB0000068C0F340000028F1D09D4808380068B3
:10BCC00020F0F800216940EAC1009949083908606C
:10BCD00014E0002097490860FFF712FD054606E0D2
:10BCE000FFF70EFD401B022801D9032026E79048EC
:10BCF00008380068C0F340000028F1D1207800F037
:10BD0000080008282CD16069A8B101208A49086080
:10BD1000FFF7F6FC054606E0FFF7F2FC401B0228A1
:10BD200001D903200AE782486C300068C0F3400064
:10BD30000028F1D014E000207F490860FFF7E0FC04
:10BD4000054606E0FFF7DCFC401B022801D9032072
:10BD5000F4E677486C300068C0F340000028F1D169
:10BD6000207800F00400042870D100277048383093
:10BD7000006800F0805090B900BF002000906C482F
:10BD80003830006840F08050694938310860084612
:10BD9000006800F08050009000BF00BF0127674896
:10BDA000006800F48070B0B96448006840F48070A6
:10BDB00062490860FFF7A4FC054606E0FFF7A0FC17
:10BDC000401B022801D90320B8E65C48006800F453
:10BDD00080700028F2D000BFA068012808D1544824
:10BDE0006830006840F001005149683108601DE08A
:10BDF000A06805280DD14E486830006840F0040066
:10BE00004B49683108600846006840F0010008604E
:10BE10000CE047486830006820F001004449683170
:10BE200008600846006820F00400086000BFA068B1
:10BE3000A8B1FFF765FC054609E0FFF761FC401B70
:10BE400041F28831884202D9032077E626E038485B
:10BE500068300068C0F340000028EED013E0FFF720
:10BE60004FFC054608E0FFF74BFC401B41F28831D0
:10BE7000884201D9032061E62D4868300068C0F38C
:10BE800040000028EFD1012F07D129483830006841
:10BE900020F0805026493831086000BFA069002892
:10BEA00045D02348006800F00C0008285DD0A06948
:10BEB000022845D100201F490866FFF721FC0546EE
:10BEC00006E0FFF71DFC401B022801D9032035E6E0
:10BED000174808380068C0F340600028F1D1D4E961
:10BEE00007010843616A40EA81110122A06AC2EB9E
:10BEF000500041EA00412C20005D41EA00600C49FD
:10BF0000091F086001200B490866FFF7F9FB054689
:10BF100006E0FFF7F5FB401B022801D903200DE6E0
:10BF2000034808380068C0F340600028F1D049E0B9
:10BF30000838024000004742800E4742007000402F
:10BF4000002021490866FFF7DBFB054606E0FFF706
:10BF5000D7FB401B022801D90320EFE51B480068EE
:10BF6000C0F340600028F2D12CE0A069012800D184
:10BF7000E4E51648001D0668A069012820D006F4F3
:10BF80008001E06981421BD106F03F01206A8142B5
:10BF900016D147F6C0703040616AB0EB811F0FD1F7
:10BFA00006F440310122A06AC2EB5000B1EB004F11
:10BFB00006D106F070612C20005DB1EB006F01D05E
:10BFC0000120BBE50020B9E50000474200380240EF
:10BFD00070B504462546681EB0F1807F01D301206C
:10BFE0000FE0681E4FF0E02148610F214FF0FF3055
:10BFF00002F0A2FA00204FF0E021886107200861DA
:10C00000002070BD704770472DE9F84F0446206846
:10C0100005682068C668206847694FF00009CA466D
:10C0200005F00F09B9F1000F0AD105F0200038B171
:10C0300006F0200020B1204601F0E4FDBDE8F88FB5
:10C04000B9F1000F7CD007F0010018B906F4907028
:10C05000002875D005F0010030B106F4807018B1E9
:10C06000206C40F00100206405F0040030B107F0BE
:10C07000010018B1206C40F00200206405F00200BD
:10C0800030B107F0010018B1206C40F004002064CA
:10C0900005F0080048B106F0200010B907F00100D3
:10C0A00018B1206C40F008002064206C002846D0B5
:10C0B00005F0200028B106F0200010B1204601F064
:10C0C000A1FD20684069C0F3801A206C00F00800D0
:10C0D00010B9BAF1000F2DD0204601F03AFD2068CA
:10C0E000406900F04000402820D100BF00BF216817
:10C0F000143151E8001F21F040002168143141E85B
:10C100000002002AF3D100BFA06B50B17548A16BAB
:10C110000865A06BFEF718FF88B1A06B016D88471A
:10C120000DE02046FFF76FFF09E009E02046FFF72A
:10C130006AFF04E02046FFF766FF002020647DE7E9
:10C14000206B012876D105F01000002872D006F08F
:10C1500010000028FAD000BF00200090206800687E
:10C16000009020684068009000BF00BF20684069D0
:10C1700000F0400040285ED1A06B006840681FFAC4
:10C1800080F8B8F1000F54D0A08D404551DDA4F8DF
:10C190002E80A06BC069B0F5807F43D000BF00BF88
:10C1A00021680C3151E8001F21F4807021680C31A6
:10C1B00041E80002002AF3D100BF00BF00BF2168A0
:10C1C000143151E8001F21F001002168143141E8C9
:10C1D0000002002AF3D100BF00BF00BF2168143164
:10C1E00051E8001F21F040002168143141E80002AD
:10C1F000002AF3D100BF202084F83E0000202063F5
:10C2000000BF00BF21680C3151E8001F21F0100071
:10C2100021680C3141E80002002AF3D100BFA06B75
:10C22000FEF73CFEA08DE28D801A81B22046FFF71A
:10C23000E9FE03E740E0A08DE18D401A1FFA80F887
:10C24000E08DC0B3B8F1000F35D000BF00BF21684A
:10C250000C3151E8001F21F4907021680C3141E845
:10C260000002002AF3D100BF00BF00BF21681431D3
:10C2700051E8001F21F001002168143141E800025B
:10C28000002AF3D100BF202084F83E000020206364
:10C2900000BF00BF21680C3151E8001F21F01000E1
:10C2A00021680C3141E80002002AF3D100BF414669
:10C2B0002046FFF7A7FEC1E605F0800030B106F08A
:10C2C000800018B1204601F095FEB7E605F0400069
:10C2D00030B106F0400018B1204601F070FCADE628
:10C2E00000BFABE6B9D9000810B504460CB901206F
:10C2F00010BDA06900B100E000BF94F83D0028B96E
:10C30000002084F83C00204600F028F8242084F81F
:10C310003D002068C06820F400502168C8602046B5
:10C3200001F0ECFC2068006920F49040216808616D
:10C330002068406920F02A00216848612068C068B0
:10C3400040F400502168C86000202064202084F858
:10C350003D0084F83E000020CAE7000010B586B01A
:10C36000044672492068884247D100BF00200090EF
:10C370006F48006840F001006D4908600846006899
:10C3800000F00100009000BF00BF00BF002000903F
:10C390000846006840F0010008600846006800F0A8
:10C3A0000100009000BF00BF00BF00200090604867
:10C3B0001430006840F010005D49143108600846F0
:10C3C000006800F01000009000BF00BF4815019009
:10C3D0000220029001200390032004900720059082
:10C3E00001A95448FFF7A2F84FF48060019007209C
:10C3F000059001A94F48FFF799F84F4920688842F6
:10C4000046D100BF002000904948006840F001007C
:10C41000474908600846006800F00100009000BF2E
:10C4200000BF00BF002000900846006840F00100F7
:10C4300008600846006800F00100009000BF00BFDF
:10C4400000BF002000903A481030006840F40030EF
:10C450003749103108600846006800F40030009049
:10C4600000BF00BF04200190022002900120039031
:10C47000032004900720059001A92E48FFF756F8E5
:10C48000082001900720059001A92A48FFF74EF8DF
:10C490002A492068884246D100BF002000902448E5
:10C4A000006840F00400224908600846006800F077
:10C4B0000400009000BF00BF00BF002000900846AD
:10C4C000006840F0040008600846006800F00400BE
:10C4D000009000BF00BF00BF00200090144814303F
:10C4E000006840F0200012491431086008460068D6
:10C4F00000F02000009000BF00BF4020019002200B
:10C50000029001200390032004900820059001A9C7
:10C510000B48FFF70BF8802001900820059001A937
:10C520000748FFF703F806B010BD000000100140F7
:10C530003038024000000240004400400014014036
:10C540000008024070B50446002520684069C0F329
:10C55000801594F83E0022280ED16DB12068406904
:10C5600020F0400021684861A06B10B1A06BFEF77D
:10C5700095FC204601F0EDFA002070BD70B5044630
:10C580000D46164694F83E00202816D105B10EB986
:10C59000012070BD00BF94F83C00012801D10220A9
:10C5A000F7E7012084F83C0000BF002020633246FA
:10C5B0002946204601F0B8FCEBE70220E9E700003D
:10C5C0002DE9F0410646002400270025684930681F
:10C5D000884244D1674CE0690768E069476800BF5A
:10C5E00004F11C00FFF7AEFF63480078C8B10020DB
:10C5F00061490870D4F8C00047684FF482652A4644
:10C600005E4904F11C00FFF7B9FF2A465C49496EF8
:10C61000081D5C4907F0EAFE0321594806F090FB2B
:10C6200018E0012054490870D4F8C00047684FF45E
:10C6300082652A46534904F11C00FFF79FFF2A46F2
:10C640004F49496E081D4D4907F0D0FE03214C4863
:10C6500006F076FB4C48006828444B4908604B497B
:10C66000306888423ED14A4CE0690768E069476813
:10C6700004F11C00FFF766FF46480078C8B10020AF
:10C6800044490870D4F8C00047684FF480752A46C2
:10C69000414904F11C00FFF771FF2A463F49496EEA
:10C6A000081D3F4907F0A2FE03213C4806F048FB65
:10C6B00018E0012037490870D4F8C00047684FF4EB
:10C6C00080752A46364904F11C00FFF757FF2A46B9
:10C6D0003249496E081D304907F088FE03212F4872
:10C6E00006F02EFB2F49306888423ED12E4CE0697F
:10C6F0000768E069476804F11C00FFF723FF2B4837
:10C700000078C8B1002029490870D4F8C0004768F3
:10C710004FF482652A46264904F11C00FFF72EFFDC
:10C720002A462449496E081D234907F05FFE03216C
:10C73000204806F005FB18E001201C490870D4F8D9
:10C74000C00047684FF482652A461B4904F11C006B
:10C75000FFF714FF2A461749496E081D144907F0D0
:10C7600045FE0321134806F0EBFABDE8F081000016
:10C7700000100140FC010020F40100205C6A002050
:10C78000F06900206C6E0020F80100200044004099
:10C7900020030020F5010020E87200207C720020B8
:10C7A000E87300200014014044040020F60100203A
:10C7B00054750020E8740020647900207047000060
:10C7C000F7B50446154694F83D00202846D1019857
:10C7D00000B10DB90120FEBD00BF94F83C00012856
:10C7E00001D10220F7E7012084F83C0000BF019846
:10C7F0002062A584E58400202064212084F83D0087
:10C800001748616BC8631748616B08641648616B11
:10C81000C8640020616B086501AE23681A1D316889
:10C820002B46606BFEF772FD6FF0400021680860D8
:10C8300000BF002084F83C0000BF00BF00BF21689B
:10C84000143151E8001F41F080002168143141E8A3
:10C850000002002AF3D100BF0020BCE70220BAE7A3
:10C86000EDDA000845DB0008CDD9000810B5044614
:10C870000C492068884203D104210B4806F060FA75
:10C880000A492068884203D10421094806F058FA71
:10C8900008492068884203D10421074806F050FA6D
:10C8A00010BD000000100140F0690020004400406D
:10C8B0007C72002000140140E8740020704770B5BD
:10C8C00003460024002010E00E5C451C4D5D46EA46
:10C8D0000526851C4D5D46EA0546C51C4D5D46EAAC
:10C8E000056543F82450641C001D9042ECD370BDD4
:10C8F00070B5034614460022002015E011F82250BE
:10C900001D5431F82250C5F30726451C5E5551F8D9
:10C910002250C5F30746851C5E5551F822502D0E56
:10C92000C61C9D55521C001DA042E7D370BD0000DF
:10C930002DE9FC4104460E46002500272088C0F35F
:10C94000C505382D02D2C5F1380001E0C5F17800E7
:10C950000746082221466846FFF7CAFF3A460849BB
:10C96000204600F05DFE08226946204600F058FE91
:10C97000102204F108013046FFF7BAFFBDE8FC8140
:10C980002800002000210160416005498160054ABE
:10C99000C260CA430261034AD24342617047000049
:10C9A0000123456789ABCDEF2DE9F043C0B0804648
:10C9B0008946D8F80040D8F80450D8F80860D8F86C
:10C9C0000C70402249466846FFF779FF05EA0600E9
:10C9D00027EA05010843204400990844FE49084419
:10C9E000C20105EA060027EA050108432044009930
:10C9F0000844F949084442EA5060441904EA050031
:10CA000026EA04010843384401990844F3490844DC
:10CA1000020304EA050026EA0401084338440199A8
:10CA20000844EE49084442EA1050071907EA040096
:10CA300025EA0701084330440299084447F2DB0124
:10CA40000844420407EA040025EA07010843304489
:10CA500002990844E249084442EAD030C61906EA7D
:10CA6000070024EA0601084328440399084440F2D9
:10CA7000EE210844820506EA070024EA060108437D
:10CA8000284403990844D749084442EA902085196C
:10CA900005EA060027EA05010843204404990844F2
:10CAA000D1490844C20105EA060027EA0501084306
:10CAB000204404990844CC49084442EA506044198F
:10CAC00004EA050026EA04010843384405990844AD
:10CAD000C6490844020304EA050026EA04010843A3
:10CAE000384405990844C149084442EA10500719DE
:10CAF00007EA040025EA0701084330440699084480
:10CB000044F213610844420407EA040025EA0701DD
:10CB10000843304406990844B549084442EAD030F5
:10CB2000C61906EA070024EA0601084328440799C3
:10CB3000084440F201110844820506EA070024EA8D
:10CB400006010843284407990844AA49084442EAD0
:10CB50009020851905EA060027EA050108432044CC
:10CB600008990844A4490844C20105EA060027EAD6
:10CB7000050108432044089908449F49084442EAB3
:10CB80005060441904EA050026EA040108433844C9
:10CB90000999084499490844020304EA050026EA71
:10CBA000040108433844099908449449084442EA76
:10CBB0001050071907EA040025EA0701084330442A
:10CBC0000A990844A0F524404F38420407EA0400BB
:10CBD00025EA0701084330440A990844A0F5244097
:10CBE0004F3842EAD030C61906EA070024EA0601A7
:10CBF000084328440B99084440F2BE31084482059A
:10CC000006EA070024EA0601084328440B99084471
:10CC10007B49084442EA9020851905EA060027EA84
:10CC20000501084320440C99084476490844C20190
:10CC300005EA060027EA0501084320440C99084448
:10CC40007049084442EA5060441904EA050026EAA3
:10CC50000401084338440D9908446B490844020311
:10CC600004EA050026EA0401084338440D99084403
:10CC70006549084442EA1050071907EA040025EA0A
:10CC80000701084330440E99084444F28E310844A9
:10CC9000420407EA040025EA0701084330440E99DC
:10CCA00008445A49084442EAD030C61906EA070047
:10CCB00024EA0601084328440F99084421308205DC
:10CCC00006EA070024EA0601084328440F990844AD
:10CCD0004F49084442EA9020851905EA070026EAF0
:10CCE000070108432044019908444A490844420185
:10CCF00005EA070026EA0701084320440199084491
:10CD00004449084442EAD060441904EA060025EA8E
:10CD1000060108433844069908443F490844420242
:10CD200004EA060025EA0601084338440699084447
:10CD30003949084442EAD050071907EA050024EAB5
:10CD40000501084330440B990844344908448203E0
:10CD500007EA050024EA0501084330440B9908441A
:10CD60002E49084442EA9040C61906EA040027EA20
:10CD70000401084328440099084440F2AA71084479
:10CD8000020506EA040027EA040108432844009942
:10CD900008442349084442EA1030851905EA07008F
:10CDA00026EA070108432044059908441D49084420
:10CDB000420105EA070026EA0701084320440599D5
:10CDC00008441849084442EAD060441904EA0600BD
:10CDD00025EA0601084327E078A46AD756B7C7E8D2
:10CDE000DB702024EECEBDC1AF0F7CF52AC687478D
:10CDF000134630A8019546FDD8988069AFF7448B5B
:10CE0000BED75C892211906B937198FD8E4379A6F1
:10CE10002108B44962251EF640B340C0515A5E262F
:10CE2000AAC7B6E95D102FD638440A990844FE49CE
:10CE30000844420204EA060025EA06010843384491
:10CE40000A990844F849084442EAD050071907EA09
:10CE5000050024EA0501084330440F990844F349CA
:10CE60000844820307EA050024EA05010843304428
:10CE70000F990844ED49084442EA9040C61906EA71
:10CE8000040027EA0401084328440499084440F6B2
:10CE9000C8310844020506EA040027EA04010843F1
:10CEA000284404990844E249084442EA10308519AC
:10CEB00005EA070026EA07010843204409990844C7
:10CEC000DC490844420105EA070026EA0701084355
:10CED000204409990844D749084442EAD0604419DB
:10CEE00004EA060025EA0601084338440E9908447E
:10CEF000D1490844420204EA060025EA0601084333
:10CF000038440E990844CC49084442EAD0500719E5
:10CF100007EA050024EA0501084330440399084460
:10CF2000C6490844820307EA050024EA05010843CC
:10CF3000304403990844C149084442EA9040C61964
:10CF400006EA040027EA0401084328440899084433
:10CF500040F2ED410844020506EA040027EA040114
:10CF60000843284408990844B549084442EA103067
:10CF7000851905EA070026EA0701084320440D99B0
:10CF80000844B0490844420105EA070026EA0701BF
:10CF9000084320440D990844AA49084442EAD06055
:10CFA000441904EA060025EA0601084338440299B8
:10CFB0000844A5490844420204EA060025EA06019D
:10CFC00008433844029908449F49084442EAD05033
:10CFD000071907EA050024EA0501084330440799C8
:10CFE00008449A490844820307EA050024EA050137
:10CFF00008433044079908449449084442EA904061
:10D00000C61906EA040027EA0401084328440C99DB
:10D01000084440F68A410844020506EA040027EA6B
:10D020000401084328440C9908448949084442EA09
:10D030001030851985EA0600784020440599084497
:10D0400084490844010185EA060078402044059A95
:10D050001044804A104441EA1070441984EA0500E3
:10D0600070403844089908447B490844C10284EA66
:10D07000050070403844089A1044774A104441EA49
:10D080005050071987EA0400684030440B9908445F
:10D0900046F222110844010487EA04006840304443
:10D0A0000B9A10446D4A104441EA1040C61986EAB2
:10D0B0000700604028440E9908440C30C10586EAF8
:10D0C0000700604028440E9A1044654A104441EA23
:10D0D0005020851985EA06007840204401990844CB
:10D0E00060490844010185EA060078402044019A1D
:10D0F00010445C4A104441EA1070441984EA050067
:10D10000704038440499084457490844C10284EAED
:10D11000050070403844049A1044534A104441EAD0
:10D120005050071987EA04006840304407990844C2
:10D1300044F660310844010487EA04006840304442
:10D14000079A1044494A104441EA1040C61986EA39
:10D150000700604028440A9908447030C10586EAF7
:10D160000700604028440A9A1044414A104441EAAA
:10D170005020851985EA0600784020440D9908441E
:10D180003C490844010185EA0600784020440D9A94
:10D190001044384A104441EA1070441984EA0500EA
:10D1A000704038440099084433490844C10284EA75
:10D1B000050070403844009A10442F4A104441EA58
:10D1C0005050071987EA0400684030440399084426
:10D1D00043F285010844010487EA040068403044B2
:10D1E000039A1044254A104441EA1040C61986EAC1
:10D1F0000700604028440699084440F2051108449D
:10D20000C10586EA070060402844069A10441C4A7B
:10D21000104441EA5020851985EA060078402044F0
:10D220000999084417492FE05314440281E6A1D814
:10D23000C8FBD3E7E6CDE121D60737C3870DD5F488
:10D24000ED145A4505E9E3A9F8A3EFFCD9026F678D
:10D250008A4C2A8D4239FAFF81F6718722619D6DD1
:10D260000C38E5FD44EABEA4A9CFDE4B604BBBF60B
:10D2700070BCBFBEC67E9B28FA27A1EA8530EFD4DA
:10D28000051D880439D0D4D90844010185EA060077
:10D2900078402044099A1044CD4A104441EA107065
:10D2A000441984EA0500704038440C990844C9497F
:10D2B0000844C10284EA0500704038440C9A1044C6
:10D2C000C44A104441EA5050071987EA04006840F4
:10D2D00030440F99084447F6F8410844010487EAAE
:10D2E0000400684030440F9A1044BB4A104441EA9D
:10D2F0001040C61986EA0700604028440299084495
:10D300006530C10586EA070060402844029A10444F
:10D31000B24A104441EA5020851965EA070070407E
:10D32000204400990844AE490844810165EA070099
:10D3300070402044009A1044A94A104441EA906089
:10D34000441964EA06006840384407990844A5492E
:10D350000844810264EA060068403844079A104491
:10D36000A04A104441EA9050071967EA050060405E
:10D3700030440E99084442F2A7310844C10367EAD9
:10D380000500604030440E9A1044974A104441EA28
:10D390005040C61966EA04007840284405990844BC
:10D3A0003930410566EA040078402844059A104463
:10D3B0008E4A104441EAD020851965EA0700704082
:10D3C00020440C9908448A490844810165EA070011
:10D3D000704020440C9A1044854A104441EA906001
:10D3E000441964EA060068403844039908448149B6
:10D3F0000844810264EA060068403844039A1044F5
:10D400007C4A104441EA9050071967EA05006040E1
:10D4100030440A99084478490844C10367EA050082
:10D42000604030440A9A1044734A104441EA504024
:10D43000C61966EA0400784028440199084440F27D
:10D44000D1510844410566EA040078402844019A15
:10D4500010446A4A104441EAD020851965EA070061
:10D46000704020440899084465490844810165EAF0
:10D47000070070402044089A1044614A104441EA71
:10D480009060441964EA0600684038440F990844E3
:10D490005C490844810264EA0600684038440F9AF7
:10D4A0001044584A104441EA9050071967EA0500B1
:10D4B000604030440699084453490844C10367EA70
:10D4C000050060403044069A10444F4A104441EA37
:10D4D0005040C61966EA0400784028440D99084473
:10D4E00040F2A1110844410566EA0400784028444E
:10D4F0000D9A1044454A104441EAD020851965EA46
:10D5000007007040204404990844414908448101BF
:10D5100065EA070070402044049A10443C4A1044D5
:10D5200041EA9060441964EA0600684038440B9967
:10D53000084438490844810264EA060068403844D7
:10D540000B9A1044334A104441EA9050071967EA95
:10D55000050060403044029908442F490844C10343
:10D5600067EA050060403044029A10442A4A104499
:10D5700041EA5040C61966EA0400784028440999F7
:10D58000084440F291310844410566EA04007840BD
:10D590002844099A1044214A104441EAD0208519B0
:10D5A000D8F800002044C8F80000D8F80400284447
:10D5B000C8F80400D8F808003044C8F80800D8F8C3
:10D5C0000C003844C8F80C0040B0BDE8F0830000FF
:10D5D00039D0D4D9E599DBE6F87CA21F6556ACC4F6
:10D5E000442229F497FF2A43A72394AB39A093FC44
:10D5F000C3595B6592CC0C8F7DF4EFFFD15D8485C0
:10D600004F7EA86FE0E62CFE144301A3A111084E43
:10D61000827E53F735F23ABDBBD2D72A91D386EB3F
:10D620002DE9F04704460F4615460026B046B146A0
:10D630002088C0F3C508C8F14009206800EBC50088
:10D6400020602068B0EBC50F02D26068401C6060AB
:10D65000606800EB557060604D451CD304F1180103
:10D6600001EB08004A463946FBF725F904F1180199
:10D6700004F10800FFF798F94E4605E0B91904F1E6
:10D680000800FFF791F9403606F14000A842F5D9AD
:10D690004FF0000800E00026AA1BB91904F1180396
:10D6A00003EB0800FBF707F9BDE8F08700BFFEE7D2
:10D6B000704770B504460025D4F8205194F9040051
:10D6C00001220021FEF7A4F894F90400FEF790F877
:10D6D000688B00F4006048B194F9100001221146F3
:10D6E000FEF796F894F91000FEF782F8688B00F4C4
:10D6F000007048B194F9110000220121FEF788F86A
:10D7000094F91100FEF774F870BD0146086870477F
:10D71000704700002DE9F04107460025002400264F
:10D72000A0460B2200213C4805F091FF3B480078C1
:10D73000B04202DA3948067003E0384800783749C9
:10D740000870364806783648007808B94FF0000867
:10D7500033480078012801D14FF0AA0830480078FA
:10D76000022801D14FF05508AB222046611CCCB2F3
:10D7700029490A5400222046611CCCB226490A5489
:10D780000B222046611CCCB223490A5401222046B8
:10D79000611CCCB220490A5400222046611CCCB244
:10D7A0001D490A5401222046611CCCB21A490A5470
:10D7B0000A222046611CCCB217490A542046611C3B
:10D7C000CCB215490A54154802782046611CCCB2E7
:10D7D00011490A542046611CCCB20F4901F800805F
:10D7E000002005E00C49095C2944CDB2411CC8B2B7
:10D7F000A042F7DB2046611CCCB207490D542346FA
:10D800000A460021384604F067FEA04202D005A077
:10D8100005F0E4FCBDE8F081FE0F00200D000020C3
:10D82000160000205B5557425D2073656E642062D0
:10D830006173652064617461207265616420636D49
:10D8400064206661696C65640D0A0000014981F815
:10D85000560070470C40002010B505F031FCFDF774
:10D8600067FF08F0DFF805F043FC10BD10B592B07B
:10D87000002400BF002000901E48006840F0805047
:10D880001C4908600846006800F08050009000BF06
:10D8900000BF0920019001200690000402900220A0
:10D8A000079041050891082109914FF4A8710A9148
:10D8B00004210B9107210C9101A8FEF73BF90446C6
:10D8C0000CB100BFFEE70F200D9002200E9000204B
:10D8D0000F904FF4A05010904FF4805011900221FF
:10D8E0000DA8FDF7E7FF04460CB100BFFEE712B03C
:10D8F00010BD0000403802401348006840F470003A
:10D90000114908601148006840F001000F490860A3
:10D9100000200E49083108600C4800680C49084096
:10D920000A4908600B48091D0860081F006820F4B8
:10D930008020091F0860002004490C310860064857
:10D94000014980390860704788ED00E000380240E6
:10D95000FFFFF6FE103000240080000810B505F02F
:10D96000AFFB11480068006900F00100C8B10E4823
:10D970000068C06800F0010070B10C4800680C49F4
:10D9800008600C48D0E900204CF25033D21840F126
:10D9900000000849C1E900206FF001000249096850
:10D9A000086105F0A5FB10BD747D0020240800402F
:10D9B000700500206805002070B50546AC6B00209E
:10D9C000E085E0842046FEF71EFB70BD70B506467C
:10D9D0000025B46B20684069C0F3C01594F83D0081
:10D9E000212805D125B10020E084204600F0F7F879
:10D9F00020684069C0F3801594F83E00222805D1C4
:10DA000025B10020E085204600F0A3F8206C40F00E
:10DA1000100020642046FEF7F6FA70BD70B505468A
:10DA2000AC6B2868006800F48070002842D1E08563
:10DA300000BF00BF21680C3151E8001F21F4807045
:10DA400021680C3141E80002002AF3D100BF00BF79
:10DA500000BF2168143151E8001F21F00100216846
:10DA6000143141E80002002AF3D100BF00BF00BF1B
:10DA70002168143151E8001F21F040002168143161
:10DA800041E80002002AF3D100BF202084F83E00C4
:10DA9000206B01280ED100BF00BF21680C3151E876
:10DAA000001F21F0100021680C3141E80002002A1B
:10DAB000F3D100BF206B012804D1A18D2046FEF7D1
:10DAC000A1FA02E02046FEF77BFD70BD70B5054669
:10DAD000AC6B206B012805D1A08D41082046FEF7D4
