:020000040800F2
:10000000F80F002031030008C73C00084D04000829
:10001000C33C00089D210008B54400080000000012
:10002000000000000000000000000000C93C0008C3
:100030003B230008000000009B030008CB3C0008A5
:100040004B0300084B0300084B0300084B03000858
:100050004B0300084B0300083D2300088B230008D6
:100060009D230008AF230008C12300084B030008AC
:100070004B0300084B0300084B0300084B03000828
:10008000A1210008B92100084B030008000000006E
:10009000000000000000000000000000D323000862
:1000A0004B0300084B0300084B0300084B030008F8
:1000B0004B0300084B0300084B0300084B030008E8
:1000C0004B0300084B0300084B0300084B030008D8
:1000D0004B0300086D440008854400080000000040
:1000E0004F2300084B0300084B03000800000000EA
:1000F0000000000000000000000000004B030008AA
:10010000000000004B0300084B0300084B030008ED
:1001100000000000000000000000000000000000DF
:100120004B030008D1210008E92100084B03000817
:100130004B03000800000000000000000000000069
:100140000000000000000000000000004B03000859
:100150004B03000801220008192200089D440008F2
:100160004B0300084B0300080000000000000000E3
:10017000000000000000000000000000000000007F
:10018000000000004B030008000000000000000019
:100190004B03000800F002F800F0B2F80AA090E863
:1001A000000C82448344AAF10107DA4501D100F032
:1001B000A7F8AFF2090EBAE80F0013F0010F18BF4D
:1001C000FB1A43F0010318471CF600003CF6000040
:1001D0000A444FF0000C10F8013B13F0070408BF6D
:1001E00010F8014B1D1108BF10F8015B641E05D00B
:1001F00010F8016B641E01F8016BF9D113F0080FC0
:100200001EBF10F8014BAD1C0C1B09D16D1E58BF51
:1002100001F801CBFAD505E014F8016B01F8016B88
:100220006D1EF9D59142D6D37047000000230024FB
:1002300000250026103A28BF78C1FBD8520728BFF6
:1002400030C148BF0B6070476E2900F0B983702938
:1002500000F0038566290DF0348765290DF031879C
:1002600067290DF02E8761290DF02D8703681B0A81
:1002700028BF41F08001692900F06683642900F0FD
:100280006383752900F060836F2900F090847829DA
:1002900000F0CF84E92900F02B84E42900F02884C1
:1002A000F52900F02584EF2900F08D84F82900F06D
:1002B000CE840368DB0928BF41F08001632901F087
:1002C0002582732901F02A82E32901F03582F3297E
:1002D00001F03A82002070471FB50DF0EDFE01F0ED
:1002E00085FA0400002000210DF0D0FE401C606063
:1002F000002000210DF0B4FEE0601FBD10B510BD60
:1003000001F046FA1146FFF7E7FF01F042FF01F066
:1003100023FB03B4FFF7F2FF03BC01F06BFB00000B
:10032000002804D090FAA0F0B0FA80F0401C70478A
:100330000948804709480047FEE7FEE7FEE7FEE779
:10034000FEE7FEE7FEE7FEE7FEE7FEE704480549B5
:10035000034A054B70470000BD3D000895010008A9
:10036000F80B0020F80F0020F80B0020EFF31080AE
:1003700072B6704780F310887047424A1368012BA9
:1003800004D04FF0010313603F4A10603F4A1160F0
:100390003F484FF0805101607047EFF3108272B612
:1003A0003848016851B34FF00001016036480168D8
:1003B00091B1EFF309811EF0100F08BF21ED108BF2
:1003C00021E9F00F4FF000041EF0100F08BF0124C8
:1003D00041F8044D006801602C490968096808C9A2
:1003E000B1E8F00F002B18BFB1EC108B81F3098836
:1003F0004EF0100E002B18BF2EF0100E82F3108856
:100400004EF0040E704721490860EFF3148222F089
:10041000040282F314881C494FF000000860194957
:100420004FF0010008601B481B49D0F8002041EA4A
:100430000201016016484FF08051016017480068C2
:10044000006880F3088861B662B670471EF0040F3A
:100450000CBFEFF30880EFF3098020E9F00F40F8BC
:1004600004ED40F804ED1EF0040F0CBF80F3088883
:1004700080F3098800B508F0D3FD5DF804EB4EF079
:10048000040E704790010020880100208C0100209C
:1004900004ED00E020ED00E00000FFFF08ED00E0CB
:1004A00053EA020C00F069802DE9F04B4FF0000692
:1004B000002B1FBFB3FA83F503FA05F424FA05F6FF
:1004C0005E4012BF1643B2FA82F502FA05F4C5F196
:1004D00020051EBF22FA05FC44EA0C04203556EA2A
:1004E000044C4FEA144418BF641C4FF000084FF04E
:1004F0000009904271EB030C39D3002919BFB1FAFE
:1005000081F701FA07F6B0FA80F700FA07F6C7F1AB
:1005100020071EBF20FA07FC46EA0C062037B6FB70
:10052000F4FCA7EB0507103F07F01F0BCBF12006EB
:100530000CFA0BFB2CFA06F644BFB3460026202F1C
:10054000A4BF5E464FF0000B5BEA060C08BF4FF0FD
:10055000010B19EB0B09ABFB027C48EB0608C01B37
:1005600006FB02CC0BFB03CC71EB0C01C1E70B4685
:10057000024641464846BDE8F08B13B54FF00000F7
:100580004FF00001AFF30080BDE81C407047000051
:100590007CB51D4616460C00009001D02044401E3C
:1005A000074B7B442A4669460190304600F021FA09
:1005B00005461CB10020694600F02EFA28467CBD95
:1005C0007D04000040EA010310B59B070FD1042A07
:1005D0000DD310C808C9121F9C42F8D020BA19BA0E
:1005E000884201D9012010BD4FF0FF3010BD1AB173
:1005F000D30703D0521C07E0002010BD10F8013BC8
:1006000011F8014B1B1B07D110F8013B11F8014BEE
:100610001B1B01D1921EF1D1184610BD40EA010307
:10062000024630B59B0710D14FF0013400E008C2FC
:1006300008C91D1B9D4315EAC41FF8D013F0FF0124
:1006400002F8011B0DD01B0AF8E711F8013B002B43
:1006500002F8013B05D011F8013B002B02F8013BE9
:10066000F3D130BD10B5431C02E010F8011B71B18D
:100670008107FAD14FF0013202C88C1A8C4314EA78
:10068000C211F9D0C01A0A0603D0C01E10BDC01A8C
:1006900010BD0A0401D0801E10BD0902FCD0401E0E
:1006A00010BD40EA010370B59B072ED14FF0013613
:1006B000042A2AD308C810C99D1B9D43121F15EA9E
:1006C000C61517D0D8B2E1B2401A50EA056110D170
:1006D00098B2A1B2401A50EA05410AD123F07F40F6
:1006E00024F07F41401A50EA052102D1180EA0EBF8
:1006F000146070BDA342DBD018BA21BA884201D978
:10070000012070BD4FF0FF3070BD0AB9002070BDF0
:1007100010F8013B11F8014B63B1A3420AD1521EFC
:1007200008D010F8013B11F8014B1BB1A34201D1D5
:10073000521EEDD1181B70BD421E12F8013F002B56
:10074000FBD111F8013B002B02F8013BF9D17047B6
:10075000032A40F2308010F0030C00F0158011F8ED
:10076000013BBCF1020F624498BF11F801CB00F8C5
:10077000013B38BF11F8013BA2F1040298BF00F819
:1007800001CB38BF00F8013B11F0030300F03483C4
:10079000083AC0F0088051F8043B083A51F804CBFD
:1007A000A0E80810F5E7121D5CBF51F8043B40F8C3
:1007B000043BAFF30080D20724BF11F8013B11F8CE
:1007C00001CB48BF11F8012B24BF00F8013B00F812
:1007D00001CB48BF00F8012B70474FF0000200B575
:1007E000134694469646203922BFA0E80C50A0E854
:1007F0000C50B1F12001BFF4F7AF090728BFA0E802
:100800000C5048BF0CC05DF804EB890028BF40F8CD
:10081000042B08BF704748BF20F8022B11F0804F0F
:1008200018BF00F8012B704710B5044610F0030FF5
:1008300008BF11F0030F40F015804FF0013E121F6A
:10084000C0F20E8051F8043BA3EB0E0C2CEA030C13
:100850001CEACE1C08BF40F8043BF0D0A1F1040113
:1008600002F10402521E08DB11F8013B002B00F8D4
:10087000013BF7D1114600F0F1FA204610BD704758
:100880007047704770B5044685690068C10601D598
:10089000302600E02026C00707D070BDD4E9012132
:1008A00030469047206A401C20626D1EF6D570BD10
:1008B00070B5044685690078C00707D170BDD4E9DA
:1008C000012120209047206A401C20626D1EF6D531
:1008D00070BD09684A0501D540B27047C905FCD50D
:1008E00000B2704709684A0501D5C0B27047C90512
:1008F000FCD580B2704770B50C460546012A05D07C
:100900002878800600D5EA69002302E0012305E08B
:100910005B1C934202D2E05C0028F9D1A869E6187A
:10092000C01AA861286A184428622846FFF7AAFF5F
:1009300004E0D5E9012114F8010B9047B442F8D343
:100940002846FFF7B5FF70BD2DE9F04106460024AB
:1009500010687529314616A510D0FFF7BAFF002898
:1009600002DA404213A507E031688A0701D512A5D3
:1009700002E0490704D511A5012401E0FFF7B2FF09
:1009800000210A2206F1240709E0B0FBF2FCB0FBCB
:10099000F2F302FB1C00303078541846491C002842
:1009A000F3D123462A463046BDE8F04100F0BDBAF7
:1009B000000000002D0000002B00000020000000BF
:1009C00011680268006A530501D508700AE0D30572
:1009D00001D5088006E0130603D5C217C1E900025D
:1009E00000E008600120704701694A1C0261087834
:1009F000704700B58FB0CDE901310021059105495F
:100A00007944CDE903101146684600F031F90FB082
:100A100000BD0000E5FFFFFF0A6802F8010B0A6055
:100A20007047D1E900239A4202D2531C0B60107028
:100A3000704700002DE9FF5F15468A460446DFF83F
:100A4000AC80F8440027D8E900103E46CDE90010FC
:100A500010E03AF816106A4602A800F079FE411C30
:100A600007D02178890603D5E269391891420DD85B
:100A70000744761C2078800602D5E069B84205DD7F
:100A8000AE42E6DB3AF816000028E2D1A069C01BAE
:100A9000A0612046FFF7F6FED8E90010CDE900106E
:100AA000002017E03AF818106A4602A800F050FE3D
:100AB000B0F1FF3F81460BD000250DF1080B05E09A
:100AC000D4E901211BF8050090476D1C4D45F7D373
:100AD00008F10100B0428046E4DB206A384420621D
:100AE0002046FFF7E5FEBDE8FF9F0000B2E20000F0
:100AF0002DE9F0418046D21D22F007020025D2E9FF
:100B00000002F52915A614D0011E72F1000106DAC3
:100B10000023D0EB030063EB020211A608E0D8F833
:100B200000108B0701D50FA602E0490701D50EA6DC
:100B300001251146002408F1240704E000F0B0F973
:100B400030323A55641C50EA0102F7D12B46324646
:100B500021464046BDE8F04100F0E7B90000000042
:100B60002D0000002B0000002000000030B4002108
:100B700000F1240408E002F00705D208303542EA0B
:100B80004372DB086554491C52EA0305F3D104683B
:100B9000002310A2250707D5A40600D421B1C469FB
:100BA00001230DA2641EC46130BC00F0BEB910B5B3
:100BB000044621461068FFF795FE02462046BDE830
:100BC00010400023D2E7D21D22F00701D1E9002313
:100BD000CCE700000000000030000000F0B40D463B
:100BE0000188090502D5214C7C4402E01F4C7C445D
:100BF0000E34002100F1240608E002F00F0712096C
:100C0000E75D42EA03721B097754491C52EA030765
:100C1000F3D102780023120704D5702D06D009B154
:100C2000022311342246F0BC00F07FB901231034B6
:100C3000F8E770B504460D4621461068FFF752FEEE
:100C4000024629462046BDE870400023C6E7D21D73
:100C500022F00703D3E90023C0E70368126843F0DA
:100C6000200303600823C3610023B7E714E10000F9
:100C70002DE9F05F894604464FF0000ADFF874B1B1
:100C8000FB44C0F820A02046E1688847002874D0C3
:100C9000252806D0D4E901219047206A401C206213
:100CA000F1E700265F462046E16888472028054690
:100CB00007DB312D05D2781910F8200C08B1064356
:100CC000F1E7B00701D526F00406C4F81CA0002700
:100CD000C4F818A02A2D09D0284603F00DFD38B31A
:100CE00004EB8708303DC8F8185019E059F8041B88
:100CF000204604EB87029161E1688847012F054691
:100D000018D1E069002820DA26F020061DE0D8F886
:100D1000180000EB800005EB40003038C8F81800E0
:100D20002046E1688847054603F0E6FC0028EED13E
:100D3000012F0AD02E2D08D12046E16888477F1C5C
:100D40000546022F46F02006C4DBA069002803DA1E
:100D5000404246F00106A061F00701D026F01006DF
:100D60006C2D0BD0682D09D04C2D39D06A2D35D083
:100D7000742D35D07A2D33D016E038E0E1682F4657
:100D800020468847B842054609D16C2F26D04FF43B
:100D90008060E168064320468847054604E06C2FE2
:100DA0001AD04FF4807006430DB3A5F14100192805
:100DB00002D8203546F400664A4629462046266079
:100DC0004E46FFF741FA80B101280BD0F61D26F000
:100DD000070000F1080956E74020E4E78020D8E743
:100DE0000020D6E706F104094DE7284652E7206ABD
:100DF000BDE8F09FA4E0000010B5203AC0F00B80E1
:100E0000B1E81850203AA0E81850B1E81850A0E80E
:100E10001850BFF4F5AF5FEA027C24BFB1E8185068
:100E2000A0E8185044BF18C918C0BDE810405FEAD8
:100E3000827C24BF51F8043B40F8043B08BF704754
:100E4000D20728BF31F8023B48BF11F8012B28BF59
:100E500020F8023B48BF00F8012B70474FF000021A
:100E60000429C0F0128010F0030C3FF4B8ACCCF1B0
:100E7000040CBCF1020F18BF00F8012BA8BF20F82A
:100E8000022BA1EB0C01FFF7AABC5FEAC17C24BFD7
:100E900000F8012B00F8012B48BF00F8012B704728
:100EA00030B5B0F10A024FEA900E71F100034EEA3C
:100EB000817EB0EB0E0061EB91014FEA101E4EEA0D
:100EC000017E10EB0E0041EB11114FEA102E4EEA9D
:100ED000016E10EB0E0041EB11214FEA104E4EEA6D
:100EE000014E10EB0E0041EB1141401841F10001A1
:100EF0004FEAD00040EA41704FEAD10110EB800583
:100F00004FEA810444EA907444EB01046D1944EB08
:100F10000404521BA3414FF0000348BF0A3200D51E
:100F200030BD401C41F1000130BD2DE9F0470D46B8
:100F300099469246044600F124080168880604D5C3
:100F4000E06921F01001216000E00120A84201DDEC
:100F5000471B00E00027A1697A1902EB0900081A73
:100F6000A0612078C00602D42046FFF78BFC002643
:100F700008E0D4E901211AF806009047206A401CD5
:100F8000761C20624E45F4DB2078C0060AD5204648
:100F9000FFF778FC06E0D4E9012130209047206A71
:100FA000401C2062381EA7F10107F4DC07E0D4E9F9
:100FB000012118F805009047206A401C2062281E75
:100FC000A5F10105F3DC2046FFF772FC207800064E
:100FD00002D50220BDE8F0870120FBE770472DE92C
:100FE000FF4F0C461E464FF0FF378BB0D2E9000191
:100FF000DDF860800A908A46C1F30A5505B93D467E
:10100000002108464FF00000BAF1000F00F4400044
:1010100005DA00EB80004FF4400101EA50004FEA8E
:101020009059B9F1010F00DDB9460A9850EA4A001B
:101030000ED044F61050A5F2FF3545432F14B8F1F9
:10104000000F1ED07542291E1EDDC9F100021CE0F2
:10105000B8F1010F4FF0000001D0302103E0F2435E
:1010600005E02154401CB042FBDB30460022002149
:1010700021540B99C1F80880C1E900200FB0BDE8E8
:10108000F08FBD1B6D1CDEE74A4600DA694206A8F8
:1010900000F0F0FB06AB93E8070003AB83E8070022
:1010A00050460A9900F0ADFC8DE80700A0F500500D
:1010B0001F3800900398002D0ADD42F21F014A46B6
:1010C0000844002303A90390684600F016FF09E0D6
:1010D000A0F500504A461F38002303A90390684634
:1010E00000F020FF8DE807000004000C03D04FF053
:1010F000FF30410800E01046B8F1000F03D0002295
:10110000009215461EE0751E05D4FFF7C9FE303269
:1011100062556D1EF9D5B3460122084302D0002264
:101120007F1C04E02078302801D100227F1E002A95
:10113000099784D01DE0112D07DAFFF7B1FE303298
:1011400062556D1C50EA0102F5D1084302D00098A7
:10115000C8B10EE00021681E05E0235C625C6354A8
:101160002254401E491C8142F7DBAB46A81B401E9F
:101170000990002004F80B000B98099AC0F8088029
:10118000C0E9002B7AE711264FF0000857E72DE958
:10119000F04F88460446D21D22F0070191B0D1E9F4
:1011A0000001CDE90A0103F0B3F902460B98C00F24
:1011B00001D02D2007E02068810701D52B2002E017
:1011C000202101EAC000032A099001D0072A05DB8B
:1011D00003464146204600F00DFB0BE120788006D7
:1011E00001D5E06900E00620B8F1650F814606D020
:1011F000B8F1660F18D0B8F1670F70D131E0002058
:10120000B9F1110F009001DB112301E009F1010395
:101210000AAA01A90CA8FFF7E2FEDDE90C7000267E
:1012200009F10105834647E001204B4600904FF04D
:1012300000470AAA01A90CA8FFF7D1FEDDE90DB00D
:101240000C995D46002610B909F101000D18B9EBA3
:10125000050003D4C0F1FF3609F10105A5EB090033
:101260002BE0B9F1010F01DA4FF001090020B9F1CB
:10127000110F0090484601DD112300E003460AAA41
:1012800001A90CA8FFF7ABFEDDE90C704D46002666
:101290008346207800070AD4AB4500DA5D4601A8F2
:1012A000012D04DD411911F8011C302907D04F45EB
:1012B00002DA17F1040F04DA012082460FE06D1EF6
:1012C000EEE7002F02DCED1B3E4403E0781CA84251
:1012D00000DD7D1CB81B00F1010A4FF000472078AB
:1012E000000703D4AA4501DB4FF0FF3A0021B7F114
:1012F000004F0DF143088DF8431024D002202B231A
:10130000002F01DA7F422D230A21021EA0F10100E5
:1013100000DC5FB197FBF1FC97FBF1F201FB1C7C59
:1013200017460CF1300C08F801CDEEE7A8F10100EA
:1013300003702188090501D5452100E06521A0F150
:10134000010800F8011C09980FA9A1EB0807FF1D6F
:1013500000B10120411901EBEA70A1693844081A73
:10136000401EA0612078C00602D42046FFF78AFA0A
:10137000099828B1D4E901219047206A401C2062D5
:101380002078C00622D52046FFF77CFA1EE0002E0A
:1013900004DBB34502DD01A8805D00E03020D4E924
:1013A00001219047206A401C2062761CAAF10100AE
:1013B0005FEA000A0AD100F019FAC0680168405CCF
:1013C000D4E901219047206A401C2062281EA5F123
:1013D0000105DCDC07E0D4E9012118F8010B904796
:1013E000206A401C2062381EA7F10107F3DC20466A
:1013F000FFF75EFA032011B041E600002DE9F04F3F
:1014000004460D46D21D22F0070089B0D0E90097AE
:101410004846394603F07CF80246F80F01D02D23E8
:1014200007E02068810701D52B2302E0202101EA93
:10143000C0038DF820300BB1012000E00020032A0A
:10144000824601D0072A04DB2946204600F0D2F963
:101450003FE12078800601D40D2500E0E569C7F35F
:101460000A560D2D49DA00214FEA175B08464FF066
:101470000000002F00F4400007DA00EB80004FF47A
:10148000400100EBD07001EA60008115012901DD07
:101490004FF0FF3100224FEA850CBCF1180F06D344
:1014A0001346ACF118004FF08052C24003E04FF4F5
:1014B000801323FA0CF30CF10C0CBCF1200F04D3B5
:1014C000ACF1200C09FA0CF001E007FA0CF000294D
:1014D0004FF0004801DD18B90FE00ED140450CD3A4
:1014E00019EB02095F4121B9404502D19F4329EA26
:1014F0000209BBEB175F00D0761C2088000502D5DF
:101500007B48784402E07A487844193808AA3023A6
:1015100002F80A30037C0AF10101002E0AF1020AE6
:1015200053546A4602DC4FF0300101E04FF03101C4
:101530004FF001088DF8001002D0A6F2FF3603E04C
:1015400059EA470100D06B4E002D02DC21780907D3
:1015500004D54FF002082E218DF80110C446002159
:101560000BE0C7F303433F01C35C491C6D1E02F847
:101570000830052908F1010801DA002DF1DC00210D
:101580000CE000EB1973491C1B786D1E082902F84A
:1015900008304FEA091908F1010801DA002DF0DCE2
:1015A00021688B0602D516E0A8F10108E04505DDAB
:1015B00002EB080313F8013C302BF5D0B8F1000F13
:1015C00009DD02EB080313F8013C2E2B03D10907B8
:1015D00001D4A8F10108002D05DD3E2102F8081014
:1015E0006D1E08F10108407C002E02F8080008F189
:1015F000010804DA2D20764202F8080002E02B20D0
:1016000002F808000A214FF47A70864208F10108B6
:101610000BDB96FBF0F3303302F8083096FBF0F367
:1016200008F1010800FB136601E0642E0CDB642066
:1016300096FBF0F3303302F8083096FBF0F308F134
:10164000010800FB136601E00A2E06DB96FBF1F0B1
:10165000303002F8080008F1010896FBF1F001FBB8
:101660001060303002F80800A16908F1010808EBA9
:10167000050202EB0A00081AA0612078C00602D415
:101680002046FFF7FFF8216A08AE01EB0A0020624E
:1016900004E0D4E9012116F8010B9047BAF1010AE0
:1016A000F7D22078C00602D52046FFF7EBF86E4649
:1016B00009E016F8010B3E280FD0D4E9012190472C
:1016C000206A401C2062B8F10108F2D22046FFF7E0
:1016D000EFF809B00320BDE8F08F206A28442062AB
:1016E00003E0D4E90121302090476D1EEBD3F8E7E9
:1016F00046D8000002FCFFFF10B5436913B1AFF3F9
:10170000008001E0FFF7F7F8012010BD127800F12A
:1017100024010A7000224A700122EDE711684FF09F
:10172000FF32E9E710B5436913B1AFF3008001E080
:10173000FFF780F9012010BD128800F12401828496
:101740000022C2840122EDE711684FF0FF32E9E781
:1017500070B516460C46054600F040F8036893F84D
:101760000101012806D0FF2C0FD8185D68B10120B7
:101770002C7070BDD3F807013246214603F20713DF
:1017800003442846BDE8704018474FF0FF3070BD55
:10179000754600F0EBF8AE4605006946534620F06A
:1017A0000700854618B020B5FEF7D0FDBDE8204003
:1017B0004FF000064FF000074FF000084FF0000B0D
:1017C00021F00701AC46ACE8C009ACE8C009ACE8C0
:1017D000C009ACE8C0098D467047000010B500F0A4
:1017E00005F8001D10BD00BFA5C8000000487047E7
:1017F000B80B00202DE9F0411F460446032601687E
:10180000072A01F4006004DB08B116A505E016A55F
:1018100003E008B115A500E015A521F01000206037
:10182000A069C01EA0610FB1401EA0612046FFF755
:1018300029F84FB1D4E9012138469047206A401C6D
:101840002062C01C206206E0206AFAE7D4E9012188
:1018500015F8010B9047761EF8D22046FFF728F8BE
:10186000BDE8F0814E414E006E616E00494E46006B
:10187000696E66002DE9F047814616468AB0354804
:1018800078440DC88DE80D0032487844801C03ACC4
:101890000DC884E80D0041F69B300844372190FBC9
:1018A000F1F290FBF1F5A5F1800501FB12041B3C60
:1018B00002D56442012000E00020DFF898A08046B5
:1018C0000027FA44AAF1BE0A0EE0E0070AD0324629
:1018D000684607EB470101230AEB810100F022FB78
:1018E0008DE8070064107F1C002CEED1194F7F4457
:1018F000AE3F19E0E80715D007EB04100DF1180A08
:1019000090E80E008AE80E00C068F04201D19819F4
:1019100008903246012306A903A800F003FB03AB9D
:1019200083E807006D10641C002DE3D14FF0010324
:1019300032466946B8F1000F03A802D000F0DDFA84
:1019400001E000F0EFFAC9E90001C9F808200AB087
:10195000BDE8F08758D5000010B50446AFF300800D
:101960002046BDE81040FEF7D4BC00000048704798
:10197000980B00204FF0013C50F8042B51F8043B29
:101980009A4221D1A2EB0C03934313EACC1317D153
:1019900050F8042B51F8043B9A4215D1A2EB0C03EA
:1019A000934313EACC130BD150F8042B51F8043BAA
:1019B0009A4209D1A2EB0C03934313EACC13DBD078
:1019C0004FF00000704700BFD01A01BAB1FA81F1A0
:1019D00001F0180122FA01F0CB40C1F12001DBB285
:1019E000C0B2C01A2CFA01F3D11A914311EAC31103
:1019F000E6D1704701491820ABBEFEE72600020081
:101A000070475FEA400C08BF91F0000F4FEA8C234B
:101A10004FEAC12243EA51514FEA1C5018BF00F56A
:101A2000F0404FEA300018BF41F000415FEA6C5CC3
:101A300000F02980BCF1FF3F08BF40F080407047B4
:101A4000130C06BF12044FF0100C4FF0000C130ED5
:101A500004BF12020CF1080C130F04BF12010CF1A9
:101A6000040C930F04BF92000CF1020CD30F04BFBF
:101A700052000CF1010C11464FF00002A0F11F00C2
:101A8000A0EB0C00704711F0004F08BF704731F019
:101A900000413FF4D5AF0B0C06BF09044FF0100C0A
:101AA0004FF0000C0B0E04BF09020CF1080C0B0FD9
:101AB00004BF09010CF1040C8B0F04BF89000CF169
:101AC000020CCB0F04BF49000CF1010CCCF1200338
:101AD000A0EB0C0022FA03F302FA0CF241EA030134
:101AE00000F10100704720F07F4C80EA030023F0F2
:101AF0007F47ACEB070303F57C5300F0004003F194
:101B0000FF032DE980494FEA154B09B44FEA14430E
:101B100025EA0B4E24EA03480FF2042606EB1327AE
:101B200049083E785FEA320203FB0667C7F5000703
:101B300007FB06F64FEA54374FEAD64606F102068F
:101B400007FB066CCCF1005C4FEA1C472CEA074C03
:101B500007FB06F40CFB06F504EB15464FEA961658
:101B600034BF00204FF000404FEAD13706FB07FC9E
:101B70004FEA1C4C0CFB0BF7D21B03FB0CF761EB81
:101B800007010CFB0EF7B0EB074072EB17420CFBA2
:101B900008F734BFA2EB0742B2EB074261EB1741F3
:101BA0004FEA0C444FEA910706FB07FC4FEA1C4C36
:101BB0000CFB0BF7B0EBC74072EB573203FB0CF793
:101BC00034BFA2EBC742B2EBC74261EB57310CFB0B
:101BD0000EF7B0EBC70072EB57720CFB08F734BF7F
:101BE000A2EBC702B2EBC70261EB5771039F4FEA4A
:101BF000816141EA921104EBCC044FEAD1374FEAFC
:101C0000826206FB07FC42EA90124FEA80604FEACC
:101C10001C4C0CFB0BF7D21B03FB0CF761EB070111
:101C20000CFB0EF7B0EB074072EB17420CFB08F70A
:101C300034BFA2EB0742B2EB074261EB17414FEA18
:101C40008C554FEA910704EB9C2406FB07FC4FEAF6
:101C50001C4C0CFB0BF7B0EBC74072EB573203FB8D
:101C60000CF734BFA2EBC742B2EBC74261EB57316E
:101C70000CFB0EF7B0EBC70072EB57720CFB08F7CA
:101C800034BFA2EBC702B2EBC70261EB577115EB91
:101C90004C254FEA816141EA92114FEA82624FEA94
:101CA000D13742EA901206FB07FC44F100044FEAE8
:101CB00080604FEA1C4C0CFB0BF7D21B03FB0CF7AC
:101CC00061EB07010CFB0EF7B0EB074072EB17421C
:101CD0000CFB08F734BFA2EB0742B2EB074261EB03
:101CE000174115EB1C154FEA813141EA92414FEA49
:101CF000823242EA90424FEA80304FEA0C7644F159
:101D0000000448EA03434EEA0B484FF0000EB2EBE2
:101D1000080C71EB030724BF624639464EEB0E0EEA
:101D20004FF0000B0018524149414BEB0B0BB2EB4B
:101D3000080C71EB03077BF1000B24BF62463946A8
:101D40004EEB0E0E4FF0000B0018524149414BEB89
:101D50000B0BB2EB080C71EB03077BF1000B24BFFC
:101D6000624639464EEB0E0E51EA020718BF46F0A6
:101D7000010616EB0E7655F1000254F1000103D571
:101D8000BDE88901BDE80088BDE88901BDE80048DB
:101D9000B619524141EB0101A3F101037047808064
:101DA0007F7E7D7C7B7A79787776767574737271B5
:101DB00071706F6E6E6D6C6C6B6A6A69686867666D
:101DC00066656464636362616160605F5F5E5E5DFF
:101DD0005D5C5C5B5B5A5A59595858575756565573
:101DE00055555454535352525251515050504F4FD5
:101DF0004F4E4E4D4D4D4C4C4C4B4B4B4A4A4A4925
:101E00004949484848474747474646464545454467
:101E10004444444343434342424242414141002BF4
:101E20009C4630D477002BD01CB54FEA370703B45B
:101E30004FF010004FF01001BAF1000F06D0BCF1C6
:101E4000000FDCBF40F0080040F008014FF0000038
:101E50000FBCBDE810400BF1010BBBF1010F08BF37
:101E60005FEA170722BF12F1010211F101014FF0E1
:101E7000004143F1000300F0004043EA00007047D6
:101E8000F9D35708D0E746EA064613F1400F4FEA68
:101E900016461FDD13F1200FDFBF16430A4600214F
:101EA00020335B42BED0C3F1200746EA064602FA61
:101EB00007F74FEA164646EA0706C3F1200722FA5B
:101EC00003F201FA07F721FA03F14FF0000342EAA7
:101ED0000702A7E746EA020646EA06464FEA164622
:101EE00046EA0106BCBF46EA0646360C4FF0000340
:101EF0004FF000024FF0000194E72DE9804C9A4624
:101F0000934670B491E8380007C831EA400C48BFE6
:101F100034EA430C03D5FFF7E6FDFFF780FFF0BC82
:101F2000BDE8008C2DE9804C9A46934670B491E848
:101F3000380007C810F0804F08BF13F0804F03D15E
:101F400000F005F8FFF76BFFF0BCBDE8008C20F057
:101F50007F4780EA030023F07F4C07EB0C03A3F5D7
:101F60007C5300F00040A3F1FE0392F0000F00F05C
:101F7000B38095F0000F00F077802DE901494FEA1A
:101F800011404FEA144621EA004800FB06FC24EA0F
:101F9000064708FB06F607FB08F800FB07F718EBF7
:101FA00006484CEB164C4FEA124B18EB07484FEA29
:101FB00015464CEB174022EA0B4E0BFB06FC25EABC
:101FC00006470EFB06F607FB0EFE0BFB07F71EEBA4
:101FD000064E4CEB164C4FF000061EEB074E4CEB3A
:101FE000174B18EB0B0840F1000018EB0E0B58EBE9
:101FF000000840F100008F1A4FF000013CBFC943B8
:10200000661B14BFB5EB040C00213CBFC943F61B93
:102010004FEA17444EEA8E0E27EA04454FEA1C4762
:1020200004FB07622CEA074C05FB07F70CFB05F6DF
:1020300004FB0CFC16EB074642EB174216EB0C4672
:1020400042EB1C421BEB060658EB0202414146EAFA
:102050009E0601D5BDE80189B619524141EB010147
:10206000A3F10103BDE801894FEA14454FEA114786
:1020700024EA054621EA074C05FB07F406FB07F7AF
:102080000CFB06F105FB0CFC11EB074144EB17447C
:102090004FEA124711EB0C4144EB1C4422EA074C77
:1020A00005FB07F206FB07F70CFB06F605FB0CFC2D
:1020B00016EB074642EB174216EB0C4642EB1C456B
:1020C0006A1854F1000148BF7047B619524141EBFC
:1020D0000101A3F10103704795F0000F37D04FEADB
:1020E00011424FEA144721EA024624EA074C02FB58
:1020F00007F106FB07F70CFB06F402FB0CFC14EBE4
:10210000074441EB17414FEA154714EB0C4441EBF0
:102110001C4125EA074C02FB07F506FB07F70CFB01
:1021200006F602FB0CFC16EB074645EB174516EBD3
:102130000C4645EB1C42121951F1000148BF704793
:10214000B619524141EB0101A3F1010370474FEA77
:1021500014454FEA114724EA054621EA074C05FBDE
:1021600007F106FB07F70CFB06F24FF0000605FB34
:102170000CFC12EB074241EB174112EB0C4251EB06
:102180001C4148BF7047921841EB0101A3F10103C4
:10219000704710B50AF0ADFE002010BD00BFFEE78D
:1021A00010B507F0F5FA034800F0CCF907F01AFB78
:1021B00010BD00006804002010B507F0E9FA0348DC
:1021C00000F0C0F907F00EFB10BD0000CC040020A9
:1021D00010B507F0DDFA034800F0B4F907F002FB90
:1021E00010BD0000CC05002010B507F0D1FA03485F
:1021F00000F0A8F907F0F6FA10BD00000403002073
:1022000010B507F0C5FA034800F09CF907F0EAFAA8
:1022100010BD00003006002010B507F0B9FA0348E1
:1022200000F090F907F0DEFA10BD0000680300200E
:102230000146087810381823B0FBF3F20848805C98
:10224000C865032A05D908686FF30900001D886571
:1022500003E008686FF309008865886D7047000027
:1022600060E20008014600208A6A8B69CBB932B16E
:10227000012A0DD0022A03D0032A10D10EE000BF9C
:10228000CB6A03F08073B3F1807F00D1012007E0B7
:10229000CB6AB3F1C07F00D1012001E000E000BFB4
:1022A00034E08B69B3F5005F1AD132B1012A07D04F
:1022B000022A03D0032A11D10AE000BF01200EE058
:1022C000CB6A03F08073B3F1807F00D1012006E078
:1022D000CB6AB3F1C07F00D1012000E000BF15E060
:1022E00032B1012A05D0022A04D0032A0CD103E01E
:1022F00000BF00BF012008E0CB6A03F08073B3F198
:10230000807F00D1012000E000BF00BF704730B5E2
:102310000468246824F4802405682C6004686360E1
:102320008468402C04D10468A2600468E16003E082
:102330000468A1600468E26030BD704710B507F022
:1023400027FA012000F098FB07F04CFA10BD10B5F9
:1023500007F01EFA4FF4806000F08EFB4FF400602F
:1023600000F08AFB4FF4805000F086FB4FF40050E1
:1023700000F082FB4FF4804000F07EFB4FF4004001
:1023800000F07AFB07F02EFA10BD10B507F000FA46
:10239000022000F071FB07F025FA10BD10B507F020
:1023A000F7F9042000F068FB07F01CFA10BD10B527
:1023B00007F0EEF9082000F05FFB07F013FA10BDFC
:1023C00010B507F0E5F9102000F056FB07F00AFA07
:1023D00010BD10B507F0DCF9202000F04DFB4020C7
:1023E00000F04AFB802000F047FB4FF4807000F0C3
:1023F00043FB4FF4007000F03FFB07F0F3F910BD12
:1024000070B50446A56D00F037FC064694F835001B
:10241000022808D08020606500BF002084F83400C6
:1024200000BF012070BD2068006820F01600216800
:1024300008602068406920F0800021684861206CB5
:1024400008B9A06C28B12068006820F00800216855
:1024500008602068006820F001002168086010E032
:1024600000F00AFC801B05280BD9202060650320A2
:1024700084F8350000BF002084F8340000BF03203A
:10248000D0E72068006800F001000028E8D194F847
:102490005C103F208840A860012084F8350000BF10
:1024A000002084F8340000BF00BFBBE7014691F86C
:1024B0003500022803D080204865012070470520A0
:1024C00081F835000868006820F001000A68106093
:1024D0000020F3E770B504460CB9012070BD94F8F4
:1024E0003500022800D1F9E72068006820F00100DB
:1024F0002168086000202168086021684860216820
:1025000088602168C86021680861212021684861CD
:102510002046FFF78DFE05460020E06320646064DE
:10252000A064E064206594F85C103F208840A860B7
:102530000020606584F8350000BF84F8340000BFD7
:1025400000BFCBE7F8B50446002000908C48006837
:102550004FF41651B0FBF1F7A56D2E6894F85C109E
:1025600008208840304098B12068006800F00400DE
:1025700070B12068006820F004002168086094F8B9
:102580005C1008208840A860606D40F00100606524
:1025900094F85C1001208840304068B120684069A0
:1025A00000F0800040B194F85C1001208840A860E1
:1025B000606D40F00200606594F85C100420884073
:1025C000304068B12068006800F0020040B194F823
:1025D0005C1004208840A860606D40F004006065D5
:1025E00094F85C1010208840304078B32068006870
:1025F00000F0080050B394F85C1010208840A860E8
:102600002068006800F4802080B12068006800F431
:10261000002028B9206CC8B12046216C884715E0FD
:10262000A06C98B12046A16C88470FE02068006834
:1026300000F4807028B92068006820F00800216844
:102640000860206C10B12046216C884794F85C101B
:10265000202088403040002865D02068006800F0C5
:10266000100000285FD094F85C1020208840A860FB
:1026700094F83500052828D12068006820F016005D
:10268000216808602068406920F080002168486166
:10269000206C08B9A06C28B12068006820F0080000
:1026A0002168086094F85C103F208840A8600120F1
:1026B00084F8350000BF002084F8340000BF206D8E
:1026C00010B12046216D8847F8BD2068006800F4ED
:1026D000802080B12068006800F4002028B9606C78
:1026E00010B12046616C88471DE0E06BD8B12046F0
:1026F000E16B884717E02068006800F4807068B9D3
:102700002068006820F0100021680860012084F82B
:10271000350000BF002084F8340000BFE06B10B12A
:102720002046E16B8847606D38B3606D00F00100B2
:10273000F0B1052084F835002068006820F0010021
:102740002168086000BF0098401C0090B84200D982
:1027500005E02068006800F001000028F3D100BF08
:10276000012084F8350000BF002084F8340000BF49
:10277000E06C10B12046E16C884700BFA4E7000080
:10278000640100202DE9F0410446002500F074FAB0
:10279000074614B90120BDE8F081606A00B100BFAE
:1027A000022084F8350000BF002084F8340000BF08
:1027B0002068006820F00100216808600AE000F04D
:1027C0005BFAC01B052805D920206065032084F82A
:1027D0003500E0E72068006800F001000028EED135
:1027E0002068056821480540D4E901010843E168F3
:1027F00008432169084361690843A1690843E16905
:102800000843216A08430543606A042803D1D4E9D8
:102810000B0108430543206805602068456925F0E1
:102820000705606A0543606A04280DD1A06A054364
:10283000E06A48B12046FFF715FD28B140206065E9
:10284000012084F83500A6E7206845612046FFF79F
:10285000EFFC064694F85C103F208840B0600020F2
:102860006065012084F83500002094E73F8010F077
:102870002DE9F04704460D4616461F464FF0000866
:10288000D4F8589000BF94F83400012802D10220F7
:10289000BDE8F087012084F8340000BF94F83500CB
:1028A000012825D1022084F83500002060653B46D0
:1028B000324629462046FFF72AFD94F85C103F2057
:1028C0008840C9F808002068006840F016002168B8
:1028D0000860206C28B12068006840F0080021687A
:1028E00008602068006840F001002168086006E088
:1028F00000BF002084F8340000BF4FF002084046BB
:10290000C6E70000F0B50C46002500220023002198
:1029100081E0012606FA01F504EA0502AA4279D10E
:102920003F4E8F0856F827308E07370F0F26BE40D0
:1029300033403C4EB04201D1002614E03A4EB04242
:1029400001D101260FE0394EB04201D102260AE042
:10295000374EB04201D1032605E0364EB04201D1D8
:10296000042600E007268F073F0FBE409E4222D17B
:10297000314E36689643304F3E603E1D3668964372
:102980003F1D3E603E1D366896433F1D3E603E1D26
:10299000366896433F1D3E608E07370F0F2606FAB6
:1029A00007F31F4E8F0856F827609E431C4F4FEACF
:1029B000910C47F82C6006684FEA410C032707FA90
:1029C0000CF7BE430660CF0800F1200656F82760DA
:1029D0004F074FEAD76C0F2707FA0CF7BE434FEAB1
:1029E000D10C00F1200747F82C60C6684FEA410C73
:1029F000032707FA0CF7BE43C660466801278F40DD
:102A0000BE43466086684FEA410C032707FA0CF77D
:102A1000BE438660491C1029FFF47BAFF0BD000067
:102A20000838014000000240000402400008024053
:102A3000000C024000100240003C014070B5054609
:102A4000284603F0B7F8044604EB4400094901EBBB
:102A50008000406858B104EB44020B4603EB82024D
:102A6000906804EB440203EB82025168884700BF80
:102A700070BD00000400002010B504460448006842
:102A8000204020B1024804602046FFF7D7FF10BD68
:102A9000143C0140F8B502460B46002500240020F6
:102AA0000021C6E0012606FA01F51E6806EA0504C3
:102AB000AC4274D11E7906F00306012E04D01E79B3
:102AC00006F00306022E13D190684F000326BE4085
:102AD000B0434F00DE68BE4030439060506801262E
:102AE0008E40B0431E79C6F300168E4030435060CE
:102AF0001E7906F00306032E09D0D0684F00032686
:102B0000BE40B0434F009E68BE403043D0601E7947
:102B100006F00306022E13D1CF0802F1200656F864
:102B200027004E07F70E0F26BE40B0434F07FF0E9B
:102B30001E69BE403043CF0802F1200646F8270048
:102B400010684F000326BE40B0431E7906F003060E
:102B50004F00BE40304310605E6806F44036002EE1
:102B600066D000BF00260096344E366846F4804694
:102B7000324F3E603E46366806F48046009600BFFF
:102B800000BF2F4E8F0856F827008E07370F0F26ED
:102B9000BE40B0432B4EB24202D1002615E047E0C2
:102BA000294EB24201D101260FE0284EB24201D196
:102BB00002260AE0264EB24201D1032605E0254E48
:102BC000B24201D1042600E007268F073F0FBE4026
:102BD00030431B4E8F0846F827001F4E3068A04335
:102BE0005E6806F4803606B120431B4E3060361D09
:102BF0003068A0435E6806F4003606B12043164EE6
:102C0000361D3060361D3068A0435E6806F48016BD
:102C100006B12043104E08363060361D3068A043A0
:102C20005E6806F4001606B120430B4E0C36306089
:102C3000491C1029FFF436AFF8BD000044380240AB
:102C40000838014000000240000402400008024031
:102C5000000C024000100240003C01400246136993
:102C60000B400BB1012000E0002070470AB18161E8
:102C700001E00B048361704700B54FF0E02000696C
:102C800000F4803008B100F005F80148006800BD8C
:102C900068010020034800680349096808440149A5
:102CA00008607047680100200000002010B50D4842
:102CB000006840F400700B4908600846006840F462
:102CC000806008600846006840F480700860032057
:102CD00000F0A4F8002000F007F800F00BF8002046
:102CE00010BD0000003C024010B5044606F09AFCFE
:102CF000002010BD08B500BF002000900E480068FD
:102D000040F480400C4908600846006800F48040A8
:102D1000009000BF00BF00BF00200090081F0068A7
:102D200040F08050091F08600846006800F080509D
:102D3000009000BF00BF08BD4438024010B50146F6
:102D40000846002817DB00F01F0301229A400B4BB6
:102D5000440943F8242000BF00BF00BFBFF34F8FDA
:102D600000BF00BF00BF00BF00BF00BFBFF36F8F39
:102D700000BF00BF00BF00BF10BD000080E100E049
:102D800001460846002809DB00F01F0301229A4093
:102D900043099B0003F1E023C3F8002100BF704703
:102DA0002DE9F05F80460D461646002701F0C8FB6E
:102DB000074639462A46334601F00700C0F1070AA4
:102DC000BAF1040F02D94FF0040A01E0C0F1070A7A
:102DD000D14600F1040ABAF1070F02D24FF0000AFF
:102DE00001E0A0F1030AD4464FF0010A0AFA09FAF9
:102DF000AAF1010A0AEA020A0AFA0CFA4FF0010BD8
:102E00000BFA0CFBABF1010B0BEA030B4AEA0B04C8
:102E10002146404601F09CFBBDE8F09F00BF00F05A
:102E20000702064B19684FF6FF031940044B0B438A
:102E300043EA0221014B196000BF70470CED00E02E
:102E40000000FA0570B504460D460CB9012070BDAE
:102E50005848006800F00700A84209D255490D7093
:102E60000846006800F00700A84201D00120EEE704
:102E7000207800F0020002281DD1207800F0040024
:102E8000042805D14C48006840F4E0504A490860E5
:102E9000207800F00800082805D14748006840F471
:102EA0006040454908604448006820F0F000A1688F
:102EB000084341490860207800F00100A8B3606829
:102EC000012807D13C4808380068C0F34040B8B931
:102ED0000120BCE76068022802D06068032807D19F
:102EE000354808380068C0F3406048B90120AEE7B3
:102EF000314808380068C0F3400008B90120A6E74F
:102F00002D48006820F00300616808432A490860E2
:102F1000FFF7B2FE064609E0FFF7AEFE801B41F266
:102F20008831884202D9032091E707E022480068EF
:102F300000F00C006168B0EB810FEDD11D48006816
:102F400000F00700A84209D91A490D700846006828
:102F500000F00700A84201D0012078E7207800F0B7
:102F60000400042807D11448006820F4E050E16808
:102F7000084311490860207800F00800082808D1AB
:102F80000D48006820F46040216940EAC1000A4908
:102F9000086000F03FF808490968C1F30311074AC7
:102FA000515CC8400649086006480068FFF79CFE6F
:102FB00000204CE7003C02400838024048E200088C
:102FC000640100206C010020014800687047000087
:102FD0006401002000B5FFF7F7FF04490968C1F359
:102FE0008221034A515CC84000BD000008380240FD
:102FF00058E2000800B5FFF7E7FF04490968C1F38C
:103000004231034A515CC84000BD0000083802400C
:1030100058E200082DE9F047002400250026A146CB
:103020002548006800F00C0020B1042805D00828CD
:103030003AD105E0DFF8849039E0DFF8849036E09B
:103040001D48001F006800F03F041B48001F006877
:1030500000F4800078B11A481749091F0968C1F3C4
:103060008811A0FB01700146224600233846FDF777
:1030700017FA05460EE011480F49091F0968C1F308
:103080008811A0FB01700146224600233846FDF757
:1030900007FA05460848001F0068C0F30140401CBD
:1030A0004600B5FBF6F902E0DFF8109000BF00BF64
:1030B0004846BDE8F0870000083802400024F400CC
:1030C00000127A00F8B504460CB90120F8BD20784A
:1030D00000F00100002874D0F948006800F00C00EE
:1030E00004280DD0F648006800F00C00082813D121
:1030F000F348001F006800F48000B0F5800F0BD18A
:10310000EF4808380068C0F34040002859D0606894
:10311000002856D10120D9E700BF6068B0F5803F94
:1031200008D1E7480838006840F48030E44908399D
:1031300008601EE06068B0F5A02F0DD1E0480838A7
:10314000006840F48020DE490839086008460068BD
:1031500040F4803008600CE0D9480838006820F45A
:103160008030D749083908600846006820F480207C
:10317000086000BF606890B1FFF77EFD054606E07D
:10318000FFF77AFD401B642801D903209EE7CC4855
:1031900008380068C0F340400028F1D011E0FFF784
:1031A0006BFD054606E0FFF767FD401B642801D96B
:1031B00003208BE7C24808380068C0F3404000286D
:1031C000F1D1207800F0020002285FD1BC480068ED
:1031D00000F00C0058B1BA48006800F00C00082854
:1031E0001CD1B748001F006800F48000B0B9B44893
:1031F00008380068C0F3400020B1E068012801D021
:10320000012063E7AE480838006820F0F800216923
:1032100040EAC100AA490839086037E0E06800B315
:103220000120A8490860FFF727FD054606E0FFF7E3
:1032300023FD401B022801D9032047E7A048083896
:103240000068C0F340000028F1D09D4808380068AD
:1032500020F0F800216940EAC10099490839086066
:1032600014E0002097490860FFF706FD054606E0D8
:10327000FFF702FD401B022801D9032026E79048F2
:1032800008380068C0F340000028F1D1207800F031
:10329000080008282CD16069A8B101208A4908607B
:1032A000FFF7EAFC054606E0FFF7E6FC401B0228B4
:1032B00001D903200AE782486C300068C0F340005F
:1032C0000028F1D014E000207F490860FFF7D4FC0B
:1032D000054606E0FFF7D0FC401B022801D9032079
:1032E000F4E677486C300068C0F340000028F1D164
:1032F000207800F00400042870D10027704838308E
:10330000006800F0805090B900BF002000906C4829
:103310003830006840F0805069493831086008460C
:10332000006800F08050009000BF00BF0127674890
:10333000006800F48070B0B96448006840F48070A0
:1033400062490860FFF798FC054606E0FFF794FC29
:10335000401B022801D90320B8E65C48006800F44D
:1033600080700028F2D000BFA068012808D154481E
:103370006830006840F001005149683108601DE084
:10338000A06805280DD14E486830006840F0040060
:103390004B49683108600846006840F00100086049
:1033A0000CE047486830006820F00100444968316B
:1033B00008600846006820F00400086000BFA068AC
:1033C000A8B1FFF759FC054609E0FFF755FC401B83
:1033D00041F28831884202D9032077E626E0384856
:1033E00068300068C0F340000028EED013E0FFF71B
:1033F00043FC054608E0FFF73FFC401B41F28831E3
:10340000884201D9032061E62D4868300068C0F386
:1034100040000028EFD1012F07D12948383000683B
:1034200020F0805026493831086000BFA06900288C
:1034300045D02348006800F00C0008285DD0A06942
:10344000022845D100201F490866FFF715FC0546F4
:1034500006E0FFF711FC401B022801D9032035E6E6
:10346000174808380068C0F340600028F1D1D4E95B
:1034700007010843616A40EA81110122A06AC2EB98
:10348000500041EA00412C20005D41EA00600C49F7
:10349000091F086001200B490866FFF7EDFB054690
:1034A00006E0FFF7E9FB401B022801D903200DE6E7
:1034B000034808380068C0F340600028F1D049E0B4
:1034C0000838024000004742800E4742007000402A
:1034D000002021490866FFF7CFFB054606E0FFF70D
:1034E000CBFB401B022801D90320EFE51B480068F5
:1034F000C0F340600028F2D12CE0A069012800D17F
:10350000E4E51648001D0668A069012820D006F4ED
:103510008001E06981421BD106F03F01206A8142AF
:1035200016D147F6C0703040616AB0EB811F0FD1F1
:1035300006F440310122A06AC2EB5000B1EB004F0B
:1035400006D106F070612C20005DB1EB006F01D058
:103550000120BBE50020B9E50000474200380240E9
:1035600070B504462546681EB0F1807F01D3012066
:103570000FE0681E4FF0E02148610F214FF0FF304F
:1035800000F0E6FF00204FF0E0218861072008618D
:10359000002070BD704710B504460CB9012010BD65
:1035A000242084F83D002068C06820F40050216881
:1035B000C860204600F0CEF90020206484F83D0069
:1035C00084F83E00206300BF84F83C0000BF00BFC9
:1035D000E5E7000070B504462CB940F217420349F4
:1035E00003A004F05FFB254670BD0000B9E10008B0
:1035F000687561727420213D204E554C4C000000CE
:103600002DE9F84F0446206805682068C6682068E0
:1036100047694FF00009CA4605F00F09B9F1000FDC
:103620000AD105F0200038B106F0200020B1204674
:1036300000F0F4FCBDE8F88FB9F1000F7CD007F082
:10364000010018B906F49070002875D005F001004B
:1036500030B106F4807018B1206C40F00100206495
:1036600005F0040030B107F0010018B1206C40F003
:103670000200206405F0020030B107F0010018B12B
:10368000206C40F00400206405F0080048B106F00A
:10369000200010B907F0010018B1206C40F00800BC
:1036A0002064206C002846D005F0200028B106F0E8
:1036B000200010B1204600F0B1FC20684069C0F342
:1036C000801A206C00F0080010B9BAF1000F2DD05C
:1036D000204600F04AFC2068406900F04000402885
:1036E00020D100BF00BF2168143151E8001F21F034
:1036F00040002168143141E80002002AF3D100BFE4
:10370000A06B50B17548A16B0865A06BFEF7CEFEAB
:1037100088B1A06B016D88470DE02046FFF75AFF86
:1037200009E009E02046FFF755FF04E02046FFF7D7
:1037300051FF002020647DE7206B012876D105F041
:103740001000002872D006F010000028FAD000BF48
:103750000020009020680068009020684068009079
:1037600000BF00BF2068406900F0400040285ED1E3
:10377000A06B006840681FFA80F8B8F1000F54D0C1
:10378000A08D404551DDA4F82E80A06BC069B0F536
:10379000807F43D000BF00BF21680C3151E8001F7B
:1037A00021F4807021680C3141E80002002AF3D135
:1037B00000BF00BF00BF2168143151E8001F21F095
:1037C00001002168143141E80002002AF3D100BF52
:1037D00000BF00BF2168143151E8001F21F04000F4
:1037E0002168143141E80002002AF3D100BF2020F3
:1037F00084F83E000020206300BF00BF21680C3128
:1038000051E8001F21F0100021680C3141E800024E
:10381000002AF3D100BFA06BFEF7F2FDA08DE28D70
:10382000801A81B22046FFF7B5FE03E740E0A08D85
:10383000E18D401A1FFA80F8E08DC0B3B8F1000F97
:1038400035D000BF00BF21680C3151E8001F21F4C2
:10385000907021680C3141E80002002AF3D100BFCA
:1038600000BF00BF2168143151E8001F21F00100A2
:103870002168143141E80002002AF3D100BF202062
:1038800084F83E000020206300BF00BF21680C3197
:1038900051E8001F21F0100021680C3141E80002BE
:1038A000002AF3D100BF41462046FFF773FEC1E670
:1038B00005F0800030B106F0800018B1204600F01D
:1038C000A5FDB7E605F0400030B106F0400018B1A4
:1038D000204600F080FBADE600BFABE6D13D00081E
:1038E00010B504460CB9012010BDA06900B100E07C
:1038F00000BF94F83D0028B9002084F83C00204621
:1039000000F064F8242084F83D002068C06820F4AA
:1039100000502168C860204600F0FCFB2068006968
:1039200020F49040216808612068406920F02A0056
:10393000216848612068C06840F400502168C86070
:1039400000202064202084F83D0084F83E00002000
:10395000CAE7000010B504461649206888420AD11B
:103960001548006820F01000134908604FF4C0614A
:103970001248FEF7C7FF1249206888420BD10E4853
:10398000001F006820F400300B49091F08600C215B
:103990000A48FEF7B7FF0B492068884209D106485C
:1039A000006820F0200004490860C0210648FEF7A6
:1039B000A9FF10BD00100140443802400000024041
:1039C00000440040001401400008024010B586B0D9
:1039D0000446142101A8FCF700FF504920688842E2
:1039E00030D100BF002000904D48006840F010002A
:1039F0004B4908600846006800F01000009000BFC6
:103A000000BF00BF0020009045481438006840F017
:103A100001004349143908600846006800F00100BD
:103A2000009000BF00BF4FF4C060019002200290E0
:103A300001200390002004900720059001A9394837
:103A4000FFF728F838492068884231D100BF0020AC
:103A500000903348001F006840F400303049091FCF
:103A600008600846006800F40030009000BF00BF06
:103A700000BF002000902A481438006840F0010080
:103A80002749143908600846006800F001000090DA
:103A900000BF00BF0C200190022002900120039083
:103AA000002004900720059001A91E48FEF7F2FFB0
:103AB0001E49206888422FD100BF0020009018487E
:103AC000006840F02000164908600846006800F0D1
:103AD0002000009000BF00BF00BF002000901048F1
:103AE0001438006840F004000D4914390860084695
:103AF000006800F00400009000BF00BFC0200190EB
:103B000002200290012003900020049008200590DC
:103B100001A90748FEF7BEFF06B010BD0010014026
:103B200044380240000002400044004000140140BC
:103B30000008024070B504460D46164694F83E0053
:103B4000202816D105B10EB9012070BD00BF94F830
:103B50003C00012801D10220F7E7012084F83C0055
:103B600000BF0020206332462946204600F0E8FBD3
:103B7000EBE70220E9E7000070B504462CB940F2FB
:103B80002742054905A004F08DF8254605F5887003
:103B900002F082F970BD0000D0E100086875617222
:103BA0007420213D204E554C4C00000070B5044659
:103BB0002CB940F23642054905A004F073F82546B9
:103BC00005F5887002F068F970BD0000E8E10008B2
:103BD000687561727420213D204E554C4C000000E8
:103BE000F7B50446154694F83D00202846D10198C3
:103BF00000B10DB90120FEBD00BF94F83C000128C2
:103C000001D10220F7E7012084F83C0000BF0198B1
:103C10002062A584E58400202064212084F83D00F2
:103C20001748616BC8631748616B08641648616B7D
:103C3000C8640020616B086501AE23681A1D3168F5
:103C40002B46606BFEF714FE6FF0400021680860A1
:103C500000BF002084F83C0000BF00BF00BF216807
:103C6000143151E8001F41F080002168143141E80F
:103C70000002002AF3D100BF0020BCE70220BAE70F
:103C8000053F00085D3F0008E53D000870B50446AB
:103C90002CB94FF48B62054905A004F003F82546C2
:103CA00005F5887000F068FC70BD000015E20008A2
:103CB000687561727420213D204E554C4C00000007
:103CC000704700BFFEE77047704710B505F060FD14
:103CD0004FF0E020006900F4803008B1FEF7DAFF11
:103CE00008F068FC05F07EFD10BD000000B593B043
:103CF000302107A8FCF771FD142102A8FCF76DFD27
:103D000000BF002001902748006840F080502549FE
:103D100008600846006800F08050019000BF00BFB6
:103D200000BF002001902048006820F4404040F48B
:103D300000401D4908600846006800F440400190BA
:103D400000BF00BF0220079001200A9010200B90B6
:103D500002200D9000210E9110210F914FF4A871B7
:103D6000109104211191129107A8FFF7ABF918B136
:103D700023210EA000F0A0FB0F2002900220039050
:103D8000002004904FF480500590002006900221FE
:103D900002A8FFF757F818B1302104A000F08CFBFF
:103DA00013B000BD4038024000700040626F617285
:103DB000645C626F6172642E6300000003480068F7
:103DC00040F47000014908607047000088ED00E091
:103DD00070B50546AC6B0020E085E0842046FFF717
:103DE000F9FB70BD70B506460025B46B20684069CC
:103DF000C0F3C01594F83D00212805D125B100205D
:103E0000E084204600F0F7F820684069C0F3801590
:103E100094F83E00222805D125B10020E0852046F7
:103E200000F0A3F8206C40F0100020642046FFF75B
:103E3000D1FB70BD70B50546AC6B2868006800F416
:103E40008070002842D1E08500BF00BF21680C319E
:103E500051E8001F21F4807021680C3141E8000214
:103E6000002AF3D100BF00BF00BF2168143151E820
:103E7000001F21F001002168143141E80002002AEE
:103E8000F3D100BF00BF00BF2168143151E8001F0B
:103E900021F040002168143141E80002002AF3D1EA
:103EA00000BF202084F83E00206B01280ED100BF07
:103EB00000BF21680C3151E8001F21F0100021687B
:103EC0000C3141E80002002AF3D100BF206B012829
:103ED00004D1A18D2046FFF75DFB02E02046FFF7ED
:103EE0004BFE70BD70B50546AC6B206B012805D14B
:103EF000A08D41082046FFF74DFB02E02046FFF76A
:103F000055FE70BD70B50546AC6B2868006800F4BE
:103F10008070F8B90020E08400BF00BF2168143130
:103F200051E8001F21F080002168143141E80002AF
:103F3000002AF3D100BF00BF00BF21680C3151E857
:103F4000001F41F0400021680C3141E80002002AC6
:103F5000F3D102E02046FFF799FE70BD70B504462C
:103F6000A56B2846FFF7ACFE70BD00BF00BF02681E
:103F70000C3252E8002F22F4907102680C3242E8B1
:103F80000013002BF3D100BF00BF00BF0268143242
:103F900052E8002F22F001010268143242E80013B7
:103FA000002BF3D100BF016B01290ED100BF00BF70
:103FB00002680C3252E8002F22F0100102680C3225
:103FC00042E80013002BF3D100BF202180F83E10FF
:103FD00000210163704710B504462068C06820F0D6
:103FE00040002168C860202084F83D002046FFF78B
:103FF0004DFE002010BD00BF00BF02680C3252E829
:10400000002F22F0C00102680C3242E80013002B9E
:10401000F3D100BF202180F83D107047F8B5044669
:1040200094F83E00222873D1A068B0F5805F0CD1CF
:10403000206950B90025A66A20684068C0F30800CE
:104040003080A06A801CA06215E0A56A0026A068E6
:10405000B0F5805F03D0A06828B9206918B920683E
:104060004068287004E02068406800F07F002870F5
:10407000A06A401CA062E08D401E80B2E08500284E
:1040800044D12068C06820F020002168C860206802
:10409000C06820F480702168C8602068406920F002
:1040A000010021684861202084F83E00206B01282F
:1040B00026D10020206300BF00BF21680C3151E8E9
:1040C000001F21F0100021680C3141E80002002A95
:1040D000F3D100BF2068006800F0100010280AD15A
:1040E00000BF0020009020680068009020684068B1
:1040F000009000BF00BFA18D2046FFF74BFA02E001
:104100002046FFF739FD0020F8BD01E00020FBE765
:104110000220F9E72DE9F84F04462068006920F4F1
:104120004050E1680843216808612169A06808439C
:1041300061690843E169084300902068C06849F25A
:104140000C618843009908432168C8602068406971
:1041500020F44070A16908432168486176492068CD
:10416000884203D075492068884203D1FEF742FF98
:10417000814602E0FEF72EFF8146E069B0F5004F70
:104180006CD102206168A0FB015003461920A9FBF5
:10419000007001462A463846FCF782F96421B0FBDC
:1041A000F1F04FEA001A02206168A0FB01510B46B2
:1041B0001920A9FB00712A463846FCF771F983469D
:1041C00002206168A0FB015003461920A9FB007181
:1041D0002A463846FCF764F96421B0FBF1F000EBA5
:1041E000C00101EB0010ABEB8000322101EBC000FD
:1041F0006421B0FBF1F000F0F8000AEB400A022065
:104200006168A0FB015003461920A9FB007001461C
:104210002A463846FCF744F9834602206168A0FB31
:10422000015003461920A9FB00712A463846FCF7C5
:1042300037F96421B0FBF1F000EBC00101EB001095
:10424000ABEB8000322101EBC0006421B0FBF1F048
:1042500000F007005044216888606AE0042061682B
:10426000A0FB015003461920A9FB007001462A4615
:104270003846FCF715F9824604206168A0FB01501E
:1042800003461920A9FB007001462A463846FCF770
:1042900007F96421B0FBF1F000EBC00101EB001065
:1042A000AAEB8000322101EB00106421B0FBF1F099
:1042B00000F0F00A04206168A0FB01700346192099
:1042C000A9FB00513A462846FCF7EAF86421B0FB06
:1042D000F1F00AEB001A04206168A0FB01510B46C3
:1042E0001920A9FB00712A463846FCF7D9F8834605
:1042F00004206168A0FB015003461920A9FB00704F
:1043000001462A463846FCF7CBF86421B0FBF1F0B1
:1043100000EBC00101EB0010ABEB8000322101EBA0
:1043200000106421B0FBF1F000F00F005044216850
:104330008860BDE8F88F00000010014000140140C3
:1043400077B581B0044615460298A062A585002085
:104350002064222084F83E002948A16BC8632948C4
:10436000A16B08642848A16BC8640020A16B086594
:1043700002AE32682368191D2B46A06BFEF778FA4F
:1043800000BF00200090206800680090206840680E
:10439000009000BF00BF00BF002084F83C0000BFB9
:1043A00000BF00BF21680C3151E8001F41F480704C
:1043B00021680C3141E80002002AF3D100BF00BFA0
:1043C00000BF2168143151E8001F41F0010021684D
:1043D000143141E80002002AF3D100BF00BF00BF42
:1043E0002168143151E8001F41F040002168143168
:1043F00041E80002002AF3D100BF002004B070BDE4
:10440000353E0008E53E0008E53D0008014691F80C
:104410003D00212828D18868B0F5805F0BD108695C
:1044200048B90A6A1088C0F308000B685860086A27
:10443000801C086205E00B6A581C086218780B683B
:104440005860C88C401E80B2C88458B90868C068DB
:1044500020F080000B68D8600868C06840F0400019
:104460000B68D860002070470220FCE710B505F00B
:104470008FF9034809F09AFB05F0B4F910BD00006C
:10448000CC03002010B505F083F9034809F08EFB3A
:1044900005F0A8F910BD00003005002010B505F0AA
:1044A00077F9034809F082FB05F09CF910BD000084
:1044B0009406002000BFFEE704460D4600BF07A09B
:1044C00005F0ACF92A46214608A005F0A7F90FA08F
:1044D00005F0A4F900BF00BFFEE700005B452F64B4
:1044E00072765F636F6D6D6F6E5D20004572726FE7
:1044F000725F48616E646C65722061742066696CDD
:10450000653A2573206E756D3A2564000A00000037
:1045100003B401984100009850EAC12018BF04205C
:104520004A0D18BF40F0010040F2FF72B2EB515F3C
:1045300008BF40F00200012808BF052002B0704704
:1045400002480068C0F30220704700000CED00E054
:1045500010B5002804DB0A07130E054A135406E0C1
:104560000A07140E034A00F00F031B1FD45410BD9A
:1045700000E400E018ED00E02DE9F04104462CB91C
:1045800040F241420A490BA003F08CFBA4F5887568
:10459000FBF7ECFE0746D5F8AC0046683846FBF75B
:1045A000E9FE1EB90421204604F0B8FEBDE8F08102
:1045B00004E2000873657269616C20213D20525449
:1045C0005F4E554C4C00000010B507F0BFFE28B1FF
:1045D0004FF0FF31024805F075FC10BD0020FCE7EC
:1045E0004009002010B504462CB14FF4AC620549D7
:1045F00005A003F057FB07F0A9FE10B1064805F02F
:1046000071FB10BDC4E900086C6576656C203D3D0A
:104610002052545F454F4B004009002070B50446BE
:104620002068A0F1140500BF00BF284607F040FE37
:10463000002070BD70B505460EE0FBF797FE0646FC
:104640002868A0F114044FF0FF302063204607F0E3
:104650002FFE3046FBF78EFE284605F042F9002873
:10466000EBD0002070BD00002DE9F04105460C465E
:104670009046204607F010FFB8F1000F03D0B8F1C4
:10468000010F23D105E004F11401284605F00AF9D1
:1046900022E02E680FE0A6F1140794F8350097F891
:1046A0003510884206DA04F1140107F1140005F010
:1046B000F9F802E03668AE42EDD100BFAE4204D157
:1046C00004F11401284605F0EDF805E0A3220449A1
:1046D00004A003F0E7FA00BF00BF0020BDE8F081AE
:1046E00087E700083000000010B5044604F114000C
:1046F00005F0BDF8002010BD30380A2801D2012095
:1047000070470020704700002DE9F0438BB005464C
:104710008946174600242DB940F20B121D491EA0F0
:1047200003F0C0FA2FB94FF486721A491BA003F0A8
:10473000B9FA00E0641C285D202804D0285D09280F
:1047400001D04C45F6D324B94FF0FF300BB0BDE893
:10475000F0832146284603F02DF8064616B94FF09F
:10476000FF30F3E72822002101A805F0A1F901AAF2
:104770004946284603F070F88046B8F1000F02D190
:104780004FF0FF30E2E701A94046B0473860002013
:10479000DCE7000038E60008636D64007265747041
:1047A000000000002DE9F0410546884616462F46D8
:1047B00027B93822084909A003F074FA34461CB915
:1047C0004FF0FF30BDE8F08162882188386C0368C3
:1047D000284698470020F5E77DE2000870696E20C2
:1047E000213D2052545F4E554C4C00002DE9F047BE
:1047F0000546894616461F46A846B8F1000F04D163
:1048000019220A490AA003F04DFA34460CB1042FCC
:1048100002D00020BDE8F0872188D8F840008268E7
:104820002846904760803846F4E7000068E20008B8
:1048300070696E20213D2052545F4E554C4C000053
:104840002DE9F0470546894616461F46A846B8F1A9
:10485000000F04D128220A490AA003F023FA3446A3
:104860000CB1042F02D00020BDE8F08762882188B7
:10487000D8F840004368284698473846F4E70000D7
:1048800072E2000870696E20213D2052545F4E553F
:104890004C4C000070B5044624B95F22134914A0A3
:1048A00003F000FAA06A0078232809D1A16AE06920
:1048B000884205D9D4E90A010844E16988420AD24C
:1048C000214610A004F0AAFFFBF750FD054600BFEB
:1048D000002DFDD108E0A06A2030E169814203D8B3
:1048E00021460FA004F09AFF70BD0000AAEA00085C
:1048F00074687265616420213D2052545F4E554CAE
:104900004C0000007468726561643A25732073740A
:1049100061636B206F766572666C6F770A000000CA
:104920007761726E696E673A2025732073746163D4
:104930006B20697320636C6F736520746F20656EE4
:1049400064206F6620737461636B206164647265B8
:1049500073732E0A0000000070B504460648006814
:10496000FBF7DEFC451E054850F83500A0F11406A3
:104970002560304670BD00007C020020E409002064
:1049800010B50948006868B900BF08A004F046FFE8
:10499000094804F043FF09A004F040FF00BF0120D4
:1049A0000149086010BD0000740100205B572F55BD
:1049B0004152545D200000000CEE00080A00000087
:1049C0002DE9F04704460F46904604B12FB940F256
:1049D000E712404940A003F065F9FBF7C7FC8246A7
:1049E000A06CC0F38F2000282DD10026E56C2DB9D6
:1049F00040F2F112374943A003F054F92868012826
:104A000013D001202860206C006928B94FF4FB7294
:104A1000304941A003F046F9206C01234246394653
:104A2000D0F810C02046E04701E06FF0060650467F
:104A3000FBF7A0FC16B94046BDE8F087304606F00B
:104A40001FFE0020F8E7E56C0026204604F0D0F9B0
:104A500081462DB940F206221E4939A003F022F901
:104A6000C84501DA464600E04E46E8888119A06C48
:104A7000C0F38F20814207D2EA8828688118324625
:104A8000384604F094FF1CE0A06CC0F38F20EB8844
:104A9000C21A2868C118384604F089FFEB8803EB76
:104AA000060CA36CC3F38F23ACEB0302A36CC3F31C
:104AB0008F233B44B5F806C0A3EB0C00296804F033
:104AC00076FF3146204604F099F95046FBF752FC38
:104AD0003046B1E785E300082873657269616C2090
:104AE000213D2052545F4E554C4C2920262620282B
:104AF0006461746120213D2052545F4E554C4C2915
:104B00000000000072785F646D6120213D205254E6
:104B10005F4E554C4C00000073657269616C2D3E10
:104B20006F70732D3E646D615F7472616E736D6939
:104B30007420213D2052545F4E554C4C0000000023
:104B400072785F6669666F20213D2052545F4E5532
:104B50004C4C00002DE9F047044688461646256D6A
:104B60004FF0FF3332464146281D03F035FD07461E
:104B7000CFB9FBF7FBFB8146286801280DD0012047
:104B800028604846FBF7F6FB206C0223324641467C
:104B9000D0F810C02046E04702E04846FBF7EAFBA9
:104BA0003046BDE8F087384606F06AFD0020F8E799
:104BB00070B50546EC6C2CB940F279120F4910A083
:104BC00003F070F8A088E188884207D1A06808B98E
:104BD000002070BDA86CC0F38F20FAE7A088E188A0
:104BE000884203DDA088E188401AF2E7E088A188C6
:104BF000411AA86CC0F38F20401AEAE72EE30008A0
:104C000072785F6669666F20213D2052545F4E5571
:104C10004C4C00002DE9F04706460F4615462EB9CC
:104C20004FF488721E491FA003F03CF8A846F46CAC
:104C30002CB94FF48A721A491FA003F033F828E008
:104C4000FBF794FB8246E088A188884205D1A068E2
:104C500018B95046FBF78EFB1DE0E188206810F87C
:104C60000190E088401CE080E188B06CC0F38F20A8
:104C7000814201DB0020E080A068012801D10020F2
:104C8000A0605046FBF776FB87F800907F1C6D1EF6
:104C900000BF002DD4D100BFA8EB0500BDE8F08710
:104CA00010E3000873657269616C20213D20525445
:104CB0005F4E554C4C00000072785F6669666F204D
:104CC000213D2052545F4E554C4C00002DE9F041DF
:104CD00004460E4615462CB94FF4A0721B491C48D9
:104CE00002F0E0FFA846276D2FB94FF4A2721749D2
:104CF00018A002F0D7FF23E030780A2810D1207ED8
:104D000000F0400060B1206C0D2182682046904781
:104D1000401C28B94FF0FF31384603F067F80FE028
:104D20003178206C826820469047401C28B94FF0AB
:104D3000FF31384603F05AF802E0761C6D1E00BFC2
:104D4000002DD9D1A8EB0500BDE8F0811FE30008D4
:104D5000B44D0008747820213D2052545F4E554CCC
:104D60004C0000002DE9F04106460F46144626B9D6
:104D7000DA220F490FA002F095FFA04611E0306C37
:104D8000C168304688470546681C00B90BE03D7095
:104D90007F1C641E307E00F0400010B10A2D00D14F
:104DA00001E0002CEBD100BFA8EB0400BDE8F081CE
:104DB000F0E2000873657269616C20213D20525455
:104DC0005F4E554C4C0000002DE9F04104460E4664
:104DD000154624B9F1220F490F4802F063FF2F4610
:104DE00012E030780A2808D1207E00F0400020B17F
:104DF000206C0D218268204690473178206C8268B3
:104E000020469047761C6D1E002DEAD1781BBDE828
:104E1000F081000000E30008B44D00082DE9F743DD
:104E200004461646256D4FF0FF333246281D019982
:104E300003F0D2FB0746CFB9FBF798FA8046286803
:104E400001280DD0012028604046FBF793FA206C22
:104E50000223324601A9D0F810C02046E04702E004
:104E60004046FBF787FA3046BDE8FE83384606F039
:104E700007FC0020F8E700002DE9F04704460E4645
:104E80009046002704B12EB940F24922144915A0DA
:104E900002F008FFE56C2DB940F24B2210491BA02F
:104EA00002F000FFFBF762FA82462868012809D069
:104EB000206C012342463146D0F810C02046E0471E
:104EC000814601E06FF006075046FBF753FA17B929
:104ED0004846BDE8F087384606F0D2FB0020F8E7E8
:104EE00094E300082873657269616C20213D2052AB
:104EF000545F4E554C4C292626286461746120214C
:104F00003D2052545F4E554C4C29000072785F761C
:104F100069727475616C20213D2052545F4E554C6E
:104F20004C00000070B507F011FA0446FBF71EFABA
:104F30000546204605F09CFC04F14C0007F040FCBF
:104F4000042084F83400204607F04AF82846FBF78E
:104F500011FA05F091FB70BD2DE9FC5F04468B460C
:104F600015461E46DDE90C9ADDE90E7804F11400C1
:104F70004060006000BF25626662C4F82890C4F8F3
:104F80002CA02321D4E90A0204F092FDD4E90A3CC2
:104F900063441A1F174BD4E9080104F01BFBE061BE
:104FA000202F04DBBE22144914A002F07BFE84F8FB
:104FB00035700020A063C4F84480C4F848802063A2
:104FC00084F83400A067E06700902346144A214625
:104FD000019004F14C0007F063FC00BF1148006829
:104FE00018B120460F490968884700BF0020BDE876
:104FF000FC9F0000254F000808EB00087072696FE5
:1050000072697479203C2052545F5448524541449F
:105010005F5052494F524954595F4D41580000006A
:10502000295000089C02002070B505462C4624B982
:105030008722164916A002F035FE94F8340000F0DD
:105040000700022804D08822104916A002F02AFE88
:10505000204605F0C7F9012804D089220B492048D1
:1050600002F020FEFBF782F906466FF00100206394
:1050700004F1140004F058FC204605F0ABFB304668
:10508000FBF778F905F0F8FA70BD0000F8EA0008BF
:1050900074687265616420213D2052545F4E554C06
:1050A0004C000000287468726561642D3E73746161
:1050B0007420262052545F5448524541445F535453
:1050C00041545F4D41534B29203D3D2052545F5484
:1050D00048524541445F53555350454E44000000EB
:1050E0004CF200082DE9F04704460E461746984654
:1050F000DDF8209084F80990607A20F00100607259
:10510000E66127620020A062C4F82480002506E042
:1051100004F1140101EBC50004F0ACFB6D1C012D82
:10512000F6DBBDE8F08770B50546002406E005F122
:10513000140101EBC40004F000FC641C012CF6DB3C
:1051400070BD000088B008A1802008F093FE08F030
:10515000C3FE08E002E0642006F050FF684608F055
:10516000CDFE0028F7D1F5E77561727436000000B6
:1051700070B5054600242DB940F261220E490FA0FA
:1051800002F090FD002413E004EB840101EBC40164
:105190000D4A52F82100294606F094FD38B904EB77
:1051A000840000EBC400084901EB800070BD641C62
:1051B000012CE9DB0020F9E7D9EC00086465765F93
:1051C0006E616D6500000000E40A0020034800687D
:1051D00008B9002070470148FCE70000E40A0020FD
:1051E0002DE9F04104460D461646002711E03046F1
:1051F00007F0BEF980464146606905F05DFD07464F
:1052000017B13846BDE8F08100220121606905F040
:105210006FFB01232A460021206803F0DBFC0028F5
:10522000E5D00020EEE700002DE9F047074688466C
:1052300000250026A94600242FB940F2A732514983
:1052400051A002F02FFDB8F1000F05D14FF46A72A2
:105250004C4950A002F026FD3846FFF789FF10B1F7
:105260003046BDE8F087002500E06D1C012D08DA0E
:1052700005EB850000EBC5004A4951F820000028E5
:10528000F3D1012D0EDB00BF47A004F0C7FA0121C6
:10529000494804F0C3FA49A004F0C0FA00BF6FF017
:1052A00002064BE005EB850000EBC5003D4901EB34
:1052B0008004C4F81080204600F002F9064606B1CA
:1052C0003CE0384603F0B8FB20602068002825D079
:1052D0002068007D28B140F2C5322A4938A002F08A
:1052E000E1FC40F20321206803F0AEFB814609F1A6
:1052F000080028B940F20311206803F0A5FB81469D
:10530000B9F1000F05D040F2CE321E4938A002F0AC
:10531000C9FC3D49206803F0D1FC0EE000BF22A08B
:1053200004F07CFA394639A004F078FA23A004F09E
:1053300075FA00BF4FF0FF3600E000BF8EB90120C4
:105340002071206B07F04AF800BF3EA004F066FA17
:105350003A4640A141A004F061FA18A004F05EFAB8
:105360000DE000BF10A004F059FA33463A4639A1C7
:1053700046A004F053FA11A004F050FA00BF3046E2
:105380006FE70000E7EC00086465765F6E616D65AD
:1053900000000000726563765F627566737A203E76
:1053A00020300000E40A00205B452F61742E636CFE
:1053B0006E745D200000000088F400080A00000000
:1053C000636C69656E742D3E6465766963652D3E18
:1053D00074797065203D3D2052545F446576696361
:1053E000655F436C6173735F436861720000000026
:1053F0006F70656E5F726573756C74203D3D2052F1
:10540000545F454F4B000000015700084154206392
:105410006C69656E7420696E697469616C697A651E
:10542000206661696C656421204E6F742066696E28
:10543000642074686520646576696365282573292E
:105440002E0000005B492F61742E636C6E745D202A
:1054500000000000312E332E310000004154206343
:105460006C69656E742856257329206F6E206465FB
:105470007669636520257320696E697469616C695A
:105480007A6520737563636573732E0041542063DE
:105490006C69656E742856257329206F6E206465CB
:1054A0007669636520257320696E697469616C692A
:1054B0007A65206661696C6564282564292E000080
:1054C0007FB50446002500202071E060012021699D
:1054D00002F022FCA060A06860B900BF56A004F0F2
:1054E0009DF959A004F09AF966A004F097F900BF5D
:1054F0006D1F79E06448006864A366A208210090EB
:1055000002A806F0BBFB012102A804F0F5FAA06195
:10551000A06968B900BF48A004F080F95FA004F05A
:105520007DF958A004F07AF900BF6FF004055BE044
:105530005548006869A357A20821009002A806F008
:105540009DFB0022114602A805F00CFA606160691B
:1055500068B900BF38A004F061F9624804F05EF950
:1055600048A004F05BF900BF6FF004053CE046483A
:1055700000685DA347A20821009002A806F07EFB08
:105580000022114602A805F0EDF92062206A68B9F0
:1055900000BF29A004F042F9554804F03FF939A0B2
:1055A00004F03CF900BF6FF004051DE00020A0628C
:1055B000E062354800684FA336A20821009002A897
:1055C00006F05CFB052009214FF4C0632246CDE9BB
:1055D00000104A4902A806F0BDFC2063206B10B9F8
:1055E0006FF0040500E000BFF5B1A06910B1A0693B
:1055F00004F0CCFA606910B1606905F02FFA206AF6
:1056000010B1206A05F02AFA206810B1206803F072
:10561000BDF9A06810B1A06803F0C4FC34220021D9
:10562000204604F045FA04E017480068401C16497B
:105630000860284604B070BD5B452F61742E636C12
:105640006E745D2000000000415420636C69656E3B
:105650007420696E697469616C697A652066616934
:105660006C656421204E6F206D656D6F72792066C8
:105670006F7220726563656976652062756666651E
:10568000722E00000A000000B402002061745F6303
:1056900000000000257325640000000041542063D1
:1056A0006C69656E7420696E697469616C697A658C
:1056B000206661696C6564212061745F636C696553
:1056C0006E745F726563765F6C6F636B2063726587
:1056D000617465206661696C6564210061745F6353
:1056E0007300000028F3000861745F63720000001B
:1056F00070F3000861745F636C6E7400E55C000811
:1057000070B505460E46002400BF14E004EB84008B
:1057100000EBC4000A4951F82000A8420AD14EB15A
:1057200004EB840101EBC401054A02EB81014869E5
:1057300005F06EFA641C012CE8DB002070BD00004F
:10574000E40A00202DE9F04105460E4617460024E4
:105750001821012002F0E0FA04466CB900BF15A040
:1057600004F05CF8174804F059F817A004F056F854
:1057700000BF0020BDE8F0812946012002F0CCFAEC
:105780002060206878B900BF0AA004F047F80F48ED
:1057900004F044F80CA004F041F800BF204603F0E8
:1057A00001FC0020E6E76560E6600020206167619B
:1057B0002046DFE75B452F61742E636C6E745D20BD
:1057C00000000000FCF300080A000000B8F3000825
:1057D00010B5044624B1206810B1206803F0E2FB44
:1057E0001CB1204603F0DEFB002410BD0146024838
:1057F0000068086001487047B8020020180B0020BC
:105800000FB42DE9FC4104460D460020009000260F
:1058100000270A9828B94FF494723A493AA002F046
:1058200041FA84B900BF3BA003F0F8FF3D4803F004
:10583000F5FF3DA003F0F2FF00BF4FF0FF30BDE8E1
:10584000FC015DF814FB2079022803D115B16FF03B
:105850000600F4E74FF0FF31A06904F033FB0020AD
:1058600084F824000DB1A8602861E56100220121BF
:10587000206A05F03DF80BA801902068019A0A996A
:1058800000F06EF900200190002D33D06969206A84
:1058900005F012FAB8B16846FFF7A8FF074600BF47
:1058A00022A003F0BBFF3A466B6924A0009903F0E5
:1058B000B5FF1DA003F0B2FF00BFFE2084F8240056
:1058C0006FF0010617E094F8240098B16846FFF7DE
:1058D0008DFF074600BF0FA003F0A0FF3A4622A0AD
:1058E000009903F09BFF10A003F098FF00BF4FF05A
:1058F000FF3600E000BF0020E061A06904F0F2F98B
:1059000030469CE78EEC0008636D645F65787072CA
:10591000000000005B452F61742E636C6E745D2087
:105920000000000040F400080A0000005B572F61EF
:10593000742E636C6E745D200000000065786563F2
:1059400075746520636F6D6D616E642028252E2A45
:1059500073292074696D656F75742028256420741F
:1059600069636B7329210000657865637574652030
:10597000636F6D6D616E642028252E2A7329206661
:1059800061696C656421000070B504460D465CB920
:1059900000BF07A003F042FF094803F03FFF09A042
:1059A00003F03CFF00BF70BD657100BFFBE7000066
:1059B0005B452F61742E636C6E745D2000000000E7
:1059C00040F400080A000000F8B504460025002055
:1059D00000900026002700212269A06804F068F8E2
:1059E0000020E0603BE04FF0FF3269462046FFF7C1
:1059F000F7FB2069A84207D99DF8002028466D1CB6
:105A0000A3681A54E56000E001279DF800000A2809
:105A100001D10D2E0AD0607920B160799DF8001077
:105A2000884203D0204600F069FEB0B1A7B100BFA4
:105A30000DA003F0F3FE1048216903F0EFFE0FA064
:105A400003F0ECFE00BF00212269A06804F030F8EA
:105A50000020E060C01EF8BD02E09DF80060C2E7D3
:105A600000BF2846F7E700005B452F61742E636C8A
:105A70006E745D2000000000E4F200080A000000DF
:105A80002DE9F04104460D4626684FF00008012735
:105A900024B99922144915A002F004F92069A842FA
:105AA00000D375B900BF13A003F0B8FE294615A0B6
:105AB00003F0B4FE22A003F0B1FE00BF0020BDE859
:105AC000F08101270AE0BD4202D1B0464046F6E728
:105AD0003046FAF7C7FD401C06447F1C2069B842D7
